:100000006826002041040000390400003D0400007F
:100010003904000039040000390400000000000029
:1000200000000000000000000000000065770000F4
:100030003904000000000000C9760000B17600001D
:10004000410400004104000041040000410400009C
:1000500000000000410400004104000041040000D1
:10006000410400004104000041040000410400007C
:100070005DA600008DA60000BDA6000041040000A2
:10008000410400004104000041040000410400005C
:100090004104000041040000410400000000000091
:1000A000410400004104000041040000410400003C
:1000B0004104000000000000C5110000094D0000CF
:1000C0000000000000000000000000000000000030
:1000D0000000000000000000000000000000000020
:1000E0000000000000000000000000000000000010
:1000F0000000000000000000000000000000000000
:10040000FFFFFFFFFFFFFFFFFFFFFFFFFEFFFFFFFD
:1004100010B504000100054809F09CFF044A137858
:10042000591C1170034AD45410BDC04600A00640A8
:10043000D0F1FF1FB010002072B6FEE772B6FEE7E3
:1004400010B5144B144A9A420ED2144B114A03327F
:10045000D21A92080132920000230F481049CC585A
:10046000C45004339342FAD10E4B0F4A9A420ED233
:100470000E4B0C490331C91A890801318900002348
:10048000140000201A19106004338B42FAD103F0D3
:1004900051FC10BDD0F1FF1F00F0FF1F04F0FF1F43
:1004A000FCFD0000E8240020D0F1FF1FD4F1FF1F65
:1004B00010B5002910D00A4B18600A4B1A80E823A7
:1004C0005B009A4200DD1A0007480BF000FE042092
:1004D00001F0E6FB00F06AFF0022024B1A8010BD1B
:1004E000D413002088150020FC110020F0B55746D9
:1004F0004E46C0B487B00400009101920EAA108845
:100500008246002B1BD002AD2800270046CF46C0F4
:1005100081463E680660668A1022190020000BF0B2
:10052000D6FD53466382019A00992000FFF7C0FF71
:10053000230007CD07C34B461B683B60668207B0AC
:100540000CBC91469A46F0BD7047C046F0B5474690
:1005500080B482B0050000911600104808F0C8FC75
:10056000041E17D00D4B043301930C4B9846012DFC
:1005700004D8019808F0FEFC030001E043469B68A4
:100580003200009928006768B847200008F0FEFC98
:10059000041EECD102B004BC9046F0BDD4F1FF1FA4
:1005A00070B50C4C200008F03BF90B4D28000C30C6
:1005B00008F09AFC20000C30084903F0D5FC20001C
:1005C0001C3008F02DF9281D08F08EFC280008F0DA
:1005D0008BFC70BD00F0FF1FD4F1FF1FED07000082
:1005E00010B5002807D0416804480C3003F018FE0D
:1005F00003F0DAFA00E0002010BDC04600F0FF1F53
:1006000010B502480C3008F073FC10BDD4F1FF1F88
:1006100010B5002802D008F0B9FC00E0002010BDA1
:10062000F0B583B00090254808F050FC244808F04D
:100630004DFCFFF7E5FF041E2CD00027002301939B
:100640002426A55DBD420BD3EA082100083100989D
:100650000BF02EFD002803D1802D07D02F00019430
:100660002000FFF7D5FF041EEBD100E00194019CB0
:10067000002C0FD0134808F029FC134808F026FC82
:100680000F4808F023FC11480C3008F031FC84427C
:1006900006D110E00E4808F019FC002301930AE08F
:1006A0000A4C0C34019D2900200008F02FFC290081
:1006B000200008F055FC019803B0F0BD0CCA000002
:1006C00000D4000034CA000054CA0000D4F1FF1F57
:1006D0005CCA000070B5051E59D04368002B56D087
:1006E0002B4808F0F3FB2B4808F0F0FB29002A48C0
:1006F0000C3008F00BFC6B68586808F0F9FB041E1E
:1007000039D043689D4207D0200008F03FFC041E0A
:1007100031D043689D42F7D16B685868210008F0DA
:10072000F5FB6B68586808F0E3FB002808D11B480C
:1007300008F0CCFB6B68596819480C3003F040FD99
:10074000174E2900300008F09DF8300028302100B5
:1007500008F098F8104B9A68511E9960114808F0FB
:10076000B5FB2800FFF73CFF0200290008310320F9
:10077000FFF7ECFE0BE00C4808F0A8FB280008305F
:1007800008F016F8034808F0A1FB0024C4E770BD88
:100790007CCA000000D40000D4F1FF1FA0CA0000F2
:1007A00000F0FF1FCCCA0000E8CA000010B504002A
:1007B0000C4808F08BFB002C13D06068002810D088
:1007C00008F096FB002807D04068FFF783FF6068B9
:1007D00008F08EFB0028F7D1210003480C3003F00D
:1007E000EFFC10BD18CB000000F0FF1F10B5FFF7A5
:1007F000DDFF10BDF0B583B000900F000192100036
:1008000003F0D6F9061E07D14B4808F05FFB4B48B2
:1008100008F05CFB00238CE00098FFF701FF041E4A
:1008200014D0FFF7DDFE002807D010220100019848
:100830000BF03EFC230000287BD0414808F046FB2B
:10084000404808F043FB2000FFF744FF3E4B9B6805
:100850000A2B0DD13C480C3008F04CFB04003B48FF
:1008600008F034FB354808F031FB2000FFF732FF79
:10087000310037480C3003F08BFC051E10D13100DD
:1008800033480C3003F0CEFB051E04D1314808F08C
:100890001DFB00234DE068600023036008F024FB8B
:1008A0002B4807F0CDFF041E04D12B4808F00EFBA7
:1008B00000233EE0010024480C3008F051FB24489E
:1008C000283007F0BDFF002808D1244808F0FEFAC0
:1008D00021001F4807F0D6FF00232AE044600100F2
:1008E000686808F02DFB6560174B9A68511C996089
:1008F0001B4808F0EBFA200008301022009D290068
:100900000BF0E5FB2423E754200018300C220021D3
:100910000BF0FBFB134808F0D9FA134808F0D6FA9D
:10092000064808F0D3FA019A29000220FFF70EFECC
:100930002300180003B0F0BD34CB000000D4000049
:1009400070CB000094CB0000D4F1FF1FACCB0000B3
:1009500000F0FF1FD4CB000010CC000040CC000002
:1009600084CC0000A0CC000054CA000010B50400E4
:100970001148043008F0BCFA00281BD0A04215D161
:1009800001E0844212D10D4808F0A0FA21000A4883
:10099000043008F0BBFA210009481C3007F072FF50
:1009A000211D0A000120FFF7D1FD03E008F0EEFA57
:1009B0000028E6D110BDC046D4F1FF1FC4CC000012
:1009C00000F0FF1F70B505000B48043008F090FAE6
:1009D000041E0DD0201D102229000BF069FB0028F9
:1009E00008D0200008F0D2FA041EF3D1002002E063
:1009F000002000E0200070BDD4F1FF1F70B505009D
:100A00000E001C4808F062FA2800FFF7DBFF041E06
:100A100018D119481C3007F013FF041E07D11748DE
:100A200008F054FA164808F051FA002021E0154861
:100A300008F04CFA144808F049FA21001348043031
:100A400008F08EFA201D102229000BF040FB002E2A
:100A500007D020001430310009F0E8FD002323778F
:100A600001E0012323772A0029000020FFF76EFD13
:100A7000200070BDDCCC000000F0FF1FF0CC0000B7
:100A800024CD000038CD000000D40000D4F1FF1FB9
:100A9000F8B51748043008F02BFA041E24D0154E80
:100AA000154D300008F012FA280008F00FFA271D43
:100AB000380003F04BF800280AD02223C35C002B37
:100AC00006D00E4808F002FA0B4808F0FFF90CE0D7
:100AD0000B4808F0FBF9084808F0F8F9200008F086
:100AE00055FA041EDDD100E000273800F8BDC046ED
:100AF000D4F1FF1F64CD000000D4000078CD0000C9
:100B000094CD000070B51148043008F0F1F9041ECE
:100B10001BD00E4B1D1D237F002B10D12000143045
:100B200009F08CFD00280AD0094808F0CFF9200010
:100B3000FFF71CFF280008F0DBF9040003E02000A9
:100B400008F024FA0400002CE5D170BDD4F1FF1F99
:100B5000B8CD00000B2805D11B4A116880230B4338
:100B6000136030E00E2806D1174A1368802109026D
:100B70000B43136027E00F2805D1144A11680223A4
:100B80000B4313601FE00300103B1F2B0DD8FF2207
:100B90001040103840090E4A9446604480001F22DD
:100BA00013401E3A9A4002600DE00A4B984203D16E
:100BB000C022094B1A6006E0084B984203D1C022BC
:100BC0009203054B1A60704724ED00E010E000E04E
:100BD000403800381617000000E100E0242500002E
:100BE00010B504008260C3600AF078FF2060616085
:100BF00010BDC04630B5026843688468C5681219E4
:100C00006B410260436030BD10B504000AF066FF1E
:100C10002060616010BDC04670B504000AF05EFF40
:100C20000122002325686668521BB34112184B410C
:100C300011001A000120E368934204D302D1A36893
:100C40008B4200D3002070BDF0B54F4680B486B013
:100C500002AA3A490B00083331CB31C21B6813603A
:100C6000CB790193364B1B78002B45D007F05EF80B
:100C7000041E25D03A2028233049C854304B1B7815
:100C80009C4216D02F490A88D21A121992B20A80B1
:100C90001100283929480E12067141711A002832B4
:100CA00010180A1B043A011DE31A0433C0180BF094
:100CB00017FA234B1C70234A13881C1B14801BE05B
:100CC0001E4B3A229A711E4C20781E490A88121A2D
:100CD00092B20A80110028390912197111002839BD
:100CE000597101002831CB182C3A191D1B1A181DF7
:100CF0000BF0F6F900232370134808F0F9F8041EEE
:100D000015D0104B99460E4D0C4F6668002E09D039
:100D10004B461B882C3B9BB22A78BA183832019973
:100D200002A8B047200008F031F9041EEDD10022DE
:100D3000044B1A8006B004BC9146F0BDCC110020D3
:100D4000F1F4FF1FB811002058F4FF1FF8B5404B15
:100D5000404A1279DA711B7EFF2B0ED13C4803000A
:100D600018330200083232CA32C312681A60010016
:100D70001831083009F0BEF915E0374A344B111D1F
:100D80001800083070C870C104680C601900083180
:100D900018001830E0C8E0C1006808601833043259
:100DA00023CA23C31C602D4B1B78002B41D006F0B7
:100DB000BDFF041E21D03A2028232549C854274BC3
:100DC0001B789C4216D0264A1188C91A091989B283
:100DD00011800A00283A1E48151205714271190047
:100DE00028310818121B043A011DE31A0433C018F5
:100DF0000BF076F9194B1C701BE0154B3A229A71D7
:100E0000164C207816490A88121A92B20A801100EC
:100E10002839091219711100283959710100283136
:100E2000CB182C3A191D1B1A181D0BF059F9002369
:100E300023700A4B1C782834054BE4188123237057
:100E400000236370638000F0DBFDC0436080F8BD69
:100E5000CC110020B020002058F4FF1FF1F4FF1F38
:100E6000B811002070B504000D001048143008F0CF
:100E70003FF8002817D00379A34204D143799D425B
:100E800006D0FF2B04D008F081F80028F3D10AE047
:100E90000123002808D08368002B02D09847002344
:100EA00002E0012300E00123180070BD58F4FF1F89
:100EB00010B501000248143008F042F810BDC046D9
:100EC00058F4FF1FF0B5474680B482B00600009189
:100ED00001925F4B1B78002B08D028335D4AD35C0E
:100EE0003A2B10D100225C4B1A80ACE0594B9B7915
:100EF0003A2B08D1123B574AD35C7F2B03D80022F0
:100F0000554B1A809FE006F011FF0700504B1870F8
:100F1000524B04334F4A183232CA32C312681A6035
:100F20004D4B1B8830339BB2A022D200934202D893
:100F3000494A138003E0A022D200474B1A80464B57
:100F40001A88121A303A434D03002C335B190430CF
:100F5000181829000BF0C4F860232B7000236B7065
:100F60006B80002F04D03A2128333A4AD15402E052
:100F70003A22384B9A71374B394A1279DA711B8908
:100F8000002B1FD1334B5B89002B1BD1314B9B892D
:100F9000002B17D12F4BDB89002B13D12D4B1B8A34
:100FA000002B0FD12B4B5B8A002B0BD1294B9B8A3B
:100FB000002B07D1274BDB8A002B03D10022264BC5
:100FC0001A8040E0234B1A001832083313CB13C2A7
:100FD0001B681360214B1B79FF2B0ED1042E08D107
:100FE000009B022B05D11D4904311E4809F082F8EF
:100FF00008E00022184B1A8025E0184904311948EE
:1010000009F078F8124D2B7898462833114FDB19E8
:101010001E706A4612785A70019802F02BF9434606
:101020002C33F8500C4B1B881A00283A12123A71D4
:10103000283B7B712B782833DF1900237B8000F05D
:10104000DFFCC043788002B004BC9046F0BDC046CF
:10105000F1F4FF1FCC110020B811002058F4FF1F3D
:10106000B0200020D4110020F8B54F464646C0B449
:10107000894690461D00194C602323700026667037
:101080006680263BA371164B1B79E3712B1D1B1247
:1010900023712B1D637127001837102201003800BF
:1010A0000BF015F820000830390009F023F80D4B3B
:1010B0001B7828331C194B462370434663706680A7
:1010C00000F09EFCC04360802C35074B1D8000F073
:1010D0006DF90CBC90469946F8BDC046CC11002075
:1010E000B0200020F1F4FF1FB811002010B5044C0F
:1010F0002000FFF7DDFE20000C30FFF7D9FE10BD09
:1011000034F0FF1F00B583B002F0BCFB0023009356
:101110001F33C0220F49104802F044FA002800D0C3
:10112000FEE7002300930233A022D2000B490C48B3
:1011300002F038FA002800D0FEE70021E12040024A
:1011400009F038F902F06AFC002800D0FEE703B08D
:1011500000BDC046E8CD0000ED7D0000F4CD0000EC
:10116000D93C00000D4B98420DD00D4B98420CD04D
:101170000C4B98420BD00C4B98420AD00B4B984228
:1011800009D0002008E00A4806E00A4804E00A48BE
:1011900002E00A4800E00A487047C04600F00F40ED
:1011A00040F00F4080F00F40C0F00F4000F10F40C2
:1011B0000090044000A0044000B0044000C004407F
:1011C00000D00440F8B54F464646C0B4124B1A68EA
:1011D00090461A6841460A431A60104C2500403573
:1011E000F02636060F043F0C2268130C1B04B34292
:1011F0000AD13A4208D063689946002B04D00023F4
:10120000002241460020C8470834AC42ECD10CBC57
:1012100090469946F8BDC046A090044070F4FF1F68
:1012200010B5436901248C40A343436143698A405C
:101230001A43426110BDC046F0B583B006000D00F0
:101240000192002401273B00A3401D4204D0019AD3
:1012500021003000FFF7E4FF0134202CF3D103B06C
:10126000F0BDC04670B50C001500FFF77BFF0023F2
:101270000121084E2200DA40114205D002683240B6
:10128000026002682A43026001330430202BF1D14E
:1012900070BDC046FFFF00FF70B50C00FFF762FF96
:1012A00000230121064D2200DA40114202D00268DB
:1012B0002A40026001330430202BF4D170BDC046B7
:1012C000FFFF00FF416070478160704770B50C0000
:1012D0001500FFF747FF0023012140262200DA40D6
:1012E000114205D00268B243026002682A430260DC
:1012F00001330430202BF1D170BDC0460204120F1F
:10130000920003051B0E9B00074952589B18196851
:10131000064A0A401A601A680002F02109010840D2
:10132000104318607047C046FCCD0000FFF8FFFF77
:1013300010B5044803F0ACF8002802D0014803F0CF
:101340009FF810BDB0F4FF1F10B5044B9B69002B34
:1013500001D0984700E0002010BDC046B0F4FF1F48
:10136000014B98617047C046B0F4FF1F10B51400E0
:1013700000F0C2FB002803D0024B1B688361C461EC
:1013800010BDC046980D002010B50022022104486F
:1013900007F0CAFB0022034B1A80034B1A7010BDE2
:1013A0004CF0FF1FB8110020F1F4FF1F70B54C4B3B
:1013B0001B88002B00D192E0A022D200934203D9D7
:1013C0000022474B1A808AE0464B1B8B002B1FD113
:1013D000444B5B8B002B1BD1424B9B8B002B17D1BB
:1013E000404BDB8B002B13D13E4B1B8C002B0FD1C2
:1013F0003C4B5B8C002B0BD13A4B9B8C002B07D1C9
:10140000384BDB8C002B03D10022354B1A8066E071
:10141000344B1B7EFF2B5AD0334808F0F9FC0028D0
:1014200022D13148FFF7FCF8051E0DD12F4807F0F7
:101430004DFDFFF72DFB041E17D12D4807F046FD8B
:101440000022274B1A804AE0FFF7CAF8041E0CD18D
:10145000EB69002B04D01A6A8C23D05C05F03EFCAB
:101460002800FFF737F93AE01F4C200006F0FCFB9C
:10147000002803D000221A4B1A8030E0200002F02E
:1014800065FB041E2BD002F057FBFFF75DFF250024
:101490002835280002F044FC002814D0280002F06F
:1014A0003FFC0F4E3080280002F032FC01003288F1
:1014B0000C480AF00CFE280002F016FC200002F096
:1014C0003BFBFFF741FF0022054B1A8007E000209D
:1014D000FFF73AFF0022024B1A80064B1A7070BDCC
:1014E000B8110020CC110020E411002010CE000023
:1014F00048CE0000F1F4FF1FF8B54F464646C0B491
:10150000040015000388002B03D0764A93421DD0B7
:10151000E0E0754D0023AB83AB84AB8503223A3307
:10152000EA54724B1B686B6307F076FA704B1870C5
:10153000FA2252000023280002F092FF00F072FA13
:1015400008F040F8674B23800120C6E0022900D153
:10155000A5E006D8002900D189E0012900D193E057
:10156000F0E7872902D0882935D0EBE75E4E0022CC
:101570003B23F2541C36002399465B4B98463B278D
:1015800073689D4206D1308800F02AFB4B463380B9
:101590004B46736008364346DB5D0133DBB242469F
:1015A000D355022BECD9534B0021534A986A8542FC
:1015B00003D1996218002530017030339342F5D37E
:1015C0004E4B00214E4A9869854200D11982203342
:1015D0009342F8D3B6E7444B9D422DD1180002F058
:1015E00057FF0028AED000213B233F4AD1540023AF
:1015F000404E444D5A00D3181B01F31825331B7875
:10160000002B10D0384802F03BFF3B23364AD35C16
:101610005A00D3181B01374A9B182B60022000F098
:101620003FFBFFF7C3FE30493B228B5C0133DBB24B
:101630008B54072BDED985E7334B9D4208D1180028
:1016400002F026FF002803D000F0F4FAFFF7AEFE08
:101650002E4B9D4200D075E7180002F019FF0028BC
:1016600000D16FE708F0E2FCFFF7A0FE6AE7002D6B
:1016700000D167E7234B1D60032000F011FBFFF74B
:1016800095FEFFF755FE5DE7002D00D15AE7204B90
:101690001D60052000F004FBFFF788FE52E71D4B9C
:1016A0001B88002B00D14DE71B4B9B79062B06D1E5
:1016B0002F33194AD35C9B0701D5FFF739FE012070
:1016C00000F0EEFA134B1B88002B00D13AE7FFF72E
:1016D0006DFE37E70023038003200CBC904699463B
:1016E000F8BDC0463A030000B0F4FF1F980D00207B
:1016F000B0110020E0130020601500208C150020A0
:10170000CC160020DC130020701500207022002071
:10171000D4130020B8110020CC110020F8B51E4BC6
:101720001B68002B02D01D00283502E01B4A1568FB
:1017300018351B4A1278520625D51A4A00203C213A
:1017400050541F8A3B3900241C32012600E0190046
:101750001388BB420BD15368002B08D0002802D05D
:101760003C2210498C542B6000236B6009E0083246
:101770004B1CDBB20C003000042BE8D13833094A93
:10178000D154FFF7D5FD2868002804D06A68064BBD
:10179000197807F0C9F9F8BDDC130020D413002034
:1017A000CC130020B0F4FF1FB011002030B5013A77
:1017B0008A18914214D20C0023781B026578EB182A
:1017C0009BB2181880B2834201D9013080B2023432
:1017D000A242F1D8CB439B185B0801335B00C918C8
:1017E0008A4207D113781B02181880B2834201D9AC
:1017F000013080B230BDC046F8B502223B4B1A70B2
:101800001D003B4E340061E0CB18E15C01290CD097
:10181000002902D0632917D031E0364807F056FB83
:10182000324A13780133137050E0334807F04EFB0F
:101830002E490F784A782832D2192D481218537839
:10184000FB1802330B7041E02C4807F03FFB274B9D
:10185000187806F02BF8002804D0294807F036FB4A
:10186000012042E021490C784A7828321219204898
:1018700012185378E31802330B70002035E021482A
:1018800007F024FB194B58781A7801002831891881
:10189000174BC9180B783F27BB43DFB2802F08D006
:1018A000C02F02D0402B0CD11CE0114B1B7EFF2B14
:1018B0001AD08218283202210420FFF703FB0220ED
:1018C00013E04B78D2180232084B1A7029786A78E4
:1018D000130028339A195278D2000832914293DBD0
:1018E000002002E0012000E00120F8BDF0F4FF1F1D
:1018F000CC11002010D0000028D0000040D0000003
:1019000058D000007CD00000F0B583B00500154F22
:101910007A78154C23791B029B1A6179CB189BB2FC
:1019200069468E1DCB80C98889B228320F4807F0DE
:10193000CDFA30884519A8B2210008312022FFF7DE
:1019400035FF328892B2797828310919FFF72EFFD6
:10195000002804D00302000A184380B200E00448C3
:1019600003B0F0BDF0F4FF1FCC11002084D00000C4
:10197000FFFF000070B5C5786D18EDB2144CE5702E
:101980000E0A83789B19DBB2A370427862700078EC
:1019900020709CB2A64207D90132D2B20C4C6270C0
:1019A000002A01D101302070C9B2A9420EDD0133F5
:1019B000DBB2074A9370002B08D153780133DBB2B6
:1019C0005370002B02D113780133137070BDC046E1
:1019D000C011002010B50100074C20681430FFF73B
:1019E000C9FF2368054A117819755178597591789E
:1019F0009975D278DA7510BDDC130020C011002073
:101A000010B53A20FFF780FF10BDC04610B5062084
:101A1000FFF77AFF10BDC04610B51120FFF774FF25
:101A200010BDC04610B508F0CDFBFFF75FFB03F01B
:101A3000A5FA0F4B00221A805A809A800D4B19008C
:101A40008131FF311A7030339942FBD18022D200AC
:101A5000094B9A80094B19004131FF3100221A804D
:101A600020339942FBD10A22034B9A7010BDC04625
:101A70006415002005140020F0F4FF1F9C150020C1
:101A800070B5184B597800292AD0174C228817486E
:101A900007F01CFA2488134B5E78330028339C42ED
:101AA00008DA134807F012FA00230E4A53700E4A60
:101AB000138015E02200283A921B0E4D7119280060
:101AC0000AF00EFBA41BA4B2074B1C80283D230088
:101AD000283B1B122B71283C6C710022014B5A7061
:101AE00070BDC046F0F4FF1FB8110020C8D0000040
:101AF00008D10000F4110020F0B583B001908C46AD
:101B0000324B9F88324B1C8A324D7B1C9FB2AF42B6
:101B100001D980277F013B023A0A1E001643B6B264
:101B2000B4424DD1F1E71188B142EED00133DBB2BE
:101B300020320B2BF7D1254B9F8000229A70002C6E
:101B400036D108E025000288002A0FD1002F03D0EB
:101B50001E4A937000E000256B011D4FDF193E8285
:101B600063467B82019B002B13D10AE00133DBB279
:101B7000013420300F000A2CE4D1144A9370002065
:101B800022E06801124BC018102200210AF0BDFAB1
:101B900006E06B010E48C018102201990AF097FA6E
:101BA0006D010B4B5D190C4B1B792B7538000BE04D
:101BB0000122064B9A700124002701230121C1E76D
:101BC000064802000223AEE703B0F0BDF0F4FF1FA9
:101BD0008C150020FF7C0000B0200020BC150020E8
:101BE0000022124B9A70124B1B8883420CD101E0E9
:101BF000012300E000235B0000210D4A995213E00D
:101C000003220A4B9A700FE00122084B9A70084B8E
:101C10005B888342ECD0064B9B888342F0D1013233
:101C2000024B9A700223E6E77047C046F0F4FF1FAC
:101C30006415002010B50022124B1A70124802F0F1
:101C400041FC124B1B7B9B071AD5114807F03EF94C
:101C50000022104B1A800D4B5A700F4910330A00A6
:101C600013CB13C213CB13C213CB13C21B68136065
:101C7000002201210320FFF725F9084B00221A70EA
:101C800010BDC0466015002070150020F0F4FF1F45
:101C900038D10000B8110020CC110020CC13002056
:101CA000F8B54F464646C0B4CB4B1C68042801D15A
:101CB00000F03CFDC94BCA4A1360CA4A13600328AE
:101CC0001BD12523E35C0F221340032B0BD1A38BE5
:101CD000002B01D001F079FA073AC34B1A70FFF7D5
:101CE0001DFD01F016F9022B01D001F06EFA002162
:101CF0003333BE4AD15400F004FF022800D086E0FE
:101D00000023BB4A1380BB4A1380BB4AD37A0133FA
:101D1000DBB2D372002B0ED1937A0133DBB2937214
:101D2000002B08D1537A0133DBB25372002B02D15E
:101D3000137A013313722523E35C022219009143C5
:101D40000A1E052A0DD12132A35C0133DBB2A35454
:101D5000782B01D001F039FA0022533BE25401F014
:101D600034FA002B01D101F030FAA28B002A41D0C5
:101D70002621625C501E6054002A01D001F025FA31
:101D80002732A25C082A04D0591E01290FD8052A3F
:101D90000DD100222523E2548032934B1A70FFF7B5
:101DA000BDFC14213523914AD15401F07CF9302136
:101DB000042A02D82D399140C9B22620215401327B
:101DC000272162540F221340DAB2082A01D901F008
:101DD000FCF99B00894AD3589F4600213523834A4A
:101DE000D15400F08EFE04227F4B1A70FFF796FC50
:101DF00001F0C9F80F221340032B01D001F0E5F9DF
:101E0000073A794B1A70FFF789FC01F082F8052830
:101E100019D17B4B1B681B8A002B01D101F0D5F92E
:101E200000236D4A1360774A6D490A606D490A6064
:101E3000704A13806E4A138008226B4B1A70FFF7AA
:101E40006DFC00F073FC694B1B780F229343602BF1
:101E500001D001F0BAF9654B19795A790B029B1838
:101E600063480088834201DD01F0AFF9090228329E
:101E70008A185F4B1A80644807F028F8634807F017
:101E800025F8634807F022F8584B1B7AFF2B04D142
:101E9000604807F01BF801F098F95F4B5F4A136048
:101EA000002255494A705E490A741B78002B22D1E2
:101EB00001320A74FFF7A0FC012812D0002802D0DA
:101EC000022813D017E04C494B7818002830474AB5
:101ED0008218524802605278D2000833D3184B70EF
:101EE00009E0504806F0F2FF01F06FF94E4806F0A5
:101EF000EDFF01F05CF94D4807F0AAFF002804D17E
:101F00004A4808F055F8002805D0444E3A4D183597
:101F1000394C28340BE1354B1B7EFF2B00D1A9E057
:101F2000324A118B424A914200D1A3E02F4A1189D3
:101F30003F4A914200D1A2E000291CD12B4B5B8982
:101F4000002B18D1294B9B89002B14D1274BDB89FF
:101F5000002B10D1254B1B8A002B0CD1234B5B8A05
:101F6000002B08D1214B9B8A002B04D11F4BDB8A0D
:101F7000002B00D1D6E01D4B1B8B002B1ED11B4B21
:101F80005B8B002B1AD1194B9B8B002B16D1174B57
:101F9000DB8B002B12D1154B1B8C002B0ED1134B5E
:101FA0005B8C002B0AD1114B9B8C002B06D10F4B65
:101FB000DA8C80235B009A4200D1B3E00C4B1A8884
:101FC000A023DB009A4235D91A0000210220FEF737
:101FD00079FF01F0ECF8C046DC1300200812002065
:101FE000D8130020BC110020CC130020CC110020FD
:101FF000B811002088150020F0F4FF1F90CE0000DB
:10200000D4130020FC11002054D1000070D1000036
:1020100000D4000078D10000D2110020D01300209D
:10202000F0F6FF1F98D10000CCD10000E411002091
:10203000FE800000C64BDB79012B06D80022110080
:102040000320FEF73FFF01F0B2F805F0F1FC002895
:1020500004D0C04806F03AFF01F0B7F8BC4AD37983
:10206000013BD371BC4806F031FFBC4806F02EFF9F
:1020700001F09DF8B64A1189B94A914252D1B44A49
:102080001289002A1BD1B24A5289002A17D1B04ABC
:102090009289002A13D1AE4AD289002A0FD1AC4AC4
:1020A000128A002A0BD1AA4A528A002A07D1A84ACA
:1020B000928A002A03D1A64AD28A002A32D0A44AA0
:1020C000128B002A1DD1A24A528B002A19D1A04A94
:1020D000928B002A15D19E4AD28B002A11D19C4A9C
:1020E000128C002A0DD19A4A528C002A09D1984AA2
:1020F000928C002A05D1964AD18C802252009142BE
:1021000010D0FF2B0ED0974807F082FE002809D18F
:10211000954806F0DBFE002202210120FEF7D2FEE8
:1021200001F045F8914806F0D1FE01F04EF8336811
:102130001A783C2A00D91BE293008D4AD3589F4657
:102140008C4806F0C3FE8C4B1A7CD30700D50FE2F7
:1021500001231343884A1374FFF74EFB012801D172
:1021600001F033F8002804D0022801D101F01FF853
:10217000DDE782494B7818002830754A821880487C
:1021800002605278D2000833D3184B70CFE77D48F5
:1021900006F09CFE784B1B7C9A0707D55A0600D5A3
:1021A000E6E140221343744A137403E0022213430E
:1021B000714A1374FFF720FB012801D101F005F8E3
:1021C000002804D0022801D100F0F1FFAFE76B49ED
:1021D0004B78180028305E4A8218694802605278AD
:1021E000D2000833D3184B70A1E7634B1A7C530716
:1021F00000D5BDE1042313435F4A1374624806F01F
:1022000065FE5E4B5B781A00180028305049411873
:10221000C878002806D02A3200210420FEF752FE9A
:1022200000F0C5FF564A11604A78D2000833D3182F
:10223000524A53707BE7554806F048FE544B1B78D2
:10224000002B1FD1534806F041FE4C4F3800103090
:102250007A7828323E4B9846190009F038FF4E4AEA
:1022600000234E4802F0FCF80122494B1A7000216D
:10227000397341487B784344DB6A43611830073245
:1022800009F043FF10224649280009F011FF0028F9
:1022900000D050E110223349200009F009FF002846
:1022A00000D048E1354B59780B002833284A9A185A
:1022B000314B5B695068984200D03CE1394B1B8838
:1022C000303B5B1A9BB2994653881F021B0A1F437F
:1022D00007239F43BFB24946334806F0F7FD390054
:1022E000324806F0F3FD002F1FD1244B1A7B022148
:1022F0000A431A73224A11685A78283214488046D1
:10230000825C0A70180010305A782832414609F071
:10231000DEFE274806F0DAFD264806F0D7FD4346E4
:102320009979254806F0D2FD03E080239B009F4267
:1023300005D8B846C84480239B0098453EDD00225E
:10234000134B1A70154802F0BDF800F03EFFC0466E
:10235000CC11002008D2000024D2000000D40000DC
:10236000FE800000E41100203CD2000074D2000086
:10237000B4CE0000B0D20000F0F6FF1FF0F4FF1F53
:10238000D0130020C8D20000E4D2000000D3000027
:102390006015002018D3000060EA000070150020CE
:1023A000D4110020B811002030D3000038D3000031
:1023B00044D300004CD3000054D30000B74B5B78EB
:1023C000B74AD3185B8DDB050DD4B44A137B0121CA
:1023D0000B4313734B46D91989B2B24B1984B248D7
:1023E00006F074FD15E04B465B0712D00422002175
:1023F0001000FEF767FDA94A137B04210B431373FA
:102400000022AA4B1A70AA4802F05CF8A94B1B885C
:1024100096E0A24B597810332831C8191818A04BF0
:10242000C91808314A4609F052FEBB0942469211CA
:10243000934210D19B4AD3189F484246D11007229D
:102440001140415CFF083A40825C8A4311001A7EC9
:102450000A431A761DE09349C918BF067F0F9648B4
:10246000C75D087E384308760133FF2104E08D48BC
:10247000C018017601339BB29A42F8DC894B9A1856
:1024800043469B065B0F8C49CB5CD943137E0B43C1
:102490001376824B1B7BDB0701D400F096FE814B49
:1024A0001B8C9A0900217F48183006E04F1C415CC4
:1024B000FF2901D000F089FE39008FB2BA42F5D869
:1024C00078498A189B065B0F7B49CB5CDB43127E05
:1024D000DBB29A4201D000F078FE0022734B1A70F2
:1024E000734801F0EFFF6F4B98461F8C3B00283379
:1024F0006A494F78FF18BFB243461F84684B99461C
:1025000010313A00180009F0E2FD3A00283A1212A0
:102510004B461A713B00283BDBB249464B71120215
:10252000FF2109020A401A433900644806F0CEFC34
:1025300043461B8C04E0624806F0C8FC00F045FEF0
:102540005C4A1380002B01D100F03FFE534B1B7BF4
:102550005B0701D500F02BFE5A4806F0B7FC0023BC
:102560004E4A53704F4A1374574A584B1A60DEE56F
:10257000564B1B684A4A9A1A01210420FEF7A2FC16
:1025800000F015FE454B5B782833454AD25C494B39
:1025900019884F4806F09AFCFFF732FA4D4B9842E3
:1025A00004D04D4806F092FC00F00FFE3B4B5B78E8
:1025B00028331A003A4BD31859781878FEF752FC92
:1025C000012809D1354B5B782833354AD15C434823
:1025D00006F07CFC00F0F9FD364B1B88002B01D186
:1025E00000F0F3FD00F0E3FDFFF74AFA3C4806F087
:1025F0006DFC304A1388303B13803A4B3A4A1360E3
:10260000303BDB8D002B01D100F0F0FDFFF704FA29
:10261000304B98420AD0224BDC8DFFF7FDF90200C7
:102620002100324806F052FC00F0CFFD1C4B5F8DBC
:10263000002F04D12E4806F049FC00F0C6FD2D4ABB
:102640002D4B1A60164B1B8D98462A4C2A4E2B4D4B
:10265000238A002B19D0BB4217D1638A002B01D0EB
:10266000434512D12368002B08D16368002B05D1A4
:10267000A368002B02D1E368002B45D01022210073
:102680001F4809F015FD00283ED020343460AC42CC
:10269000DED31C4806F01AFC00F097FDF0F4FF1F93
:1026A000CC110020F0F6FF1F60D300006015002061
:1026B00070150020B811002008D000007CD3000065
:1026C00098D30000C0D30000D2110020D013002006
:1026D000E0D30000FFFF000004D400001CD4000081
:1026E00044D40000FC110020D81300205CD400006A
:1026F00080D400008C150020D4130020CC160020BC
:10270000D411002094D40000D84806F0DFFB002349
:10271000D74A13600221D74A1170D74AD7490A60B5
:10272000D7490A60D74A1380FEF7F8FFD64806F06B
:10273000CDFBD44B1B88002B01D100F046FD1A00C5
:10274000303292B2D1490A80D14C11002839091295
:102750002171283A6271CF4A1268117DE17111210D
:10276000A17108339BB219021B0A0B43A3850023F6
:10277000E385138A2385538A63852300183323CA8C
:1027800023C312681A60210018312000083007F0B6
:10279000B1FC3C34B94B1C60FFF73EF9C04380B23A
:1027A000002802D0BA4BD88503E001225242B84B30
:1027B000DA8505F00BFB00F0F4FCFFF761F9B64891
:1027C00006F084FBFFF722F9B44B98420AD0B04BD5
:1027D0001C8FFFF71BF902002100B14806F076FBC1
:1027E00000F0F3FCAA4B5F8D002F02D01E8D002E4F
:1027F00004D1AC4806F06AFB00F0E7FCAA4CAB4DF4
:10280000230025331B78002B0DD0238ABB420AD12D
:10281000638AB34207D110222100A54809F048FC81
:10282000002800D186E13034AC42E9D13523984A02
:10283000D25C0A331340022B0ED19E4B5F840022E0
:102840009D4B9A709D4B1B88BB4201D000F0DAFC77
:1028500059E00322984B9A70994806F037FB3523CC
:102860008B4AD35C5B0701D500F0AFFC1300142149
:10287000352299542831854A1180143134229954D3
:10288000053A995C88463325585D98542E241A5D84
:1028900032201E5C1E551A542D26985D03341F5D90
:1028A0009F5518552C27DC5D834EB4703026995DFA
:1028B000D9559C5541460131C9B2595500290ED10F
:1028C0000132D2B232237249CA54002A07D1431CC2
:1028D000DBB231328B54002B01D1631C8B556C4B16
:1028E0001A8D74494A84598D19855A851A001832EF
:1028F000083313CB13C21B68136072496C4807F08E
:10290000F9FB00F036FC704806F0E0FA00246A4B50
:102910009C70260023006448302526271A002900D1
:102920005943411825310978002908D1002E01D0DA
:1029300061498B70302462435B4C141919E00729FC
:1029400010D1002C09D029005943574EB446614498
:1029500026310E78E15D8E4204D96A431400524A52
:10296000944664440133DBB20126072BD6D9524A80
:102970009370002C01D100F028FC3D4B1C60032318
:102980002622A354023AA3540023023AA35404215A
:102990000132A1540432A3543D4D6B8D23822B8D03
:1029A00063822B000833220043CB43C21B681360B1
:1029B00001202523E054404B1A7A22765A7A627617
:1029C0009A7AA276DB7AE376A0832F23EB5CE37519
:1029D0002E23EB5CA3752D23EB5C63752C23EB5C42
:1029E0002375FEF7F7FF3423EA5C253B110099437A
:1029F000502900DC81E000232F498B701209053A31
:102A000095001E00012071E02149C9183C31097868
:102A1000002904D1002E70D0274A93706DE001295F
:102A200002D10133DBB260E0022951D11849891883
:102A30003D31097804294BD1002E01D01E498B70FD
:102A4000134B9A1813003E331B781B023F32127847
:102A50001343184A53841A1CE22149008B4201D9BE
:102A60001A4B1A88E283228447E0C046B8D400009B
:102A7000DC130020CC130020FC110020D813002010
:102A8000BC11002088150020C8D40000B811002017
:102A9000CC110020D4130020D8D40000FFFF000088
:102AA000F0D4000014D50000E013002060150020D1
:102AB000D4110020F0F6FF1FF0F4FF1F6415002072
:102AC00024D50000E411002030D500008ECE000097
:102AD000C94989183D310978002904D1002E0CD04C
:102AE000C64A937009E0CB18DBB206001A1EAA4250
:102AF0008ADB002E01D0C14A937010213523BE4AD3
:102B0000D154BD4B3521585C022202435A543C2219
:102B100033399954023101329954033901329954AD
:102B2000C331013299548439B54A1180203134229D
:102B30009954BFE2B34806F0C9F9B34B1C600022B8
:102B4000B24B1A703523AC4AD05C0425054008D03E
:102B50000022103BE2542032AC4B1A70FEF7DEFD2F
:102B600033E33423A44AD15C09098900A34B99704B
:102B7000A34A1388283B591A89B211802523E25CA5
:102B8000163B1340022B04D13F260640122E06D1DD
:102B90001CE0012B03D13F260640022E16D000294F
:102BA00001D1810712D094498E8DA18A8E4204D121
:102BB0009149CE8DE18A8E4208D0820700D46EE220
:102BC000012B9AD0022B00D069E29AE7C10600D40B
:102BD0002CE3A18B002900D128E320001830FEF758
:102BE000C9FE3023844AD05C894B1B7883424FD185
:102BF0003123D15C864B5B788B4249D13223D25C46
:102C0000834B9B78934243D133237B4EF35C804EBE
:102C1000F6789E423CD120766176A276E376272331
:102C2000E35C002B1DD12226A15D2433E35C262228
:102C3000A25C9B1ACA089B1ADBB2DAB2C918C8B2E6
:102C4000A05551B2002901DA5B42DAB22326A15D18
:102C50008B08CB1A9B18DBB2A355C2089B18242201
:102C6000A3540122694B1A702423E25C0233E2541C
:102C70000023A3832533E25C163B1340013BD9B20A
:102C8000072900D9A1E2DBB29B006249CB589F46DD
:102C90002523E25C163B1340013BD9B2072900D93A
:102CA00093E2DBB29B005C49CB589F46574B1B78A5
:102CB000DB0716D503222523E2543D32534B1A700D
:102CC0000023A3834E4B1888002804D002324F4BB8
:102CD0001A70FEF77FFE0022504B1A80FEF71EFD91
:102CE00017E13523444AD25C0A331340022B00D04B
:102CF0006BE202E7454B1B78DB0700D494E03523F9
:102D00003D4AD25C0A331340122B00D08CE02233B0
:102D1000394AD35C0F221900914350294DDD002020
:102D2000364A90701B09053B9E0001213EE0324A65
:102D300052193C321278002A04D100283DD02F4B82
:102D40009D703AE0012A02D10135EDB22DE0022A50
:102D50001ED1294AD2183D321278042A18D10028EF
:102D600001D0264A9570244AD3181A003E321278B0
:102D700012023F331B781343294A53841A1CE22161
:102D800049008B4201D9274B1A88E283228414E040
:102D9000194AD2183D321278002A04D100280CD0EA
:102DA000164B9D7009E05519EDB208002B1EB34279
:102DB000BDDB002801D0114B9D7003222523E25476
:102DC0000D4B29329A5C22752D229A5C62752E2257
:102DD0009A5CA2752F229B5CE3750120FEF7FAFD39
:102DE00042220A4B1A700023A383054A13800B4A20
:102DF0001380FEF793FC8CE0CC110020F0F4FF1F51
:102E0000B811002044D50000DC130020CC130020B2
:102E1000C0110020A8CF0000C8CF000088150020F6
:102E2000F0F6FF1F8ECE00002022C24B1A70FEF774
:102E300075FCC14B1A6800212523D1540CE53523BC
:102E4000BE49CB5CD90725D5D10623D4A38B002B53
:102E500000D0BAE1BA4D2888013080B2FEF7BAFD41
:102E6000B4490B7810221A430A702A88002A02D02B
:102E7000122213430B70FEF751FC0123A383082297
:102E80002433E25400220233E25411213523AB4AA9
:102E9000D15408E19B0611D5A8483A23C35C190216
:102EA0003B23C35CA74D180008432E68B44660441A
:102EB0002860A3480B430188CB1A0380A04B1888D5
:102EC000002808D0D30606D49A4A137802210B436F
:102ED0001370FEF77FFD994A3623D35C1B0237211E
:102EE000525CD3189BB2984A5384228C934201D8E7
:102EF000002B01D1944B5A84934B5B8CE3838D4B15
:102F00001B789B0700D160E10022904B1A80FEF7EE
:102F100005FC884B1B789A0609D500228B4B1A803A
:102F20002523E25414211033844AD154BBE0DA063D
:102F30000FD50022854B1A800123A383043224334A
:102F4000E25402330022E25411210E337B4AD15461
:102F5000A9E07E4A1288002A12D0DB0702D500239E
:102F6000A38302E0A38B002B08D1E38B9A4201D903
:102F7000764A1380754B1B88A38301E0734A138044
:102F800000222723E254724B1A686E4B1A606F4B73
:102F90001B88002B0AD0A38B002B07D03C33684A38
:102FA000138018213523654AD1547FE0614B1B788B
:102FB0009B0700D409E13C22614B1A801021352384
:102FC0005E4AD15472E05B4B1B78DB0700D4FCE017
:102FD00000222523E2541032564B1A70FEF79EFB56
:102FE000F3E0574B1888002801D0FEF7F3FC352397
:102FF000524AD35CDB0717D54E4B1B78DB0707D54E
:1030000007222523E25400231F32A354A38302E0A6
:1030100006222523E2540120FEF7DCFC1022454B5A
:103020001A70FEF77BFB3AE0424B1B78DB0705D5B5
:1030300005222523E2540023A383C6E0404B1B88CE
:10304000002B2CD1C1E03E4B1888002800D1D3E0E2
:10305000FEF7C0FC3523394AD35CDB070ED50722C7
:103060002523E25400220133E2540120FEF7B2FC92
:103070001022304B1A70FEF751FB10E0304B1B88CA
:10308000002B0CD1A1E02B4B1B78DB0700D49CE07C
:1030900007222523E25400220133E25495E0102157
:1030A0003523264AD1543C22254B1A805021342303
:1030B000224AD154274805F009FF227D1F483023BA
:1030C000C254627D0133C254A27D0133C254E27DF9
:1030D0000133C254227E073BC254627E0133C25484
:1030E000A27E0133C254E27E0133C254238A038597
:1030F000638A438503001833220062CA62C31268E0
:103100001A6001001831083006F0F4FF124805F08B
:10311000DDFE124805F0DAFE114805F0D7FE252342
:10312000E35CDB061ED5054B002237215A540139DA
:103130005A541EE0CC130020DC130020CC110020D8
:10314000B8110020D8130020F0F6FF1F88150020CA
:10315000BC11002050D5000060D50000D8FC000054
:1031600000D40000384B012136229954C33101327A
:103170009954354C0623A371344B1B79E371344BBE
:103180001B881A00283A12122271283B637100230F
:103190003B22A354013AA3542387FEF737FCC043D4
:1031A0002087294B60221A7000225A705A80264BC1
:1031B0001A7912025B791A43254B1988254805F0C4
:1031C00085FE0022244B1A7039E00022204B1A8021
:1031D0000023224A00215170214A13741E4A1370A1
:1031E0002DE0204A204B1A60FFF72CFA164B5F8D1A
:1031F000002FF6D1FFF71EFA3523134AD35CDB0705
:10320000E3D52CE70122154B9A70184B5B88BB4223
:1032100001D1FFF778FB154B9B88BB4201D0FFF72C
:1032200018FB01320D4B9A70FFF76DFB013BD9B2D1
:103230000729CAD8DBB29B000D49CB589F460CBC6E
:1032400090469946F8BDC046CC110020B020002021
:10325000B811002078D50000CC130020F0F4FF1F37
:10326000F0F6FF1F8C150020D413002064150020F9
:10327000E8CF0000030C02020004000E104300041B
:103280001A021B1213439BB218437047012842D8FD
:1032900000281FD1204B21495A58802000010243A9
:1032A0005A501F495A588020C00302435A501D4BA0
:1032B000802292005A619A61DA611B4BDA785A795E
:1032C00000221A705A7020329A70DA7850221A70DE
:1032D000DB7820E001281ED10F4B10495A5880207E
:1032E000400102435A500E495A58802000040243BC
:1032F0005A500E4B802292005A619A61DA610C4B4F
:10330000DA785A7900221A705A7020329A70DA7874
:1033100050221A70DB7870470070044038100000AB
:103320003410000000B004400060074000C00440BA
:103330000070074030B5050041180A4A20240A48A9
:10334000D3782342FCD0D3782B785371D3785BB2F7
:10335000002BFBDAD3785379037001358D42EFD11E
:1033600030BDC0460060074014F7FF1F70B582B043
:103370000D00FF226B46DA710400074E01216B46F7
:10338000D81DFFF7D7FF33782370013D0134002D9E
:10339000F4D102B070BDC04614F7FF1F30BFFDE787
:1033A000014B18887047C04618F7FF1F074B1B8852
:1033B00001339BB2FA221202934202D0034A1380D5
:1033C00002E00022014B1A807047C04618F7FF1F29
:1033D00070B50500304B1B78DEB2304B9C78002C6A
:1033E00052D12D4B1B78002B50D0002850D004F028
:1033F00035FA2A4B1B885919294A91420BD9720078
:103400009219D20027498A18C021C9008C4663440A
:10341000ED18958106E072009219D20021498A18B0
:10342000ED18958173009B19DB001E4A9A181E4BFC
:103430001968002907D00A61130051611A490A600E
:1034400000221A610BE0184B1A60184B1A607300C7
:103450009B19DB00134AD31800221A615A610F4AE4
:1034600073009B19DB000F4EF3189B7B9B001049E8
:103470005B58516899435160802252050D4B1A6088
:1034800062B604F0EFF904E0042402E0082400E04E
:103490000924200070BDC0463517002018F7FF1F13
:1034A000FFF90000D41D0020C41E0020D01D002004
:1034B0009CD5000004ED00E0F8B5224B1C68002C00
:1034C0003DD0214D2F00A2892B889A4234D1A67B72
:1034D00004F0C4F9B6001D4BF3587A6813437B60BF
:1034E0001B4BA38104F0BEF9164B1B68A3420FD1FE
:1034F000184B1B68A34205D10023164A1360114ADA
:10350000136015E023690F4A136000225A610FE02F
:10351000104B1B68A34205D163690E4A1360002259
:103520001A6105E0236962695A61636922691A6157
:1035300080225205084B1A602469002CC3D108F080
:10354000E9FAF8BDD01D002018F7FF1F9CD5000038
:10355000E9FDFFFFC41E002004ED00E00B4B00223C
:1035600000211A800A4801700A4801709A609A8105
:10357000094B19002031FF321A7001338B42FBD105
:103580000023064A1360064A1360704718F7FF1FAE
:10359000351700201017002014170020C41E00202B
:1035A000D01D0020F0B55F4656464D464446F0B467
:1035B00083B00090019116001D00694B1B78002418
:1035C000002B02D004F04AF9040003239E433F2E4F
:1035D0000AD8634B1B780220002B00D1B8E02000F2
:1035E00004F040F90220B3E0B7085E4B9B89DB1979
:1035F000D022520093420AD9594B1B780120002B4C
:1036000000D1A5E0200004F02DF90120A0E0002D5C
:103610001BD01F2D0AD9524B1B780320002B00D141
:1036200096E0200004F01EF9032091E04E4B5B5D14
:10363000FF2B14D04A4B1B780420002B00D187E0CD
:10364000200004F00FF9042082E0454B1B7807208E
:10365000002B7DD0200004F005F9072078E0434AD4
:103660001378013313703F4B9968CB0769D5012359
:103670000120DAB2924602009A4011420AD1534622
:103680000133DBB29A460A43364B9A605346002B0D
:103690000DD102E00133082BEBD1314B1B780A200E
:1036A000002B55D0200004F0DDF80A2050E00C9BE0
:1036B000002B01D052461A6053465B009946534492
:1036C000DB002B4A019999502A4B9B465B68F31803
:1036D0004A465244D2002649884690441A00403A4D
:1036E00041464A608B608D731F4B52465A553100DC
:1036F000009804F059F81B4A9389FB1893815B46A4
:103700005B689B1959464B601B4B41468B810021DE
:10371000434619614B465344DB00154884466344D5
:103720005961AD00154BEB5851680B4353600C4B7E
:103730001878C0B200280BD0200004F093F80020C5
:1037400006E001230A001A4306498A609A46AEE75A
:1037500003B03CBC90469946A246AB46F0BDC0467D
:103760003517002018F7FF1F14170020101700202E
:10377000D41D00205CF0FF1FE8FDFFFF9CD500007A
:10378000F0B54F4680B482B001900C002D4B1B78F1
:103790000025002B02D004F061F8050003239C43B0
:1037A0003F2C09D8274B1B780220002B45D028003E
:1037B00004F058F8022040E0A708234B9B89DB194E
:1037C000D0225200934209D91E4B1B780120002BB6
:1037D00033D0280004F046F801202EE01B4B994618
:1037E0005B68E3181A4E19004039DC22B1500432EC
:1037F000B3500022E623F2540932164B1A7021000E
:10380000019803F0D1FF104B9A89BF189F814A4657
:103810005268944664444A4654600F49E422B152C7
:10382000E33A59680A435A60064B1878C0B2002838
:1038300003D0280004F016F8002002B004BC914622
:10384000F0BDC0463517002018F7FF1F5CF0FF1FC2
:10385000D41D002014170020E8FDFFFF064A0023B6
:103860001370137213741376044A13701373044A9B
:103870001370137313767047CC160020381700208E
:10388000EC16002010B5FFF7E9FFFFF767FE03F025
:10389000FFFE10BD424B984241D9424B98421DD980
:1038A000414B98420BD9414B984202D9C00F1E3070
:1038B00074E03F4B8342804140421C306EE03D4B00
:1038C000984205D93C4B8342804140421A3065E022
:1038D0003A4B83428041404218305FE0384B984277
:1038E0000ED9384B984205D9374B8342804140422C
:1038F000163053E0354B83428041404214304DE056
:10390000334B984205D9334B8342804140421230B9
:1039100044E0314B83428041404210303EE0FF287A
:1039200020D92E4B98420ED92D4B984205D92D4BBC
:103930008342804140420E3030E02B4B8342804135
:1039400040420C302AE0294B984205D9284B83424B
:10395000804140420A3021E0264B83428041404270
:1039600008301BE00F280DD93F2805D97F2383425B
:1039700080414042063011E01F2383428041404293
:1039800004300BE0032805D90723834280414042DD
:10399000023003E001238342804140427047C04629
:1039A000FFFF0000FFFFFF00FFFFFF0FFFFFFF3FD4
:1039B000FFFFFF1FFFFFFF03FFFFFF07FFFFFF01E9
:1039C000FFFF0F00FFFF3F00FFFF7F00FFFF1F0013
:1039D000FFFF0300FFFF0700FFFF0100FF0F0000D4
:1039E000FF3F0000FF7F0000FF1F0000FF030000FB
:1039F000FF070000FF01000010B5054B5B68054A9A
:103A000010681840FFF746FF034B185C10BDC04616
:103A100018F7FF1F5CF0FF1F1417002010B5C0211E
:103A20000B48FFF7ADFE041E0FD1FFF7E5FF094B72
:103A300018701B785A00D318DB00074AD3185A684D
:103A4000064B1A6062B600DF00E00124200010BDC2
:103A50009D33000035170020D41D00207820002061
:103A600010B5041E0AD0283000F03EF9200005F001
:103A700083FD034B1868210000F0A2FB10BDC04677
:103A80006CF0FF1F10B5034B1868034900F06CFA87
:103A900010BDC0466CF0FF1F613A0000F0B583B066
:103AA00001900E0017001D001D4B186800F0BAFAB7
:103AB000041E27D01022019908F009FB2123E754A6
:103AC0000133E5542000283000F00AF920001030BE
:103AD000002106F0ABFD20001830002106F0A6FD05
:103AE00000222023E2540F4805F0F0F90E4805F0BB
:103AF000EDF929000D4805F0E9F9200005F03CFD3D
:103B000020000BE00A4805F0E1F93100094805F012
:103B1000DDF92900054805F0D9F9002003B0F0BD12
:103B20006CF0FF1F2CD600004CD6000058D60000C9
:103B300064D6000084D6000010B50100024B18685E
:103B400000F06EFB10BDC0466CF0FF1F70B50500A5
:103B50000F4B186800F048FA0400002D11D000281F
:103B600011D00B4E10222900200008F0A1FA0028E5
:103B70000BD02100306800F00BFA041EF2D10020B7
:103B800004E0002002E0002000E0200070BDC046FC
:103B90006CF0FF1F10B50100024B186800F0F8FA36
:103BA00010BDC0466CF0FF1F10B5FFF7F3FF10BD4E
:103BB00010B5FFF7CBFF002802D0FFF7BDFF00E0F4
:103BC000002010BD70B505000E00102001F0C2F9F4
:103BD0000400054906F046FC002804D13200290003
:103BE000200005F08FFC70BD20F4000070B51C4B68
:103BF000186800F0F9F9041E30D02223E35C012B91
:103C000025D125001035280006F018FD00281ED00B
:103C10002000FCF7D7FE002810D0124805F056F916
:103C2000114805F053F903222223E254052128000C
:103C300006F0FCFC00222023E25408E00B4805F0CB
:103C400045F9094805F042F902222223E254044BC7
:103C50001868210000F09CF9041ECED170BDC0464A
:103C60006CF0FF1F98D6000004D10000BCD6000005
:103C700010B507F02BFF022005F09CFD022006F096
:103C800011FC04F0D1FE00F061FD00210C4804F0AD
:103C900055FF05F05DFF04F00FFC00F0C7F8094880
:103CA00006F0F0FB084805F011F90849002005F07E
:103CB000E9F90749074805F009F904F0C1FEFCE7F6
:103CC000A0F0FF1F04F00000E8D60000C81E00208E
:103CD000FCD6000008D7000010B5FFF7C9FFC046AA
:103CE000002303607047C04610B504000068002838
:103CF0000BD082239B009C46604405F081FF216825
:103D0000024804F0BFFD0023236010BD88F0FF1FB0
:103D10000068002801D0043000E000207047C04651
:103D20000368002B03D081229200985A00E0002003
:103D30007047C04610B5324B32495A588020800037
:103D400002435A503049314A995031495A588020DB
:103D5000400202435A501A68C020000302431A600E
:103D600058582C4A02408020400402435A502A4BA3
:103D7000996C2A4A11409964D96C0A40DA64284B3C
:103D800024225A708021274A11709A221A70D978F9
:103D90007B3A0A40DA7021221A7100225A71190006
:103DA00010328B791342FCD11D490C228B791340C0
:103DB000082BFBD140221A4B5A711900343A8B79E7
:103DC0001340082BFBD1164940228B791342FCD0BB
:103DD0001A22134B1A7019000E3A8B7913400C2BD0
:103DE000FBD10F4A517914330B4353710E4A91782A
:103DF00001230B439370FDF785F9002010BDC046E9
:103E00000070044038100000000001104410000051
:103E100004100000FFFFFFFC00900440FFF8FFFECD
:103E2000004006400050064000D0074010B5064B49
:103E30001868002807D01C00002104F07FFE04341D
:103E400020680028F8D110BD80F0FF1F002806D0A0
:103E50004B1C06D043685943C068401802E000205C
:103E600000E000207047C046002806D0044B9B6845
:103E7000C01A8010034B584301E0012040427047B4
:103E800094F0FF1FABAAAAAA10B5031E07D0002901
:103E900008D0C268881A596807F0E8FE04E00120DB
:103EA000404201E00120404210BDC04670B505000F
:103EB0000C0011002000FFF7E7FF002C07D0431C87
:103EC00007D0285C236818410123184002E0002035
:103ED00000E0002070BDC04670B505000C001E005B
:103EE00011002000FFF7D0FF002C15D0431C15D087
:103EF000002E08D02818226801239340027813432B
:103F0000037001200BE02818236801229A400378EF
:103F100093430370012002E0002000E0002070BD08
:103F200070B5051E00D10E4D0E4804F0E1FF041ED1
:103F300013D0002D09D0211D280006F093FA002887
:103F400003D02000FFF790FF09E0200005F01EF8E5
:103F5000041EEED10120404201E00120404270BD2C
:103F600020F40000F4FCFF1F10B5084B5B68002232
:103F7000072B08D8054A5C1C5460036081609B00D5
:103F8000D31898600122100010BDC046F4FCFF1F3A
:103F9000F8B504000E00124F124D283531002000F4
:103FA000FFF772FF431C06D0430018188000BB685F
:103FB0009C46604400E0002004F0E8FFFFF754FF57
:103FC00001002000FFF742FF061E06D0020021007C
:103FD0002800FFF76BFF0028E0D03000F8BDC04696
:103FE00094F0FF1FF4FCFF1F70B506000C4C20007E
:103FF00004F07EFFFFF738FF01003000FFF726FFD7
:104000000500200028302A003100FFF74FFF00286C
:1040100004D129003000FFF7BBFF0500280070BD68
:10402000F4FCFF1FF0B557464E464546E0B484B059
:1040300004000D1E00D1534D2800FFF771FF07004B
:10404000431C6FD1504804F0FBFB061E00D081E0FA
:104050004E4804F04DFF071E76D000239A46019388
:104060004A4B994630263800FFF7FEFE4B461B1898
:104070009B5D002B16D1454B9C4660442823C35CB6
:10408000002B63D0002201200100194052185B1060
:10409000FAD1019B002B01D0524503DA002A07D048
:1040A00001979246380004F071FF071EDBD104E04F
:1040B000019702E0019700E001970020019B002B8F
:1040C00059D0324B1E000836282290469844434669
:1040D00002933768002F14D0BB689A46002B10D08B
:1040E0000198FFF7C1FE01003800FFF7AFFE0200A4
:1040F000039039000298FFF7D9FE012801D10398F7
:10410000D04704364645E4D1019E3000FFF7ACFEAF
:1041100003001E48C318002128229954310004F0DE
:10412000F5FE17E039002000FFF790FE05006268F9
:10413000002107F0EAFF01232A002100134828305C
:10414000FFF7CAFE280016E0002014E0019B002BB8
:104150000DD1AFE731000D4804F0F2FE3000FFF75B
:1041600083FE0700301D290006F076F9DAE7534692
:10417000002B97DDA0E704B01CBC90469946A246F0
:10418000F0BDC04620F4000094F0FF1FF4FCFF1FB8
:1041900070B505000800FFF7C3FE01002800FFF717
:1041A00055FE04000200290004482830FFF77EFE77
:1041B000002801D0200000E0002070BDF4FCFF1FAB
:1041C000F8B505000E00094C2000283000230A0035
:1041D0002900FFF781FE0700200030300023320065
:1041E0002900FFF779FE3800F8BDC046F4FCFF1F38
:1041F00010B50A000123010002483030FFF76CFEC1
:1042000010BDC046F4FCFF1F10B50A0000230100DA
:1042100002483030FFF760FE10BDC046F4FCFF1FBF
:1042200010B5FFF731FE431C0AD043001818800078
:10423000044B9B681B180020002B02D0181D00E0C7
:10424000002010BD94F0FF1F10B50A4800F098FE42
:10425000094A1169094B0B400421FF310B431361DB
:10426000A0221203F3390648FCF7FCFF2F20FCF7CD
:1042700071FC10BD1048000000C00440FCF8FFFEB7
:10428000C0F00F40014B18607047C04688FDFF1F0B
:10429000024B1A68024B1A607047C04688FDFF1F28
:1042A00000810440024B55221A6055321A60704753
:1042B00004810440F0B583B01D4B1B68002B05D171
:1042C000002000211A4B9860D9602FE007F006FC0F
:1042D00006000F0000960197154B1B681C685D686F
:1042E0009968DA686418554131003A00641A9541BA
:1042F0001E69002E13D032687368B068F168121816
:104300004B4100980199121A8B419D4202D803D16A
:10431000944201D914001D003669002EEBD100989B
:10432000019900196941024B9860D96003B0F0BD52
:1043300090FDFF1F10B5024804F01EFC10BDC046E2
:10434000A0F0FF1FF0B5474680B407000388002B9C
:1043500002D0592B07D053E000222C4B1A6059236E
:104360003B8001204FE087291ED1284B1B68002B82
:10437000F5D059698A4213D11B69002B03D1002261
:10438000224B1A60EBE759698A42F5D01F490B604E
:1043900006E04869824202D10969196100E00B0018
:1043A00019690029F5D1DAE78229D8D1174B984647
:1043B000002643461C68002CD1D0350000E01C00CC
:1043C0002000FCF729FC002815D022008821606914
:1043D00004F086FB00280CD16661002D02D0236911
:1043E0002B6102E0094B22691A602661FFF762FF28
:1043F000DFE7FFF79FFF23692500002BDFD1AEE742
:1044000000230380032004BC9046F0BD90FDFF1FF5
:1044100010B50400FFF78EFF6369002B11D00E4B1F
:104420001B68002B0DD09C4208D101E09C4205D1B5
:104430000A4B1B686361FFF73DFF0BE01B69002B14
:10444000F4D1064B1B686361034B1A6822611C6040
:10445000FFF730FF10BDC04690FDFF1F980D0020F4
:1044600010B50400FCF7BCFB2000FFF7D1FF10BD26
:1044700010B50400FCF7BEFB2000FFF7C9FF10BD1C
:1044800010B50400FCF7C0FB2000FFF7C1FF10BD12
:10449000406943425841704730B5046845688268B6
:1044A000C368200029008018594130BD044B1B68A7
:1044B00000200021002B02D0014B9868D96870477A
:1044C00090FDFF1F10B504000F4B1A68824204D103
:1044D00012691A60FFF7EEFE0CE0002A0AD0136999
:1044E000984205D1130009E01A69944206D01300DE
:1044F000002BF9D100232361636104E022691A6172
:10450000FFF7D8FEF6E710BD90FDFF1F00207047B3
:10451000014B1878C0B27047A0FDFF1F70B582B084
:104520004000C0B26B469C1D987103F097F90600DD
:104530000C4D10212800FCF7C7FE01212000FEF7DA
:10454000F9FE6B46DC1D01212000FEF70FFF102154
:104550002800FCF7B7FE300003F084F9207802B0A1
:1045600070BDC04680F00F4070B582B001AC400015
:10457000012318432070617003F070F90600094DA3
:1045800010212800FCF7A0FE02212000FEF7D2FE39
:1045900010212800FCF796FE300003F063F902B00A
:1045A00070BDC04680F00F4010B50F4B5B78002BFC
:1045B00017D000220C4B5A70802109010B48FCF7E0
:1045C00083FE80212220FFF7CFFF04212A20FFF75E
:1045D000CBFF60210D20FFF7C7FF80213520FFF7BB
:1045E000C3FF012010BDC046A0FDFF1F80F00F409B
:1045F00070B582B06B469A1C58805B8801ACDB08B2
:10460000802040420343237013885B011022134330
:104610006370A17003F022F90600094D10212800F3
:10462000FCF752FE03212000FEF784FE1021280033
:10463000FCF748FE300003F015F902B070BDC0462B
:1046400080F00F4070B582B001ACC30880225242A6
:10465000134323704001607003F000F906000C4D15
:1046600010212800FCF730FE02212000FEF762FE38
:104670006B46DC1D01212000FEF778FE102128008A
:10468000FCF720FE300003F0EDF8207802B070BD9A
:1046900080F00F4010B53620FFF740FF04000421E2
:1046A0000B000343D9B23620FFF75EFFFB21214008
:1046B0003620FFF759FF024807F022FA10BDC04626
:1046C000C409000010B50C4B5B78002B12D180217F
:1046D00009010A48FCF7F6FD04213620FFF744FFE4
:1046E00000213620FFF740FF054807F009FA0122B4
:1046F000014B5A70012010BDA0FDFF1F80F00F403C
:10470000C409000070B5104D6C78E4B2FFF7DAFF11
:104710000423AB7001211B20FFF726FF0A4A937880
:10472000042BFCD0002C01D1FFF73EFF064B9878FC
:10473000C0B2022804D0032804D0431E984102E0EE
:10474000022000E0032070BDA0FDFF1F10B5002176
:10475000014804F0F3F910BDB0F0FF1F10B50D20B3
:10476000FFF7DCFE01231843C1B20D20FFF7FCFE6A
:1047700010BDC04610B501000B39090103231943D0
:10478000C9B280208000FFF733FFFFF783FF10BD21
:1047900010B50400C1B20120FFF7E6FE210A022095
:1047A000FFF7E2FE10BDC04610B50400C1B2032001
:1047B000FFF7DAFE210A0420FFF7D6FE10BDC0463F
:1047C00000B583B000900191009A019BD1B2052001
:1047D000FFF7CAFE009A019B120AD1B20620FFF72A
:1047E000C3FE009A019B120CD1B20720FFF7BCFE5A
:1047F000009A019B110E0820FFF7B6FE009A019B5C
:10480000D9B20920FFF7B0FE009A019B190AC9B27C
:104810000A20FFF7A9FE009A019B190CC9B20B20D0
:10482000FFF7A2FE009A019B190E0C20FFF79CFED9
:1048300003B000BD10B501000148FFF7D9FE10BD5F
:104840000302000070B50020FEF720FD664800F06E
:1048500097FB6648FCF752FD6548FCF74FFD65483D
:10486000FCF74CFD644C402210212000FCF72EFD8B
:104870008025ED00402229002000FCF727FD80263E
:104880003601402231002000FCF720FD29002000E5
:10489000FCF71AFD012229002000FCF7CDFC3100B5
:1048A0002000FCF711FD012231002000FCF7C4FCC0
:1048B00010212000FCF706FD012210212000FCF74A
:1048C000BBFC01224D4BDA70FFF7BEFC310020002B
:1048D000FCF7F8FC29002000FCF7F6FC484E3000FD
:1048E00007F00EF929002000FCF7ECFC300007F07F
:1048F00007F907212A20FFF737FE07242A20FFF7B0
:104900000DFE0442FAD13E4C200007F0F9F80421D4
:104910003620FFF729FE00213620FFF725FE200074
:1049200007F0EEF898211820FFF71EFE0B20FFF786
:1049300021FF02213348FFF75BFE80213248FFF759
:1049400057FE0020FFF776FF90213048FFF750FE1A
:1049500080212F48FFF74CFE022182208000FFF7C4
:1049600047FE212188208000FFF742FE78213A206F
:10497000FFF7FAFD60213F20FFF7F6FD40213E20C2
:10498000FFF7F2FD234C5F252000FFF75BFEA843F5
:10499000C0B2A028F8D104210020FFF7E5FD1C21BA
:1049A0001120FFF7E1FD1120FFF7B8FD95212E2022
:1049B000FFF7DAFD30212720FFF7D6FD0121164849
:1049C000FFF716FE0D4B00221A715A719A701A7079
:1049D00001325A70FFF75EFEFFF7C0FEF62132206B
:1049E000FFF7C2FD002070BD084800004120000014
:1049F000A1200000B120000080F00F40A0FDFF1FAB
:104A0000C4090000010200000202000006020000CA
:104A1000070200000F0200001102000030B583B051
:104A20003E20FFF77BFD802149420843C1B23E2072
:104A3000FFF79AFD6B460022DA8006331B889BB293
:104A4000002B0BD101256B469C1D3E20FFF766FD18
:104A50002840208023889BB2002BF6D08420800041
:104A6000FFF7F0FD024B58715879C0B203B030BD6A
:104A7000A0FDFF1F70B5094B5D78EDB2FFF722FE78
:104A8000FFF7CCFF00235F2282425B41DCB2002DA6
:104A900001D1FFF789FD200070BDC046A0FDFF1FBA
:104AA00070B506000D004B1EDCB21B0618D40021A9
:104AB0000020FFF79DFD29000120FFF799FD002D43
:104AC00011D0350001343619022429782000FFF76F
:104AD0008FFD01350134A4B2B542F6D1002003E0C8
:104AE0000120404200E0002070BDC04670B50600C5
:104AF0000D00074B5C78E4B2FFF7E4FDE9B230004B
:104B0000FFF7CEFF002C01D1FFF74EFD002070BD56
:104B1000A0FDFF1F10B50C00FFF7E8FF002803D130
:104B20002000FFF7EFFD01E00120404210BDC0462C
:104B3000F8B505000C000022384BDA701021384817
:104B4000FCF7AAFB04213920FFF70EFDC0208000EE
:104B5000FFF778FD871EFFB2A74211D8002F3ED085
:104B60000338C6B22F4B9C4666442F4C2000FFF7FB
:104B700069FD28700134A4B20135B442F6D111E0C8
:104B800000213920FFF7F0FC244B00221A7001327B
:104B9000DA70A022120310212148FCF763FB0120E8
:104BA000404239E0BDB2214BE818FFF74BFD1B4CEA
:104BB0002071C1239B00E818FFF744FD60710021BC
:104BC0003920FFF7D1FC002323700133E370A022CA
:104BD000120310211248FCF745FB38001CE0BFB25D
:104BE000124BF818FFF72EFD0C4C2071C1239B00CF
:104BF000F818FFF727FD607100213920FFF7B4FC9A
:104C0000002323700133E370A02212031021044813
:104C1000FCF728FB01204042F8BDC046A0FDFF1F65
:104C2000C0F00F4002030000010300000303000076
:104C300010B5C9B2FFF77CFF10BDC04670B50400C7
:104C40000388002B03D0154A934204D021E0134B74
:104C50002380012020E0012082291DD1104B1B78E8
:104C6000002BF4D000F010F900F0B2F88021FFF72B
:104C70005FFFC0B200F0A6F8094D6979042000F08A
:104C80004FF92979032000F04BF9064B1B6998472F
:104C9000DDE700230380032070BDC046A3030000AE
:104CA000A0FDFF1FECF2000010B53120FFF736FC2D
:104CB000002821D0C4B2230705D501220F4B1A705A
:104CC0000F4803F059FFE30711D52420FFF726FC16
:104CD000C30709D5830603D50222084B9A7006E064
:104CE0000322064B9A7002E00022044B9A70054B97
:104CF00019681A680A431A6010BDC046A0FDFF1F5C
:104D0000B0F0FF1FA0C0044010B5FFF7CDFF044B6B
:104D1000186804F0FFFA80225205024B1A6010BD99
:104D2000C81E002004ED00E010B50A4B5C88002C82
:104D30000FD098883030302808DD3023054A0832FB
:104D40001119C95C995401339842F9DC0022014BD6
:104D50005A8010BDA8FDFF1FF0B583B001900E4B27
:104D60001E783022921B9F88BC18802C10DC1D00FE
:104D700019000831891907F0AAF9019B981B3030F6
:104D80006B88064A916BC9183A0007F0A0F900E059
:104D90000024200003B0F0BDA8FDFF1F28FEFF1F68
:104DA0000300074A928800209A4207DB9BB204491D
:104DB000488818184880D31A8B8001207047C04655
:104DC000A8FDFF1F014B98807047C046A8FDFF1F3C
:104DD00002484388C01838307047C046A8FDFF1FFE
:104DE000024B180008301B78C0187047A8FDFF1F41
:104DF000014B98887047C046A8FDFF1F044B1A78E6
:104E000030239B1ADBB2181E01D1014B98787047F2
:104E1000A8FDFF1F10B5FFF7F1FF024B9B88181884
:104E200080B210BDA8FDFF1F70B50500074B1C78B0
:104E30000020AC4209DBFFF7EDFF43190020802B77
:104E400003DC641B014B1C70013070BDA8FDFF1F0B
:104E500070B50A4B19001E3100221A8002338B42B2
:104E6000FBD1074D074C2900200005F0F5FA200082
:104E70000830290005F0F0FA70BDC046DC1E0020A5
:104E800020F40000CC1E002010B5064B00225A80F2
:104E90009A8030321A703833034A9363FFF7D8FF91
:104EA00010BDC046A8FDFF1F28FEFF1F70B50600FD
:104EB0000D00FFF7E9FF2C1C802D00D98024A5B23E
:104EC000044B986B2A00310007F001F9024B9C80DB
:104ED000280070BD28FEFF1FA8FDFF1F10B50C00A5
:104EE0001E22044907F0F3F810220349200007F0BE
:104EF000EEF810BDDC1E0020CC1E002010B50C000A
:104F00001E220100044807F0E2F8102221000348A5
:104F100007F0DDF810BDC046DC1E0020CC1E0020CE
:104F20004000024BC15201207047C046DC1E0020E9
:104F30004000014B185A7047DC1E002010B50F3896
:104F4000C000034BC01805F087FA012010BDC04611
:104F5000CC1E00200F38C000014BC0187047C0465F
:104F6000CC1E002010B50249024805F07BFA10BDA6
:104F700020F40000D41E00207047C0467047C04691
:104F800003049B0F9B00064AD318996D0A68FF2300
:104F90000340C004C00E834013430B607047C046FB
:104FA00034D80000002807D18C4B19688C4A0A407D
:104FB0001A601A681A600FE180235B0298420AD1D6
:104FC000864B1968864A0A401A601A6880210903CC
:104FD0000A431A6000E1C0231B0398420AD17F4BA9
:104FE00019687F4A0A401A601A68C02109030A43F7
:104FF0001A60F1E0CC231B06984205D1794A136868
:1050000003218B431360E7E0CD231B06984209D1AF
:10501000744B1A6803218A431A60196801220A43F3
:105020001A60D9E0CE231B06984209D16D4B1A684D
:1050300003218A431A60196802220A431A60CBE0EE
:10504000CF231B06984208D1664B1968032291436F
:10505000196019680A431A60BEE08023DB04984295
:105060000ED1614B1968614A0A401A601968604A9A
:105070000A401A601A688021C9040A431A60ABE02A
:10508000A4231B0698420FD1574B1A68802149026E
:105090000A431A601968564A0A401A601A68802141
:1050A000C9040A431A6097E080231B0598420AD17D
:1050B0004D4B19684E4A0A401A601A68802109054A
:1050C0000A431A6088E0C0231B0598420AD1464B68
:1050D0001968474A0A401A601A68C02109050A433C
:1050E0001A6079E080235B0498420ED13E4B196828
:1050F0003E4A0A401A6019683E4A0A401A601A6815
:10510000802149040A431A6066E0A1231B069842E5
:105110000FD1354B1A68802149020A431A60196879
:10512000344A0A401A601A68802149040A431A6006
:1051300052E080239B0498420AD12B4B19682D4AD8
:105140000A401A601A68802189040A431A6043E001
:10515000C0239B0498420AD1234B1968254A0A4070
:105160001A601A68C02189040A431A6034E0B02327
:105170001B06984205D11C4A11681F4B0B40136057
:105180002AE01E4B98420AD1174B1968174A0A4069
:105190001A601A688021C9020A431A601CE0184B81
:1051A00098420BD1104B1A68802149020A431A60B9
:1051B0001A688021C9020A431A600DE0114B984217
:1051C00005D1114A136802218B43136004E00E4A93
:1051D000116802230B4313607047C04600700440FF
:1051E000FFFFF3FF08B0034004800440FFFFFEFF11
:1051F000FFFFFFF3FFFFFFFCFFFFFBFF00070C00BB
:105200000407080001070C000081044010B506489F
:10521000FCF7A6F8054B01221A7000225A70AA2149
:105220009970D9709A7210BD9953000068FEFF1FE3
:1052300010B5134CA1790220FFF772FEA379112B50
:1052400006D10F4B5A8D198D914214DD110012E0D9
:10525000062B06D10A4B5A8D198D91420BDD110098
:1052600009E000213A2B06D1054B2822995C09025E
:1052700001329B5C194389B20120FFF751FE10BD3A
:10528000CC11002070B505001478087A0223634021
:1052900098421FD1487A537898421BD1887A9378E4
:1052A000984217D1C87AD378984213D1087B1379E2
:1052B00098420FD1487B537998420BD1887B9379E0
:1052C000984207D1C87BD379984203D10320A840E4
:1052D000C0B223E00B89002B14D14A89FF231B02A3
:1052E0009A420FD18B89FE2B0CD10D4E74690E3171
:1052F0000222200006F0EBFE023474610220A84076
:10530000C0B20BE0064E746908310822200006F096
:10531000DEFE083474610120A840C0B270BDC046F2
:1053200068FEFF1F10B50400114B1B78012B07D13D
:10533000082201000E48023006F0BAFE002810D004
:105340000B4B9B7A0020012B11D108222100084829
:105350000C3006F0ADFE03000020002B07D1013316
:1053600000E000239800C3185B000148C01810BD7E
:1053700068FEFF1F10B501001020FFF7DFFD044B92
:105380009B68002103489847FFF7F6FD10BDC04613
:1053900084E80000E55A0000F0B54F464646C0B428
:1053A00083B00500B14C002323766376FFF76CFDD4
:1053B000FFF70EFDE06104210920FFF7B1FD236A2C
:1053C000002B01D0FFF734FF002D04D1A849684617
:1053D00005F042F803E02900684605F03DF8A54BCA
:1053E0001B883E2B00D85BE2A04AD1698B1C53611D
:1053F000537ECB1800229A709F48FFF793FF002836
:1054000004D19E48FFF78EFF002808D09C4803F087
:105410005DFD964A536901335361802400E0002406
:10542000984B1878597803010A091343DBB29A01A3
:105430009B081343DBB2DFB20A0712D1914A5288AC
:10544000002A0ED1030705D10F239943782600299E
:1054500000D130E3854A53691F70013353617026D0
:1054600029E3020715D10F2208009043021E10D134
:105470007E4E75693F329343303A11400B432B7097
:10548000681C0D3A804906F022FE033575616826D6
:1054900011E3764E756904227A49280006F017FE5A
:1054A0002F7004357561602605E304231E4304E074
:1054B0006E494A69137001324A61724BDB79402BA5
:1054C00005D0FF2B06D0012B07D11E430AE0022393
:1054D0001E4307E003231E4304E064494A69137036
:1054E00001324A61674B1B89002B21D1654B5B89D7
:1054F000002B1DD1634B9B89002B19D1614BDB899C
:10550000002B15D15F4B1B8A002B11D15D4B5B8AA1
:10551000002B0DD15B4B9B8A002B09D1594BDB8AA9
:10552000002B05D1594803F0D1FC40231C4342E035
:105530005248FFF7F7FE4D4B5862002819D04178CA
:10554000534803F0C3FC494A537E0233D1698C4669
:105550006344526A5278120119780A431A704D4A0C
:1055600046490420FFF78EFE402464422043C4B223
:1055700021E0444B1A89484B9A4213D1414B5B8B33
:10558000002B0FD13F4B9B8B002B0BD13D4BDB8B6B
:10559000002B07D13F4A39490420FFF773FE04432B
:1055A000E4B208E0314F7D6910223449280006F04A
:1055B0008EFD10357D61334B1B7EFF2B00D093E0B9
:1055C000082525432F4B5B7E022B29D12D4A528B78
:1055D000002A00D07EE02B4A928B002A00D070E295
:1055E000284AD28B002A23D1264A128C002A1FD1A6
:1055F000244A528C002A1BD1224A928C002A17D1AD
:10560000263220498A5C002A12D10B252543174AED
:10561000536927211B48415C197001335361A0E095
:10562000184A528B002A55D1164A928B002A51D122
:10563000144AD28B002A33D1124A128C002A2FD15D
:10564000104A528C002A2BD124320E498A5C002A3F
:1056500026D10A252543054F7C692370601C03323F
:105660000E4906F034FD04347C617AE068FEFF1FC9
:1056700020F40000B8110020E4110020D411002013
:10568000C0D80000CC110020CE110020F4D80000BA
:1056900024D90000C4110020FE800000F111002078
:1056A000CA4AD28B002A15D1C84A128C002A11D1BD
:1056B0002232C6498A5C002A0CD109252543C44FF1
:1056C0007C692370601C0532C24906F000FD063477
:1056D0007C6146E0BE4F7C691022BF49200006F085
:1056E000F6FC10347C613CE0BB48FFF71BFEB84B76
:1056F0005862002812D004252C431A005B7E023326
:10570000D269D318197842780A431A706A46B249A6
:105710000020FFF7B7FD2043C5B222E0AB4B1A8B48
:10572000AE4B9A4213D1A94B5B8B002B0FD1A74BE9
:105730009B8B002B0BD1A54BDB8B002B07D16A4633
:10574000A5490020FFF79EFD0443E5B209E0A04F04
:105750007D691022A049280006F0B9FC10357D6152
:10576000250028229A4B1A76984B9B79112B00D052
:105770008CE0964C238D618D0A02090A11438AB28E
:1057800019021B0A0B4399B2954803F09FFB238D26
:105790001A021B0A13439BB20F2219009143914A2C
:1057A00091421FD1894A528D1102120A0A438E4931
:1057B0000A408C498A4215D1854CF32362691370E3
:1057C0008A4803F083FB6169804A138D1B0A5033BA
:1057D0001801528D120A13005033C3184B70023156
:1057E000616147E0794A528D120292B2F0210902BA
:1057F0008A4215D1764FF1237A6913707C4803F001
:1058000065FB7C69601C7B4B98460222190006F000
:105810005EFC43465B881B0AE37004347C6129E02C
:10582000FF229343F0221202934214D1684FF223D5
:105830007A691370F221704803F048FB7C69634970
:105840000B8D1B0A6370A01C2A31022206F03FFC5C
:1058500004347C610EE05E4FF0237A691370674870
:1058600003F034FB7C69601C0422624906F02FFCC3
:1058700005347C61564C676902226149380006F0A4
:1058800026FC02376761237E08332376504BD969A3
:105890005A7E8E548A1855705A69521A5A7610E0F8
:1058A0004B4CE26941231370657E6B1CD8B2101813
:1058B0002822464906F00BFC29356576237E2833DD
:1058C000237669461020FFF739FB4E4B1B6898473B
:1058D000041E00DA15244C4B5B6998477D231C1B82
:1058E000241A4A4B1F883A4B1E7EBA1B5D7E631BEF
:1058F0009A4200DCC0E002F0EFFD0500782138009C
:1059000006F02AF983B20133013D0020AB4200DDED
:10591000DDE02F4B9846DF695D7E381D2A00390097
:1059200006F0DEFB394A13881B0A402149420B432B
:105930003B7013887B7043461B8D1A0ABA70FB704C
:105940000133424613850435EEB25676A51B072374
:105950009D43D562B819117E1C4BC9182A0006F068
:10596000B6FB7519A8B2FFF72DFA02F0BDFD051EB2
:1059700000D194E06846FFF7FDFC280002F0EEFD40
:10598000280002F0D5FD124B1B6B012B00D188E0E3
:10599000043B012B00D886E00D4B1D7EDA6A94464D
:1059A0006544ADB205225A76D96918480288120AB0
:1059B0002026764232430A7002884A70053C07224C
:1059C0009443DC628146024EB0464FE0CC11002089
:1059D00068FEFF1FEF110020E4110020FE80000090
:1059E00064D90000B0F00000F0FF000098D900007A
:1059F000D4D90000F411002010DA000058DA0000B9
:105A0000FA110020DCF4000084E80000B811002046
:105A1000F069EA0802715B1BF26A934201DA4246BE
:105A2000D3622D4B5F7EDC6AC0192C4969182200B5
:105A300006F04DFB381980B2FFF7C4F902F054FDAF
:105A4000041E32D06846FFF795FC200002F086FD68
:105A5000200002F06DFD204BDA6A94466544ADB239
:105A60001B6B012B23D0043B012B22D94B461B88F7
:105A70009D42CDD301202AE0174BD8694019174920
:105A8000711806F024FB164B18884519A81B80B224
:105A9000FFF798F96846FFF76DFC012017E000203A
:105AA00015E0002013E0002011E000200FE00020AE
:105AB0000DE000200BE0094B9B79112B00D0F7E49F
:105AC000F3E4064A928B002A00D003E6E8E503B02F
:105AD0000CBC90469946F0BD68FEFF1FCC1100201B
:105AE000B811002010B50C0011002000FEF76AF874
:105AF000044B1B6A002B02D09B6820009847014B87
:105B00001C6310BD68FEFF1FF0B5474680B484B02B
:105B100001900291039317090F2414400F2F47D0CF
:105B20000F2C00D101343E00250022003900284806
:105B300003F0CCF9002F04D03A000299019806F046
:105B4000C6FA73190F2B06DC1022D21A019B981982
:105B5000002106F0DAFA002C17D01E4B5B6998463C
:105B60002600019B581B10302200414606F0AFFA78
:105B7000022C06D10A2F04D8FF23019AD372013BCD
:105B800013734644134B5E6105E0002F03D0039965
:105B9000019804F075FA104803F098F914E0250014
:105BA000220010210A4803F091F910261027C3E7BC
:105BB0000F2CF4D110221021054803F087F910258D
:105BC000102601341027B7E704B004BC9046F0BD9E
:105BD00078DA000068FEFF1F00D40000F0B55F46D1
:105BE00056464D464446F0B48BB0D44C0023237641
:105BF0006376FFF7EDF8E0610420FFF799F900B252
:105C0000606320003830FBF707F8002805D0CB4B45
:105C1000002248215A5202315A52C84BDA69107890
:105C200051780402F8230340C02B02D0E02B14D09B
:105C300034E00C436405640D93781B02D2781A4358
:105C40009046BE4B5A7E04325A764A229B5A002B0B
:105C500030D1059301270026DEE3167993781B02E5
:105C6000D2781A4390460C436405640DB34F7B7E93
:105C700005337B764A239946FD5AFFF7B9F8451953
:105C8000787E281AC517E30FA0425D41EBB2059359
:105C90004B46FB5A0027002B2AD1BDE3A74B00221D
:105CA00048215A5202315A520023059300270026F8
:105CB000002450E00F20FFF74DF90100A04804F048
:105CC000D1FB00280AD19D4B002248215A520231B3
:105CD0005A5200230593012700269DE34A23974A41
:105CE000D35A002B00D1AEE30023059301270026F1
:105CF000002C00D1B7E34823904AD55AA54200D0E2
:105D0000B1E30433D35A434500D0ACE30F20FFF78F
:105D100021F901008A4804F0A5FB2C0000281AD1C3
:105D2000A1E3002F04D19EE30023059301271E0069
:105D300082484823C45204334246C2523830FA22C1
:105D400052010023FAF74CFF0F20FFF703F901007F
:105D50007B4804F081FB794B5D7E052D00D1DFE2AD
:105D6000DB695A5D91461F2249469143602900D064
:105D7000C0E2AA1C9A1871494A615B195B789A467D
:105D80006A461376137E06935BB2002B06DA6D48E3
:105D900003F09CF8694A5369013353614B46DB06B3
:105DA00048D44B461B072AD4644B98465B699B46F4
:105DB00045465035079540465130591C032206F0A0
:105DC00086F95B461B785A46043241464A619A0876
:105DD0000F208346104084466020614608435021CE
