:100000009828002055040000B5040000BD0400003D
:10001000B5040000B5040000B504000000000000B5
:10002000000000000000000000000000B9B800005F
:10003000B50400000000000001B80000E5B70000B2
:10004000550400005504000055040000550400004C
:100050000000000055040000550400005504000095
:10006000550400005504000055040000550400002C
:10007000A1070100F9070100510801005504000023
:10008000550400005504000055040000550400000C
:100090005504000055040000550400000000000055
:1000A00055040000550400005504000055040000EC
:1000B0005504000000000000811800002D730000AE
:1000C0000000000000000000000000000000000030
:1000D0000000000000000000000000000000000020
:1000E0000000000000000000000000000000000010
:1000F0000000000000000000000000000000000000
:10040000FFFFFFFFFFFFFFFFFFFFFFFFFEFFFFFFFD
:1004100080B582B000AF021CFB1D1A700A4AFB1D9A
:100420001B78101C191C0FF06FFE084B1B785A1C10
:10043000D1B2064A1170191C054BFA1D12785A5494
:10044000BD4602B080BDC04600A0064010F2FF1FAE
:100450002812002080B582B000AF114B7B60114B99
:100460003B6007E03B681A1D3A607A68111D7960AD
:1004700012681A603A680C4B9A42F3D30B4B3B60FC
:1004800004E03B681A1D3A6000221A603A68084B83
:100490009A42F6D305F022FABD4602B080BDC046AE
:1004A000C082010000F0FF1F0CF2FF1F10F2FF1FBF
:1004B0001427002080B500AF72B6FEE780B500AF0C
:1004C00072B6FEE790B585B000AFF860B9607A60AB
:1004D000BB68002B1AD0104BFA681A607B689AB27E
:1004E0000E4B1A807B68E8225200934201DDE8231C
:1004F0005B001C1C0A4ABB68101C191C221C13F050
:1005000000FF042002F028FD01F0F6FC034B00225E
:100510001A80BD4605B090BD4C1500200017002084
:100520007413002090B58BB000AFF860B9607A60AA
:100530003B603B68002B31D01423FB18FA6813CAC8
:1005400013C312681A602623FB18FA68528A1A80AD
:10055000FA683B68111C1A1C1023081C111C1A1C79
:1005600013F0CFFEFB68302208218C46BC44624465
:1005700012885A82F968BA687B68081C111C1A1C18
:10058000FFF7A0FFFB681422BA1813CA13C312683E
:100590001A60FB682622BA1812885A82BD460BB030
:1005A00090BDC04680B500AFBD4680BD90B587B058
:1005B00000AFF860B9607A60154B1B68181C0DF02D
:1005C00071FD031C3B611DE0FB68002B02D0FB6842
:1005D000012B07D10F4B1B68181C0DF0EFFD031CFE
:1005E0007B6102E00C4B1B687B613B695C68F868CF
:1005F000B9687A687B69A0473B69181C0DF0F6FD65
:10060000031C3B613B69002BDED1BD4607B090BDAA
:1006100040F0FF1F30F0FF1F94F4FF1F80B500AFC4
:100620000F4B181C0DF00EF80E4B1B68181C0DF02C
:100630002FFD0D4B1A680D4B101C191C05F0FAFB11
:100640000B4B181C0CF0FEFF0A4B1B68181C0DF01E
:100650001FFD094B1B68181C0DF01AFDBD4680BD1F
:1006600024F0FF1F20F0FF1F10F0FF1F0D0C0000F3
:1006700034F0FF1F30F0FF1F40F0FF1F80B582B045
:1006800000AF78607B68002B09D0074B1A687B6845
:100690005B68101C191C05F013FD031C00E000230F
:1006A000181CBD4602B080BD10F0FF1F80B582B09F
:1006B00000AF78607B68002B09D07B68181CFFF7BF
:1006C000DDFF031C181C04F0C7FF031C00E000231F
:1006D000181CBD4602B080BD80B500AF044B1B683E
:1006E000181C0DF0DFFC031C181CBD4680BDC04665
:1006F00020F0FF1F80B584B000AF78607B68002BCE
:1007000007D07B68181C0DF071FD031CFB60FB68B3
:1007100000E00023181CBD4604B080BD80B500AFCA
:10072000024B1B68181CBD4680BDC04694F4FF1FD9
:1007300080B586B000AF7860394B181C0DF092FC84
:10074000384B181C0DF08EFC00233B610F23FB1867
:1007500000221A70FFF7C0FF031C7B612AE07B694F
:1007600024229B5C0F22BA1812789A421CD87B690B
:100770000833191C7B6924229B5CDB08DBB21A1C42
:100780007B68181C13F0AEFD031E0DD10F23FB1860
:100790007A692421525C1A707B693B610F23FB1834
:1007A0001B78802B00D108E07B69181CFFF7A2FFA3
:1007B000031C7B617B69002BD1D13B69002B0CD0E2
:1007C000194B181C0DF04EFC184B181C0DF04AFC70
:1007D000144B181C0DF046FC03E0154B181C0DF0D3
:1007E00041FC3B69002B16D0124B1B68181C0DF006
:1007F00059FC021E3B699A420DD00E4B1A683B69A8
:10080000101C191C0DF0AAFC0A4B1A683B69101C3D
:10081000191C0DF08DFC3B69181CBD4606B080BD4F
:100820007C4C0100A44C0100A84C0100C84C010004
:10083000D04C010020F0FF1F80B58AB000AFF860F7
:100840007A600B23FB180A1C1A707B68181C04F0D2
:1008500017FF031C3B623B6A002B09D1724B181C2B
:100860000DF000FC714B181C0DF0FCFB0023D6E0D2
:10087000FB68181CFFF75CFF031CFB61FB69002B86
:100880001FD0FB69181CFFF711FF031CBB61BB697C
:10089000002B0AD07A68BB69101C191C102213F0B7
:1008A00021FD031E01D1FB69B9E0614B181C0DF05D
:1008B000D9FB604B181C0DF0D5FBFB69181C00F030
:1008C000D3F8FFF72BFF031E0A2B12D15A4B1B68DC
:1008D000181C0DF0F1FB031C7B61584B181C0DF02C
:1008E000C1FB524B181C0DF0BDFB7B69181C00F0BE
:1008F000BBF8534B1A683B6A101C191C05F06EFBC1
:10090000031C7B627B6A002B1CD14D4B1A683B6A2F
:10091000101C191C05F00EFB031C7B627B6A002B6C
:1009200005D1484B181C0DF09DFB002377E07A6A37
:100930007B6A5A607B6A00221A607B6A5B68181CBB
:100940000DF0A6FB404B181C0CF09AFE031CFB613B
:10095000FB69002B05D13D4B181C0DF083FB0023D8
:100960005DE0354B1A68FB69101C191C0DF0E0FBAB
:10097000374B181C0CF084FE031C3B613B69002BB9
:100980000BD1344B181C0DF06DFB2F4AFB69101C6A
:10099000191C0CF0A3FE002341E03B69FA695A6080
:1009A0007B6A5A683B69101C191C0DF09FFBFB69A0
:1009B0007A6A5A60284B1B685A1C274B1A60264BD0
:1009C0001B68264A101C191C0DF04CFBFB69FA68C9
:1009D0000833111C1022181C13F093FCFB690B2226
:1009E000BA18242112785A54FB691833181C0021B4
:1009F0000C2213F0A3FC1A4B181C0DF033FB194BFF
:100A0000181C0DF02FFB094B181C0DF02BFBFA687E
:100A10007B680220111C1A1CFFF7C8FDFB69181C1B
:100A2000BD460AB080BDC046F04C0100A44C010098
:100A30002C4D0100504D010020F0FF1F684D0100BA
:100A400010F0FF1F904D010024F0FF1FCC4D01005E
:100A500014F0FF1FFC4D010094F4FF1F404E0100F5
:100A60005C4E0100C84C010090B585B000AF7860C5
:100A70007B68002B00D17CE07B685B68002B00D199
:100A800077E03E4B181C0DF0EDFA3D4B181C0DF0B5
:100A9000E9FA3C4B1A687B68101C191C0DF05EFBD0
:100AA0007B685B685B68181C0DF0FCFA031CFB603C
:100AB00005E0FB68181C0DF099FB031CFB60FB684C
:100AC000002B04D0FB685A687B689A42F1D1FB681E
:100AD000002B0CD12C4B181C0DF0C4FA7B6808338A
:100AE000181C0CF053FD264B181C0DF0BBFA7B684C
:100AF0005B685A68FB68101C191C0DF02FFB7B68A3
:100B00005B685B68181C0DF0CDFA031E0CD11F4BFF
:100B1000181C0DF0A7FA1E4B1A687B685B685B68AF
:100B2000101C191C05F07EFA1A4A7B68101C191C4F
:100B30000CF0D4FD184AFB68101C191C0CF0CEFDFB
:100B4000164B1B685A1E154B1A60144B1B68144A2F
:100B5000101C191C0DF086FA7B6808331C1C7B687E
:100B6000181CFFF7A3FD031C0320211C1A1CFFF710
:100B70001DFDC046BD4605B090BDC046804E01007B
:100B8000A44C010020F0FF1FA44E0100D44E010030
:100B900010F0FF1F24F0FF1F14F0FF1F94F4FF1F3D
:100BA000004F010080B584B000AF7860154B181C71
:100BB0000DF058FA7B68002B21D07B685B68002B16
:100BC0001DD07B685B68181C0DF06CFA031CFB6081
:100BD0000BE0FB685B68181CFFF746FF7B685B68EF
:100BE000181C0DF05FFA031CFB60FB68002BF0D1B2
:100BF000054B1A687B68101C191C05F013FABD46DA
:100C000004B080BD1C4F010010F0FF1F80B582B002
:100C100000AF78607B68181CFFF7C4FFBD4602B0C8
:100C200080BDC04680B584B000AF786039602A4B83
:100C3000181C0DF017FA7B68181C00F099F8031CBB
:100C4000FB60FB68002B21D1244B181C0CF018FD15
:100C5000031CFB60FB68002B09D1214B181C0DF015
:100C600001FA204B181C0DF0FDF9002330E01E4B5B
:100C7000181C0DF0F7F91D4B181C0DF0F3F91C4B67
:100C80001A68FB68101C191C0DF052FAFB687A6890
:100C90000433111C1022181C13F033FB3B68002B8B
:100CA0000BD0FB6814331A1C3B68101C191C0FF086
:100CB0004FFDFB6800221A7702E0FB6801221A77D9
:100CC0007A687B680020111C1A1CFFF76FFCFB6818
:100CD000181CBD4604B080BD384F010034F0FF1F22
:100CE0004C4F0100804F0100944F0100A44C0100C3
:100CF00030F0FF1F80B584B000AF7860194B1B68DF
:100D0000181C0DF0CFF9031CFB6024E0FA687B6827
:100D10009A421AD1144B181C0DF0A4F9114B1A6801
:100D20007B68101C191C0DF019FA104A7B68101C06
:100D3000191C0CF0D3FC7B681A1D7B68043301205E
:100D4000111C1A1CFFF732FC08E0FB68181C0DF0A0
:100D50004DFA031CFB60FB68002BD7D1BD4604B0E5
:100D600080BDC04630F0FF1FC04F010034F0FF1FB0
:100D700080B584B000AF7860104B1B68181C0DF074
:100D800091F9031CFB6011E0FB681A1D7B68101CC5
:100D9000191C102213F0A6FA031E01D1FB6809E00A
:100DA000FB68181C0DF022FA031CFB60FB68002B8B
:100DB000EAD10023181CBD4604B080BD30F0FF1FEF
:100DC00080B584B000AF0023BB60214B1B68181CAA
:100DD0000DF068F9031CFB6032E01E4B181C0DF08F
:100DE00041F91D4B181C0DF03DF9FB680433181C2C
:100DF00004F0F2FB031C7B607B68002B0FD07B6848
:100E000022229B5C002B0AD0144B181C0DF02AF9EF
:100E1000114B181C0DF026F9FB68043314E0FB6835
:100E20000433BB600E4B181C0DF01CF90A4B181C48
:100E30000DF018F9FB68181C0DF0D8F9031CFB60C5
:100E4000FB68002BC9D1BB68181CBD4604B080BD2F
:100E500030F0FF1FD84F0100A44C0100EC4F0100FF
:100E60000850010080B582B000AF174B1B68181CFA
:100E70000DF018F9031C7B6020E07B681B7F002BC2
:100E800016D17B681433181C0FF072FC031E0FD0B0
:100E90000E4B181C0DF0E6F87B68181CFFF72AFFB4
:100EA000094B1B68181C0DF0FDF8031C7B6005E066
:100EB0007B68181C0DF09AF9031C7B607B68002B83
:100EC000DBD1BD4602B080BD30F0FF1F2C500100C9
:100ED00080B582B000AF78607B680B2B06D1244BC5
:100EE000234A126880210A431A603DE07B680E2B7A
:100EF00007D11F4B1E4A1268802109020A431A605B
:100F000032E07B680F2B06D11A4B1A4A1268022175
:100F10000A431A6028E07B680F2B15D97B682F2BBA
:100F200012D87B68FF221340103B5B09124A94469B
:100F300063449B007A68103A111C1F220A40012169
:100F400091400A1C1A600FE07B680C4A934203D15F
:100F50000B4BC0221A6007E07B680A4A934203D118
:100F6000074BC02292031A60BD4602B080BDC04646
:100F700024ED00E010E000E04038003816170000D3
:100F800000E100E02425000090B585B000AFF860D6
:100F90003A607B60FA683B687C689360D46012F0CA
:100FA00061FD031C0C1CFA6813605460BD4605B05B
:100FB00090BDC04690B583B000AF78607B6819687B
:100FC0005A687B68DC689B685B1854417A681360D8
:100FD0005460BD4603B090BD90B583B000AF78605B
:100FE00012F040FD031C0C1C7A6813605460BD466F
:100FF00003B090BD90B585B000AF786012F032FDBF
:101000000A1C011C7B685C681B68C91AA2410B1C86
:10101000141C012100225B185441BB60FC607B68FA
:10102000DC689B680122111CFA68A24207D8FA68A2
:10103000A24202D1BA689A4201D80023191CCBB24D
:10104000181CBD4605B090BD80B584B000AF021C31
:10105000FB1D1A70BB1D0A1C1A700023FB60144B89
:101060001B68181C0DF01EF8031CFB6017E0FB68E2
:101070001B79FA1D12789A420BD1FB685B79BA1D75
:1010800012789A4203D0FB685B79FF2B01D1FB6891
:1010900009E0FB68181C0DF0A9F8031CFB60FB6855
:1010A000002BE4D10023181CBD4604B080BDC0460F
:1010B00048F0FF1F80B584B000AF021CFB1D1A7002
:1010C000BB1D0A1C1A70FB1D1A78BB1D1B78101C57
:1010D000191CFFF7B9FF031CFB60FB68002B01D153
:1010E000012309E0FB689B68002B01D1012303E089
:1010F000FB689B6898470023181CBD4604B080BD60
:1011000080B582B000AF7860044B1A687B68101C11
:10111000191C0CF0EBFFBD4602B080BD48F0FF1F6C
:1011200090B583B000AF714B714A1279DA71714B8F
:101130001B78FF2B10D16F4A6F4B111C1A1C102308
:10114000081C111C1A1C13F0DCF86B4A694B101CAC
:10115000191C0EF043FE1DE0674B684A111C1A1C57
:101160001023081C111C1A1C13F0CBF8624A614BA7
:10117000111C1A1C1023081C111C1A1C13F0C1F896
:101180005C4A5E4B111C1A1C1023081C111C1A1CF3
:1011900013F0B7F85A4B1B78002B00D17DE0FC1DF3
:1011A0000BF09EF8031C2370FB1D1B78002B47D00F
:1011B000544B3A221A70524B1B78FA1D12789A42FD
:1011C00039D0FB1D1B789AB24D4B1B789BB2D31ABA
:1011D0009AB24D4B1B88D3189AB24B4B1A80434B93
:1011E000494A1288283A1212D2B21A713F4B464A23
:1011F0001288D2B2283AD2B25A71414B1B78191CCC
:10120000FB1D1B783E4A12789B1ACB182C331A1CF4
:10121000364BD0183A4B1B782C331A1C334BD11851
:10122000394B1B88283B1A1CFB1D1B78D31A043B27
:101230001A1C13F06FF8324BFA1D12781A702CE05A
:101240002A4B3A229A71304B1A882D4B1B789BB24D
:10125000D31A9AB22C4B1A80244B2B4A1288283A64
:101260001212D2B21A71214B274A1288D2B2283AEE
:10127000D2B25A71224B1B782C331A1C1B4BD2183A
:10128000214B1B882C3B1C1C204B181C111C221CA6
:1012900013F040F81A4B00221A70194B1B782833B0
:1012A0001A1C124BD31881221A70154B1B78283345
:1012B0001A1C0E4BD31800225A70114B1B7828337E
:1012C0001A1C0A4BD31800225A800D4B1B78283366
:1012D0001A1C064BD41801F005F9031CDB439BB222
:1012E0006380C046BD4603B090BDC0464413002095
:1012F000082300205C1300204C13002098F4FF1FEB
:1013000031F5FF1F6C1300203013002070130020F4
:1013100090B583B000AF3A60FB1D021C1A70BB1D74
:101320000A1C1A70864B1B78002B17D0844B1B7835
:1013300028331A1C834BD3181B783A2B21D1804BAE
:101340001B7828331A1C7F4BD3181B78DBB25BB297
:10135000002B16DB7C4B00221A80EDE0794B9B7949
:101360003A2B0ED1764B1B7828331A1C754BD318A9
:101370001B78DBB25BB2002B03DB734B00221A80BD
:10138000DAE00AF0ADFF031C1A1C6D4B1A706F4BAC
:101390006F4A111C1A1C1023081C111C1A1C12F075
:1013A000B0FF694B1B8830339AB2674B1A80664B8B
:1013B0001A88A023DB009A4203D9634BA022D200F3
:1013C0001A805F4B1B781A1C5D4B1B78D318303387
:1013D0001A1C5C4BD1185C4B1B882C3B584A12786A
:1013E0009B1A043B1A1C574B081C191C12F092FF45
:1013F000544B60221A70534B00225A70514B0022FA
:101400005A804F4B1B78002B03D0524B3A221A7054
:1014100002E04C4B3A229A714A4B4F4A1279DA71E8
:101420004E4B1B88002B1FD14C4B5B88002B1BD1D4
:101430004A4B9B88002B17D1484BDB88002B13D1DC
:10144000464B1B89002B0FD1444B5B89002B0BD1E2
:10145000424B9B89002B07D1404BDB89002B03D1EA
:10146000394B00221A8067E0384A3C4B111C1A1C89
:101470001023081C111C1A1C12F043FF344B1B785C
:10148000FF2B12D1FB1D1B78042B0AD1BB1D1B782F
:10149000022B06D1314A2E4B101C191C0EF09EFC5B
:1014A00009E0294B00221A8046E02C4A284B101CE8
:1014B000191C0EF093FC224B1B7828331A1C214B6D
:1014C000D318FA1D12781A701D4B1B7828331A1C7A
:1014D0001C4BD318BA1D12785A70194B1B782C3339
:1014E0001A1C184BD4183B68181C03F083F9031C12
:1014F0002360144B144A1288283A1212D2B21A717D
:10150000104B114A1288D2B2283AD2B25A710C4BFF
:101510001B7828331A1C0B4BD31800225A80084B17
:101520001B7828331A1C074BD41800F0DBFF031C70
:10153000DB439BB26380C046BD4603B090BDC0464E
:1015400031F5FF1F44130020301300205C130020EE
:1015500098F4FF1F6C130020082300204C13002078
:1015600090B585B000AFF860B9607A603B602D4BF4
:1015700060221A702B4B00225A702A4B00225A808C
:10158000284B3A229A71274B274A1279DA71254B58
:101590003A6804321212D2B21A71224B3A68D2B2AD
:1015A0000432D2B25A71214AFB68101C191C102255
:1015B00012F0A7FE1E4A1D4B101C191C0EF00EFC4B
:1015C0001C4B1B7828331A1C164BD318BA68D2B29E
:1015D0001A70184B1B7828331A1C124BD3187A68D0
:1015E000D2B25A70134B1B7828331A1C0D4BD318E8
:1015F00000225A800F4B1B7828331A1C094BD41831
:1016000000F070FF031CDB439BB263803B689BB21E
:101610002C339AB2084B1A8000F06EFCBD4605B020
:1016200090BDC04644130020082300205C13002016
:101630004C13002031F5FF1F3013002090B589B006
:1016400000AF664B3A1D111C1A1C1023081C111CFC
:101650001A1C12F056FE624BDB79BB61614B1B78A2
:10166000002B00D18DE01723FC180AF039FE031C73
:1016700023701723FB181B78002B55D05A4B3A22A6
:101680001A70584B1B781722BA1812789A423CD01D
:101690001723FB181B789AB2524B1B789BB2D31AB4
:1016A0009AB2524B1B88D3189AB2504B1A804C4BAB
:1016B0004E4A1288283A1212D2B21A71484B4B4A3B
:1016C0001288D2B2283AD2B25A71464B1B78191CF2
:1016D0001723FB181B78434A12789B1ACB182C331C
:1016E0001A1C3F4BD0183F4B1B782C331A1C3C4B19
:1016F000D1183E4B1B88283B1A1C1723FB181B785C
:10170000D31A043B1A1C12F005FE364B1722BA18E6
:1017100012781A70354B1A88324B1B789BB2D31A49
:101720009AB2324B1A802CE02D4B3A229A712F4BF1
:101730001A882C4B1B789BB2D31A9AB22B4B1A8067
:10174000274B2A4A1288283A1212D2B21A71244B15
:10175000264A1288D2B2283AD2B25A71214B1B784B
:101760002C331A1C1E4BD218204B1B882C3B1C1CE4
:101770001F4B181C111C221C12F0CCFD194B00220F
:101780001A701C4B1B68181C0CF08CFC031CFB61B2
:1017900019E0FB695B68002B0FD0FB695C68BB69D3
:1017A000D9B2104B1B7838331A1C0D4BD2180F4B83
:1017B0001B882C3B9BB2381DA047FB69181C0CF002
:1017C00015FD031CFB61FB69002BE2D1074B0022D6
:1017D0001A80C046BD4609B090BDC0464C130020DB
:1017E0004413002031F5FF1F6C130020301300203C
:1017F0007013002044F0FF1F80B500AF044B181C8D
:10180000FFF77EFC034B181CFFF77AFCBD4680BD3A
:101810004CF0FF1F58F0FF1F80B582B002AF03F0FD
:101820007DFC1349134A00230093081C111CC0229D
:101830001F2303F0A3FA031E00D0FEE70E480F4952
:10184000C023DA0000230093022303F097FA031E5B
:1018500000D0FEE7E1235B02181C00210EF0AAFC79
:1018600003F01CFA031E00D0FEE7BD4680BDC04653
:1018700069C400005C500100A557000068500100D9
:1018800090B583B000AF1D4B1B683B601B4B1B4AE0
:1018900011683A680A431A6000237B6027E0184BFE
:1018A0007A68D200D3581B0C1A04F0231B069A4204
:1018B0001AD1134B7A68D200D3583A6813401B04EC
:1018C0001B0C11D00E4A7B68DB00D3185B68002B21
:1018D0000AD00B4A7B68DB00D3185C683B680020A9
:1018E000191C00220023A0477B6801337B607B68C2
:1018F000072BD4D9BD4603B090BDC046A09004408C
:10190000B0F4FF1F80B586B000AFF860B9607A60B0
:1019100000237B6112E07B6901229A40131C1A1C90
:10192000BB68134007D0F9687A697B68081C111CF2
:101930001A1C00F045F87B6901337B617B691F2B22
:10194000E9D9BD4606B080BD80B582B000AF7860F1
:101950007B68114A934201D1104B18E07B68104A12
:10196000934201D10F4B12E07B680F4A934201D1A1
:101970000E4B0CE07B680E4A934201D10D4B06E002
:101980007B680D4A934201D10C4B00E00023181CE8
:10199000BD4602B080BDC04600F00F40009004403C
:1019A00040F00F4000A0044080F00F4000B0044021
:1019B000C0F00F4000C0044000F10F4000D00440D0
:1019C00080B584B000AFF860B9607A60FB6814330A
:1019D000FA6814321268B96801208840011CC943B2
:1019E0000A401A60FB681433FA6814321168BA6846
:1019F00078689040021C0A431A60BD4604B080BD5E
:101A000080B586B000AFF860B9607A60FB68181CDA
:101A1000FFF79AFF031C3B6100237B6121E07B6998
:101A2000BA68DA40131C0122134017D07B699A0070
:101A30003B69D3187A6991003A698A1812680C498F
:101A40000A401A607B699A003B69D3187A69910051
:101A50003A698A1811687A680A431A607B69013307
:101A60007B617B691F2BDAD9BD4606B080BDC046BD
:101A7000FFFF00FF80B584B000AF786039607B68FD
:101A8000181CFFF761FF031CBB600023FB6015E01F
:101A9000FB683A68DA40131C012213400BD0FB6844
:101AA0009A00BB68D318FA689100BA688A1812685D
:101AB00005490A401A60FB680133FB60FB681F2B75
:101AC000E6D9BD4604B080BDFFFF00FF80B582B0FF
:101AD00000AF786039607B6804333A681A60BD46AD
:101AE00002B080BD80B582B000AF786039607B689D
:101AF00008333A681A60BD4602B080BD80B586B032
:101B000000AFF860B9607A60FB68181CFFF71CFF33
:101B1000031C3B6100237B6121E07B69BA68DA40EA
:101B2000131C0122134017D07B699A003B69D3181C
:101B30007A6991003A698A18126840218A431A60CA
:101B40007B699A003B69D3187A6991003A698A18CF
:101B500011687A680A431A607B6901337B617B698B
:101B60001F2BDAD9BD4606B080BDC04680B586B011
:101B700000AF78607B681B0B0F2213407B61144B16
:101B80007A699200D3583B617B681B09FF2213409E
:101B90007B617B699B00FB607B680F221340BB600D
:101BA0003A69FB68D3183969FA688A1812680949D2
:101BB0000A401A603A69FB68D3183969FA688A18CA
:101BC0001168BA6812020A431A60BD4606B080BDA9
:101BD00070500100FFF8FFFF80B584B000AF78605F
:101BE000094B1B68002B09D0074B1B687A68101C37
:101BF0009847031CFB60FB68DBB200E00023181C65
:101C0000BD4604B080BDC04624F5FF1F80B582B03C
:101C100000AF7860024B7A681A60BD4602B080BDA2
:101C200024F5FF1F80B500AF054B181C04F028FDFC
:101C3000031E03D0024B181C04F012FDBD4680BDEC
:101C4000F0F4FF1F80B500AF074B9B79062B08D13E
:101C5000054B35229B5C1A1C0223134001D0FFF771
:101C6000E1FFBD4680BDC0464413002080B500AFF3
:101C7000084B1B88002B0AD0FFF7E4FF012001F07E
:101C80006BF9044B1B88002B01D000F035F9BD46E1
:101C900080BDC0463013002080B586B000AFF8602C
:101CA0007A600A23FB180A1C1A80FA680A23FB18B8
:101CB0001B88101C191C00F0EDFC031C7B617B6968
:101CC000002B01D100230AE07B6918333B61064BEE
:101CD0001A683B691A603B697A685A607B69181C0C
:101CE000BD4606B080BDC046C40D002090B587B08B
:101CF00000AF021C3960FB1D1A70FB1D1B78022B04
:101D000000D1C7E006DC002B00D1A7E0012B00D1F9
:101D1000B3E0C2E0872B02D0882B47D0BDE03B6800
:101D2000FB605F4C5F4B00221A7012E06268FB6838
:101D30009A4207D12388181C00F038FD0023238025
:101D4000002363600834574B1B780133DAB2554BDC
:101D50001A70544B1B78022BE8D9534B7B610EE071
:101D60007B699A6AFB689A4206D17B6900229A6273
:101D70007B692522002199547B6930337B617A6924
:101D80004A4B9A42ECD34A4B3B610AE03B699A6961
:101D9000FB689A4202D13B6900221A823B692033D8
:101DA0003B613A69434B9A42F0D376E03A68424B42
:101DB0009A4235D1404B181C04F062FC031E2FD010
:101DC000384B00221A7027E0364B1B78181C364A15
:101DD0002021031C5B001B181B01D3185B185B79C7
:101DE000002B13D0344B181C04F03AFC2D4B1B78FD
:101DF0001A1C131C5B009B181B012B4A9A182F4BB3
:101E00001A60022001F0A8F800F076F8254B1B7844
:101E10000133DAB2234B1A70224B1B78072BD3D92C
:101E20003A68274B9A4209D1254B181C04F028FC2C
:101E3000031E03D000F05CFF00F05EF83A68214B0F
:101E40009A420AD11F4B181C04F01AFC031E04D03E
:101E50000DF026FD00F050F81FE01EE03B68002B5F
:101E60000AD0164B3A681A60032001F075F800F0AA
:101E700043F8FFF7D7FE10E00FE03B68002B08D0D7
:101E8000114B3A681A60052001F066F800F034F84A
:101E900003E002E0FFF7EAFEC046BD4607B090BD92
:101EA00008F5FF1F2AF5FF1F58150020D81600203F
:101EB0000417002044180020F0F4FF1F54150020E0
:101EC000E8160020982400204C15002080B500AFB3
:101ED000064B181C022100220BF098FE044B002236
:101EE0001A80044B00221A70BD4680BD64F0FF1FAB
:101EF0003013002031F5FF1F80B586B000AF0023FE
:101F00003B61694B1B88002B00D1C9E0664B1A88E6
:101F1000A023DB009A4203D9634B00221A80BFE062
:101F2000624B1B88002B1FD1604B5B88002B1BD1A1
:101F30005E4B9B88002B17D15C4BDB88002B13D1A9
:101F40005A4B1B89002B0FD1584B5B89002B0BD1AF
:101F5000564B9B89002B07D1544BDB89002B03D1B7
:101F6000514B00221A809BE0504B1B78FF2B00D175
:101F70008DE000233B614D4B181C0DF087FD031EC7
:101F800002D04A4B7B6138E0484B181CFEF7D0FB6F
:101F9000031CFB60FB68002B12D1454B181C0CF096
:101FA00061F8FEF70DFF031C7B617B69002B24D1D8
:101FB000404B181C0CF056F83B4B00221A806FE087
:101FC000FB68181CFEF772FB031C7B617B69002B0E
:101FD00013D1FB68DB69BB60BB68002B08D0BB6812
:101FE0001B6A7B607B688C229B5C181C07F0E0FFFF
:101FF000FB68181CFEF738FD52E07B69181C0AF0DC
:10200000C7F8031E03D0284B00221A8048E07B69E2
:10201000181C03F0E1FA031C3B613B69002B35D02F
:102020003B69181C03F0C6FA031C181CFFF7D4FD0B
:102030003B692833181C03F03DFC031E22D03B698A
:102040002833181C03F036FC031C1A1C164B1A808C
:102050003B692833181C03F01BFC011C124B1B8826
:102060001A1C154B181C12F04CF93B692833181C2C
:1020700003F0EEFB3B69181C03F09CFA031C181CD0
:10208000FFF7AAFD084B00221A8009E008E00020B3
:10209000FFF7A2FD044B00221A80084B00221A70A1
:1020A000BD4606B080BDC046301300205C13002042
:1020B00094500100CC5001004413002031F5FF1F63
:1020C00080B582B000AF7860044A7B68101C0121A3
:1020D0001A1C0BF047FDBD4602B080BD64F0FF1F27
:1020E00080B582B000AF264B1B68002B04D0244B78
:1020F0001B6828337B6003E0224B1B6818337B602E
:10210000214B1B781A1C4023134027D01F4B3B60E8
:102110001F4B00221A701BE03B681A88184B1B6883
:102120001B8A9A420BD13B685B68002B07D03B6847
:102130005A687B681A607B6800225A600CE03B6832
:1021400008333B60124B1B780133DAB2104B1A7024
:102150000F4B1B78022BDFD9FFF764FD7B681B68F0
:10216000002B0AD07B6819680A4B1A787B685B6879
:10217000081C111C1A1C0BF049FDBD4602B080BDA5
:10218000541500204C1500204415002008F5FF1FB1
:102190002BF5FF1F2813002090B587B000AFF86023
:1021A0007A600B23FB180A1C1A701723FB180122F4
:1021B0001A70FB681B88002B03D0294A934233D046
:1021C00042E0284B00221A700CE0264B1B781A1CA8
:1021D000254BD2000021D152224B1B780133DAB2B9
:1021E000204B1A701F4B1B78022BEED91F4B1A681D
:1021F0001D4B9A610BF0EAFA031C1A1C1C4B1A7057
:102200001C4AFA235B000024101C1A1C231C04F037
:1022100001FA00F085F90CF073FC1723FB1800227B
:102220001A70FB680E4A1A801723FB181B78002BC4
:1022300001D1012310E00B23FB181A787B68101CD6
:10224000191CFFF753FDE8E71723FB1800221A704B
:10225000FB6800221A800323181CBD4607B090BDFE
:102260003A0300002CF5FF1F08F5FF1FC40D0020E6
:1022700028130020F0F4FF1F80B582B000AF786013
:102280000A1CBB1C1A807B6803331A78BB1C1B8892
:10229000DBB2D318DAB22A4BDA707B6802331A78D1
:1022A000BB1C1B881B0A9BB2DBB2D318DAB2244BCF
:1022B0009A707B685A78224B5A707B681A78204B48
:1022C0001A701F4B9B789AB2BB1C1B881B0A9BB2CF
:1022D0009A420FD21A4B5B780133DAB2184B5A701C
:1022E000174B5B78002B05D1154B1B780133DAB205
:1022F000134B1A70124BDB78191CBB1C1B88FF2276
:102300001340994219DA0E4B9B780133DAB20C4B29
:102310009A700B4B9B78002B0FD1094B5B780133E4
:10232000DAB2074B5A70064B5B78002B05D1044B91
:102330001B780133DAB2024B1A70BD4602B080BD81
:102340003813002080B586B000AF3960111CBB1D6A
:10235000021C1A803B1D0A1C1A803B687B613B1DD6
:102360001B88013B3A68D3183B6123E07B691B78EB
:102370009BB21B0299B27B6901331B789AB20E2380
:10238000FB188A181A80BB1DB91D0E22BA180988BD
:1023900012888A181A80BA1D0E23FB1812881B880F
:1023A0009A4204D2BB1D1A88BB1D01321A807B6978
:1023B00002337B617A693B699A42D7D37A693B6978
:1023C0009A421AD17B691B789AB20E23FB1812022B
:1023D0001A80BB1DB91D0E22BA18098812888A18E6
:1023E0001A80BA1D0E23FB1812881B889A4204D249
:1023F000BB1D1A88BB1D01321A80BB1D1B88181C0F
:10240000BD4606B080BDC04690B585B000AF021C89
:10241000FB1D1A702E4B1B799BB21B029AB22C4BE0
:102420005B799BB2D3189AB22A4B1B789BB2D31A12
:102430009AB20C23FB181A800C23FB181B889BB242
:10244000191C244B1B782833234A101C1A1C0BF030
:1024500009FEFB1D1B7899B20C23FB181B889AB24E
:102460000E23FB188A181A800E23FC180E23FB1863
:102470001A881A4B101C191C2022FFF763FF031C3B
:102480002380144B1B7828331A1C114BD1180C23B2
:10249000FB181B889AB20E23FC180E23FB181B880E
:1024A000181CFFF74FFF031C23800E23FB181B880B
:1024B000002B07D00E23FB181B88181C02F084F990
:1024C000031C00E0064B181CBD4605B090BDC0467D
:1024D0004413002031F5FF1F205101004C13002050
:1024E000FFFF000080B500AF3A20FFF78DFF031C0F
:1024F000181CBD4680BDC04680B500AF0620FFF762
:1025000083FF031C181CBD4680BDC04680B500AFCC
:102510001120FFF779FF031C181CBD4680BDC04683
:1025200080B500AF0DF0F8F8FFF766F905F0C4F9D3
:10253000254B00221A700CE0234B1B781A1C234BEE
:1025400052000021D152204B1B780133DAB21E4BCE
:102550001A701D4B1B78022BEED91B4B00221A70F0
:1025600012E0194B1B78181C194A2021031C5B0030
:102570001B181B01D3185B1800225A71124B1B78D1
:102580000133DAB2104B1A700F4B1B78072BE8D9C6
:10259000104B8022D2001A800B4B00221A700DE0E3
:1025A000094B1B780C4A5B01D318103300221A80A8
:1025B000054B1B780133DAB2034B1A70024B1B78C0
:1025C000092BEDD9BD4680BD33F5FF1FDC16002079
:1025D0005815002034F5FF1F0417002080B500AF08
:1025E000264B1B78002B47D0244B1B78191C244BFF
:1025F0001B881A1C234B181C0BF034FD204B1B8826
:102600001A1C1E4B1B7828339A420ADA1E4B181CE0
:102610000BF028FD194B00221A70194B00221A806A
:102620002AE0164B1B7828331A1C184BD118144B70
:102630001B88283B114A12789B1A1A1C144B181C31
:1026400011F068FE0E4B1A880C4B1B789BB2D31A04
:102650009AB20B4B1A800D4B094A1288283A121273
:10266000D2B21A71094B064A1288D2B2283AD2B2B3
:102670005A71024B00221A70BD4680BD31F5FF1F12
:1026800030130020485101008851010044130020FC
:102690006C13002090B583B000AF78600A1CBB1C9F
:1026A0001A803D4B1B8801339AB23B4B1A803A4B40
:1026B0001B883A4A934203D9374B802252011A8031
:1026C000374B00221A7015E0354B1B78354A5B01F9
:1026D000D31810331C88304B1B88181C02F074F878
:1026E000031C9C4200D1DCE72D4B1B780133DAB28E
:1026F0002B4B1A702A4B1B78092BE5D90024284B49
:1027000000221A7014E0264B1B78264A5B01D3186E
:1027100010331B88002B05D1214B1B785A01214B0C
:10272000D41809E01E4B1B780133DAB21C4B1A7027
:102730001B4B1B78092BE6D9002C01D1002326E086
:10274000154B1B881B029AB2134B1B881B0A9BB2AA
:102750009BB213439BB29BB22382BB1C1B88638238
:102760007B68002B06D1231C181C0021102211F0BD
:10277000E5FD08E07B68211C1A1C1023081C111CB5
:102780001A1C11F0BEFD084B1B792375231C181C65
:10279000BD4603B090BDC04634F5FF1FFF7C00006E
:1027A00033F5FF1F041700200823002080B582B0F6
:1027B00000AF021CBB1D1A80114B00221A7017E0DB
:1027C0000F4B1B781A1C0F4B5200D35ABA1D12889C
:1027D0009A4207D10A4B1B781A1C0A4B520000215F
:1027E000D15209E0064B1B780133DAB2044B1A7060
:1027F000034B1B78022BE3D9BD4602B080BDC04617
:1028000033F5FF1FDC16002090B583B000AF3B1DF1
:1028100000221A80BB4B1B78002B2BD1BA4B181C03
:102820000BF020FCB94B1B7828331C1CB84AB94B61
:10283000101C191C221C11F064FDB74AB74B002470
:10284000101C1A1C231C03F0E5FEAE4B01221A706B
:10285000B34B00221A70AD4B1B7828331A1CAD4BBA
:10286000D3185A68AF4B1A60AF4B181C00210822CE
:1028700011F064FDAD4AAE4B101C191C102211F072
:1028800031FD031E00D014E2AA4AAB4B101C191CE8
:10289000102211F027FD031E00D00AE29B4B1B788B
:1028A00028331A1C9B4BD3185A689E4B1B689A42BC
:1028B00000D0FEE1A14B1A88944B1B789BB2D31A2F
:1028C0009AB2BB1C303A1A80904B1B7828331A1CE2
:1028D000904BD3185B88181C01F076FF031C191C61
:1028E0003B1D072291430A1C1A80BB1C1B88944A7B
:1028F000101C191C0BF0B6FB3B1D1B88914A101CC9
:10290000191C0BF0AFFB3B1D1B88002B2BD1844BFC
:102910001B7802221343DAB2814B1A708A4B1B6870
:102920007A4A12782832111C7A4A8A1812781A7058
:10293000764B1B7828331C1C754A764B101C191CCF
:10294000221C11F0DEFC814B181C0BF08BFB804B22
:10295000181C0BF087FB6F4B9B791A1C7D4B181CC6
:10296000111C0BF07FFB3B1D1A8880239B009A42B1
:1029700008D83B1D1A88BB1C1B88D21880239B00DB
:102980009A4208DD5F4B00221A70634B181C03F05B
:10299000B5FE002392E15D4B1B7828331A1C5D4B7A
:1029A000D3185B88181C01F00FFF031C1A1C0123AD
:1029B000134017D15A4B1B7801221343DAB2584BFC
:1029C0001A703A1DBB1C12881B88D3189AB2624B2E
:1029D0001A80614B1B881A1C604B181C111C0BF0D1
:1029E00041FB1CE0BB1C1B88072213409BB2002B41
:1029F00015D0042000210422FEF78AFC484B1B78E6
:102A000004221343DAB2464B1A703E4B00221A706E
:102A1000414B181C03F072FE484B1B884EE13B4BA8
:102A20001B781A1C3B1D1B88D31828331A1C384BE3
:102A3000D118364B1B7830331A1C364BD218BB1CBE
:102A40001B88081C111C1A1C11F05BFC3B1D1B8809
:102A50009B099BB2191C3B1D1A88BB1C1B88D318F1
:102A60009B1199422DD13B1D1B889B099BB2191CC0
:102A70003B1D1B889B099BB21A1C2B4B9B5CD8B23D
:102A80003B1D1B88DB089BB21A1C07231340344AEA
:102A9000D35CDCB23B1D1A88BB1C1B88D318DB102F
:102AA000072213402E4AD35CDBB2DB43DAB2231C8D
:102AB0001340DBB2021C1343DBB2DAB21A4B5A5496
:102AC00086E03B1D1B889B099BB2181C3B1D1B8885
:102AD0009B099BB21A1C144B9A5C3B1D1B88DB089C
:102AE0009BB2191C07230B401D49CB5C1343DAB280
:102AF0000D4B1A543B1D1B889B099AB2BB1D01321A
:102B00001A8039E0D8160020C051010031F5FF1FAE
:102B100040F5FF1F44130020E816002060EA000083
:102B20004AF7FF1F4CF7FF1F40F7FF1F48F5FF1F35
:102B30004C13002058F5FF1F5C13002030130020B9
:102B4000D8510100E051010048150020EC5101006E
:102B5000F4510100FC51010048F7FF1F0852010029
:102B6000B8510100BB1D1B88564AFF21D154BB1D23
:102B7000BA1D128801321A80BB1D1A883B1D1988A4
:102B8000BB1C1B88CB189B119A42EBDB3B1D1A88A0
:102B9000BB1C1B88D3189B113A1D1188BA1C1288C4
:102BA0008A18921147498A5CD0B23A1D1188BA1C22
:102BB00012888A18D21007210A4043498A5CD2B28F
:102BC000D243D2B2011C0A43D2B2D1B23D4AD1544F
:102BD0003E4B1B781A1C0123134069D0BB1D0022F9
:102BE0001A800CE0BB1D1B88364AD35CFF2B01D03A
:102BF000002363E0BB1DBA1D128801321A80344BDA
:102C00001B889B099BB2BA1D12889A42EAD3304BAB
:102C10001B889B099BB21A1C2A4B9A5C2C4B1B8865
:102C2000DB089BB2191C07230B402749CB5CDB4315
:102C3000DBB29A4201D0002340E0264B00221A70FA
:102C4000254B181C03F05AFD244B1B789AB2204BDD
:102C50001B88D3189BB228339AB21D4B1A801C4B89
:102C60001B881C1C1E4A1F4B101C191C221C11F017
:102C700048FB1B4B164A1288283A1212D2B21A711C
:102C8000174B134A1288D2B2283AD2B25A71104B5B
:102C90001B88191C124B1B791B02114A52791343D2
:102CA000114A101C1A1C0BF0DDF9094B1B8805E0BA
:102CB00003E00E4B181C0BF0D5F90023181CBD4681
:102CC00003B090BD40F7FF1FB85101004AF7FF1F46
:102CD00048F7FF1FD8160020E816002031F5FF1F27
:102CE0004413002040F5FF1F245201004052010010
:102CF00080B500AF134B00221A70134B181C03F061
:102D0000FDFC124B1B781A1C0223134018D0104BE9
:102D1000181C0BF0A7F90F4B00221A800E4B002253
:102D20001A700E4A0E4B101C191C282211F0E9FAD9
:102D3000032001210022FEF7EBFA0A4B00221A7051
:102D4000BD4680BDD8160020E81600204AF7FF1FB8
:102D5000685201003013002031F5FF1F441300209A
:102D600040F5FF1F4415002080B582B000AF021C63
:102D7000BB1D1A80104B1B6814331A1CBB1D1B880B
:102D8000101C191CFFF778FA0B4B1B680B4A1278C2
:102D90001A75094B1B68094A52785A75064B1B680D
:102DA000064A92789A75044B1B68044AD278DA7501
:102DB000BD4602B080BDC046541500203813002027
:102DC00080B500AF5B4B02221A709FE05A4B1B7814
:102DD0002833584A12789A18584BD3181B78012B6D
:102DE0000ED0632B22D0002B44D1554B181C0BF076
:102DF00039F9504B1B780133DAB24E4B1A7085E02B
:102E0000504B181C0BF02EF94B4B1B782833494ABA
:102E100012789A18494BD3185A78464B1B78D31816
:102E2000DBB20233DAB2434B1A706FE0464B181C28
:102E30000BF018F93F4B1B78181C08F047FE031ED7
:102E400005D0424B181C0BF00DF901236EE03A4BF4
:102E50001B782833374A12789A18384BD3185A7887
:102E6000344B1B78D318DBB20233DAB2314B1A7011
:102E700000235BE0304B1B7828332E4A12789A18D7
:102E80002E4BD3181B781A1C314B181C111C0BF03D
:102E9000E9F8294B1B782833264A12789A18274BD1
:102EA000D3181B781A1CC0231340402B05D01ADD01
:102EB000802B0AD0C02B02D016E0012336E0254B30
:102EC0001B78FF2B01D1012330E01B4B1B781A1C10
:102ED000184B1B78D3182833042002211A1CFEF744
:102EE00017FA022322E0C046134B1B782833114AFD
:102EF00012789A18114BD3185A780E4B1B78D318A6
:102F0000DBB20233DAB20B4B1A70C046094B1B78A6
:102F1000191C094B1B7828331A1C084BD3185B78F3
:102F2000DB000833994200DA50E70023181CBD4645
:102F300080BDC04632F5FF1F31F5FF1F441300204E
:102F4000845201009C520100B4520100CC52010095
:102F5000F05201005C13002090B585B000AF021C58
:102F6000FB1D1A70C04B1C68FB1D1B78042B01D184
:102F700000F0C6FCBD4BBE4A1A60BC4B1A68BD4B84
:102F80001A60FB1D1B78032B1ED12523E35C1A1C42
:102F90000F231340032B09D1A38B002B06D1B64B73
:102FA00008221A70FFF79CF801F048FA2523E35C29
:102FB0001A1C0F231340022B04D1B04B00225A736A
:102FC00000F081FF01F0D3FBFB1D1B78022B00D02A
:102FD000A8E0AB4B00221A80AA4B00221A80AA4B11
:102FE000DB780133DAB2A84BDA70A74BDB78002B21
:102FF00019D1A54B9B780133DAB2A34B9A70A24B3F
:103000009B78002B0FD1A04B5B780133DAB29E4B3B
:103010005A709D4B5B78002B05D19B4B1B7801337D
:10302000DAB2994B1A702523E35C072B03D02523D2
:10303000E35C052B0ED12623E35C0133DAB22623B1
:10304000E2542623E35C782B03D125230022E254AB
:1030500066E065E02523E35C002B61D0A38B002BA9
:1030600050D02623E35C5A1ED1B22622A154002B55
:1030700056D12723E35C082B0BD02523E35C022BDE
:1030800003D02523E35C012B10D12723E35C052B20
:103090000CD125230022E254774B80221A70FFF7CF
:1030A0001FF8764B14225A7301F0C0FA2723E35C11
:1030B000042B06D82723E35C1A1C03239340DBB2BE
:1030C00000E030232622A3542723E35C0133DAB245
:1030D0002723E2542523E35C1A1C0F231340082BFB
:1030E0001ED89A00694BD3181B689F46634B002279
:1030F0005A7300F0E8FE604B04221A70FEF7F0FFEE
:1031000001F0E2F92523E35C1A1C0F231340032B83
:1031100006D1594B08221A70FEF7E2FF01F08EF932
:1031200001F025FBFB1D1B78052B1ED1584B1B689E
:103130001B8A002B17D04C4B00221A604B4B554A70
:103140001A604A4B1A684B4B1A604E4B00221A8089
:103150004C4B1A884A4B1A80474B08221A70FEF7CC
:10316000BFFF00F0CDFB01F002FB4B4B1B781A1C9C
:10317000F0231340602B01D001F0F9FA464B1B7984
:103180001B02454A52799B183D4A128893421EDC25
:10319000414B1B799BB21B029AB23F4B5B799BB2AE
:1031A000D3189BB228339AB2354B1A803B4B181C6C
:1031B0000AF058FF3A4B181C0AF054FF394B181C00
:1031C0000AF050FF384B1B78FF2B08D101E001F0CB
:1031D000CEFA364B181C0AF045FF01F0C8FA344B02
:1031E000344A1A60344B00221A70344B00221A7091
:1031F0002F4B1B681B78002B66D1304B1B780122AC
:103200001343DAB22D4B1A70FFF7DAFD031E012BC0
:103210001ED0022B22D0002B56D1274B1B782833EF
:103220001A1C1D4BD3181A1C214B1A60224B1B78F9
:1032300028331A1C184BD3185B78DB00DAB21E4B0C
:103240001B78D318DBB20833DAB21B4B1A703BE0A1
:103250001B4B181C0AF006FF01F089FA194B181CC9
:103260000AF000FF01F06AFA541500205015002002
:103270008013002034130020441500206C1300201C
:10328000301300200017002038F5FF1FA45601005E
:103290004C1500207413002044130020F852010044
:1032A000145301001C5301004C1300202053010053
:1032B000481500204A13002031F5FF1F30F5FF1F8D
:1032C0004053010074530100B24B181C0CF0D0FCA9
:1032D000031E00D0FEE0AF4B181C0CF061FD031E76
:1032E00000D0F7E0AB4B1B78FF2B00D189E0A94B56
:1032F0001B78FE2B04D1A74B5B78802B00D180E09C
:10330000A54B1B78FE2B04D1A34B5B78802B00D1FF
:1033100077E0A14B1B88002B1BD19F4B5B88002BB8
:1033200017D19D4B9B88002B13D19B4BDB88002B27
:103330000FD1994B1B89002B0BD1974B5B89002B2D
:1033400007D1954B9B89002B03D1934BDB89002B35
:1033500057D0904B1B88002B1FD18E4B5B88002BC6
:103360001BD18C4B9B88002B17D18A4BDB88002B01
:1033700013D1884B1B89002B0FD1864B5B89002B07
:103380000BD1844B9B89002B07D1824B9B7B002B5D
:1033900003D1804BDB7B012B33D0804B1A88A023D9
:1033A000DB009A4208D9A023DB00022000211A1C6E
:1033B000FDF7AEFF01F0C2F9794BDB79012B06D89E
:1033C000032000210022FDF7A3FF01F0B7F908F068
:1033D0006FFD031E05D0734B181C0AF043FE01F06D
:1033E000C6F96F4B6E4AD279013AD2B2DA716E4B9E
:1033F000181C0AF037FE6D4B181C0AF033FE01F062
:103400009DF9654B1B78FE2B00D05DE0624B5B782D
:10341000802B00D058E0604B1B88002B1BD15E4BEB
:103420005B88002B17D15C4B9B88002B13D15A4B28
:10343000DB88002B0FD1584B1B89002B0BD1564B2F
:103440005B89002B07D1544B9B89002B03D1524B36
:10345000DB89002B38D04F4B1B88002B1FD14D4BE5
:103460005B88002B1BD14B4B9B88002B17D1494B02
:10347000DB88002B13D1474B1B89002B0FD1454B09
:103480005B89002B0BD1434B9B89002B07D1414B10
:103490009B7B002B03D13F4BDB7B012B14D03D4B9F
:1034A0001B78FF2B10D03B4B181C0CF0EFFA031EBF
:1034B0000AD13F4B181C0AF0D5FD01200221002241
:1034C000FDF726FF01F03AF93A4B181C0AF0CAFD45
:1034D00001F04DF9384B1B681B783C2B00D90FE1EC
:1034E0009A00364BD3181B689F46354B181C0AF0C0
:1034F000B9FD344B1B781A1C0123134000D000E1A6
:10350000304B1B7801221343DAB22E4B1A70FFF7AF
:1035100057FC031E012B01D101F024F9022B01D12C
:1035200001F009F9002B00D0E9E0274B1B78283384
:103530001A1C1B4BD3181A1C1F4B1A60224B1B78EA
:1035400028331A1C164BD3185B78DB00DAB21E4BFB
:103550001B78D318DBB20833DAB21B4B1A70C046A3
:10356000CDE01A4B181C0AF07DFD164B1B781A1C77
:10357000022313402CD0134B1B781A1C40231340FA
:1035800000D0BEE00F4B1B7840221343DAB20D4B44
:103590001A7024E05C1300204C130020301300202C
:1035A00044130020B0530100CC5301001C53010010
:1035B000E45301001C54010048150020C8560100C6
:1035C0005854010030F5FF1F31F5FF1F7054010002
:1035D000D04B1B7802221343DAB2CE4B1A70FFF79E
:1035E000EFFB031E012B01D101F0BEF8022B01D12C
:1035F00001F0A3F8002B00D081E0C74B1B782833E3
:103600001A1CC64BD3181A1CC54B1A60C24B1B7828
:1036100028331A1CC14BD3185B78DB00DAB2BE4BDF
:103620001B78D318DBB20833DAB2BB4B1A70C04632
:1036300065E0B84B1B781A1C0423134000D060E0EF
:10364000B44B1B7804221343DAB2B24B1A70B54B59
:10365000181C0AF007FDB04B1B7828331A1CAF4B1F
:10366000D318DB78002B09D0AB4B1B782A3304200E
:1036700000211A1CFDF74CFE01F060F8A64B1B78E8
:1036800028331A1CA54BD3181A1CA54B1A60A24B41
:103690001B7828331A1CA14BD3185B78DB00DAB2F5
:1036A0009D4B1B78D318DBB20833DAB29A4B1A70F1
:1036B00025E09D4B181C0AF0D5FCFFF7A5F8031C6C
:1036C0001A1C9A4B1A80994B1B88002B01D101F0D0
:1036D0004EF8974B1B781A1C0423134001D001F0BD
:1036E0002DF8944B181C0AF0BDFC8B4B00221A706D
:1036F000884B00221A708A4B8F4A1A60C046E9E64E
:10370000C046874B1B681A1C844BD31A0420012126
:103710001A1CFDF7FDFD01F011F8C046834B1B8814
:10372000191C7D4B1B7828331A1C7C4BD3181B7833
:103730001A1C824B181C0AF095FCFEF7D3FE031CE2
:103740001A1E7F4B9A4205D07E4B181C0AF08AFC49
:1037500001F00DF8704B1B7828331A1C6F4BD318EF
:1037600019786D4B1B7828331A1C6C4BD3185B7877
:10377000081C191CFDF79EFC031E012B0FD1664B84
:103780001B7828331A1C654BD3181B781A1C6E4BF8
:10379000181C111C0AF066FC644B00221A80634B53
:1037A0001B88002B01D000F0C9FF00F0E0FFC046ED
:1037B000FEF714FF654B181C0AF054FC5B4B1B888A
:1037C000303B9AB2594B1A80614B624A1A60624B85
:1037D000DB88002B14D0FEF799FE031C1A1E584BF1
:1037E0009A420DD05C4BDB881C1CFEF78FFE031C3D
:1037F0001A1C5A4B181C211C0AF034FC00F0B7FFAD
:10380000554B5B88002B05D1554B181C0AF02AFC40
:1038100000F0ADFF534B544A1A6050E0514B1B6807
:103820001B8A002B45D04C4B5A884E4B1B681B8A79
:103830009A423ED14B4B1B685B8A002B06D0464B0D
:103840001A88484B1B685B8A9A4232D1454B1B68E9
:103850001B88002B22D1434B1B685B88002B1DD19A
:10386000404B1B689B88002B18D13E4B1B68DB88A4
:10387000002B13D13B4B1B681B89002B0ED1394BFE
:103880001B685B89002B09D1364B1B689B89002B79
:1038900004D1344B1B68DB89002B1BD0314B1B68D8
:1038A0001A1C324B181C111C102210F01BFD031E99
:1038B00010D02C4B1B6820331A1C2A4B1A60294B42
:1038C0001A682B4B9A42A9D32A4B181C0AF0CAFB40
:1038D00000F04DFF284B181C0AF0C4FB274B0022B8
:1038E0001A60274B02221A70194B1A4A1A60184B99
:1038F0001A68244B1A60244B00221A80FEF7F0FB52
:10390000224B181C0AF0AEFB1F4B1B88002B3FD12B
:1039100000F02DFF30F5FF1F31F5FF1F441300208D
:10392000481500208C540100A854010030130020D9
:103930004AF7FF1FC05401004A130020E054010061
:10394000FFFF0000045501001C5501004455010013
:1039500050150020741300206C1300205C550100EA
:10396000805501004C150020041700204C13002046
:103970004418002094550100B8550100541500204A
:10398000441500203413002000170020C855010002
:10399000C04B1B8830339AB2BF4B1A80BF4BBE4A14
:1039A0001288283A1212D2B21A71BC4BBA4A128843
:1039B000D2B2283AD2B25A71B84AB94B1B681B7DB1
:1039C000D371B64B11229A71B64BB24A12880832A3
:1039D00092B2120291B2AF4A1288083292B2120A1F
:1039E00092B292B20A4392B292B29A80AD4B002246
:1039F000DA80AC4AAA4B1B681B8A1380A94AA84BE1
:103A00001B685B8A5380A84AA54B1B68111C1A1CB3
:103A10001023081C111C1A1C10F073FCA34AA24BA3
:103A2000101C191C0CF0DAF9A14BA24A1A609D4C2B
:103A3000FEF76CFD031CDB439BB2E380994BDB88F4
:103A4000002B03D1974B01225242DA8008F0FAFC96
:103A500000F067FEC046FEF7C1FD974B181C0AF048
:103A600001FBFEF749FD031C1A1E944B9A420DD030
:103A70008C4B1B8A1C1CFEF73FFD031C1A1C904B31
:103A8000181C211C0AF0EEFA00F071FE854B5B88D1
:103A9000002B03D0834B1B88002B05D1894B181CAE
:103AA0000AF0E0FA00F063FE874C29E02523E35C8E
:103AB000002B24D07B4B5A88238A9A421FD1794B02
:103AC0001A88638A9A421AD1221C784B181C111C3E
:103AD000102210F007FC031E11D1C0467B4B181CAE
:103AE0000AF0C0FA7A4B1C607A4B00221A706D4BB8
:103AF0005B7B1A1C0423134000D109E2FEE1303441
:103B0000754B9C42D2D9674B5B7B1A1C3F231340F9
:103B1000022B00D025E0634B5A88704B1A80704B03
:103B200000221A7019E06E4B1B781A1C6D4B520064
:103B3000D25A6A4B1B889A4209D1C0466A4B181C5C
:103B40000AF090FA0024664B00221A70FFE0644BE2
:103B50001B780133DAB2624B1A70614B1B78022B6F
:103B6000E1D9624B181C0AF07DFA4E4B5B7B1A1CA4
:103B70000423134001D000F0FAFD4A4B14225A737B
:103B8000454B3C221A80474B50221A73454BDA7939
:103B9000534B1A70434B434AD27ADA71414B504A25
:103BA0001278DA723F4B9A794D4B1A703D4B3D4A71
:103BB000927A9A713B4B4A4A12789A72394B5A79E7
:103BC000474B1A70374B374A527A5A71354B444A31
:103BD00012785A72334B1A79414B1A70314B314A71
:103BE000127A1A712F4B3E4A12781A722D4BDA7ADA
:103BF0000132D2B2DA72DB7A002B14D1294B9A7AD5
:103C00000132D2B29A729B7A002B0CD1254B5A7A90
:103C10000132D2B25A725B7A002B04D1214B1A7A4C
:103C20000132D2B21A721F4B1A882C4B1A801D4BCC
:103C30001C4A52881A801B4B284A12885A801A4AFA
:103C40001A4B111C1A1C1023081C111C1A1C10F0F2
:103C500058FB164A144B101C191C0CF0BFF800F04E
:103C60003BFD1F4B1B78181C174A2021031C5B00CF
:103C70001B181B01D3185B185B79002B38D1184B2C
:103C80001B781A1C131C5B009B181B010E4A9C1806
:103C900061E0C046001700203013002044130020CC
:103CA0004C1500206C1300205C1300204C130020E6
:103CB0005015002080130020D8550100FFFF0000A0
:103CC000F05501001456010058150020445601001B
:103CD0005415002044150020A81600203EF5FF1FB3
:103CE00033F5FF1FDC16002030560100245601007A
:103CF000B94B1B78181CB94A2021031C5B001B1808
:103D00001B01D3185B185B79072B1AD1002C0FD03D
:103D1000B14B1B78181CB14A2021031C5B001B18F7
:103D20001B01D3185B189A792623E35C9A4208D9C1
:103D3000A94B1B781A1C131C5B009B181B01A74A7C
:103D40009C18A54B1B780133DAB2A34B1A70A24B17
:103D50001B78072B85D9002C01D100F008FDA04B62
:103D60001C6026230322E2542623E25C2423E2542F
:103D700022230022E25423230422E2542723002298
:103D8000E254984B5B882382964B1B886382964B48
:103D9000211C1A1C1023081C111C1A1C10F0B1FA4B
:103DA00025230122E254914B1B7823768F4B5B78BD
:103DB00063768E4B9B78A3768C4BDB78E37601237E
:103DC000A383884BDB79E375864B9B79A375854B81
:103DD0005B796375834B1B7923750120FEF7C4FF64
:103DE000804B1B7B1A1CF0231340502B68DD7A4B51
:103DF00000221A7057E0784B1B783C337C4AD25C27
:103E00007C4B1A707B4B1B78002B00D158E0794B10
:103E10001B78012B06D1704B1B780133DAB26E4B45
:103E20001A7040E0734B1B78022B29D16A4B1B7828
:103E30003D336F4AD35C042B22D1674B1B783E3352
:103E40006B4AD35C1B0299B2634B1B783F33684AC1
:103E5000D35C9BB20A1C13439BB29AB2664B1A8086
:103E6000654B1B88191C8AB2E2235B009A4202D977
:103E7000E2235B00191C8BB2E383E38B23841FE0F6
:103E8000554B1B783D335A4AD35C002B00D117E0C9
:103E9000514B1B783D33564AD25C4F4B1B78D3189D
:103EA000DAB24D4B1A704C4B1B781A1C4D4B1B7BD6
:103EB0001B09DBB2053B9B009A429CDB00E0C0463D
:103EC000484B10225A73474B464A527B02210A4301
:103ED000D2B25A73434B02221A75424B04225A75CE
:103EE000404B01229A753F4BC422DA75434B402266
:103EF0001A803C4B60221A7300F09EFB252300229F
:103F0000E2543F4B20221A70FEF7EAF800F02FFC33
:103F1000344B1B7B1B09DBB29B00DAB22E4B1A70B1
:103F2000364B1A882C4B1B789BB2D31A9BB2283B7A
:103F30009AB2324B1A802523E35C1A1C0F231340DC
:103F4000022B06D1274B5B7B1A1C3F231340122BFD
:103F500058D02523E35C1A1C0F231340012B06D1F4
:103F6000204B5B7B1A1C3F231340022B4AD0234B70
:103F70001B88002B05D11B4B5B7B1A1C03231340B2
:103F800040D0184B1A79237D9A420ED1154B5A799D
:103F9000637D9A4209D1134B9A79A37D9A4204D149
:103FA000104BDA79E37D9A422CD00E4B5B7B1A1CC6
:103FB000022313400FD02523E35C1A1C0F23134068
:103FC000012B00D17CE72523E35C1A1C0F2313404F
:103FD000022B00D177E726E333F5FF1F58150020A9
:103FE000541500206C1300204C13002038F5FF1FDF
:103FF000441300203CF5FF1F3EF5FF1F3013002047
:1040000044150020D34B5B7B1A1C1023134000D1B6
:1040100085E0A38B002B00D181E0221C1832A38BFA
:10402000101C191CFEF728F9CA4B1A7ACA4B1B78C8
:104030009A4274D1C74B5A7AC74B5B789A426ED179
:10404000C44B9A7AC44B9B789A4268D1C14BDA7AB6
:10405000C14BDB789A4262D1BF4B1B782376BE4BB3
:104060005B786376BC4B9B78A376BB4BDB78E376BF
:104070002723E35C002B49D12423E25C2623E35C65
:10408000D31ADAB20F23FB181A700F23FB181A7811
:104090002223E35CDB08DBB2D31ADAB20F23FB186E
:1040A0001A702223E25C0F23FB181B78D318DAB2B4
:1040B0002223E2540F23FB181B787F2B07D90F23F1
:1040C000FB181B785B42DAB20F23FB181A700F2320
:1040D000FB181A782323E35C9B08DBB2D31ADAB20D
:1040E0000F23FB181A702323E25C0F23FB181B78A5
:1040F000D318DAB22323E2542223E35CDB08DAB2DA
:104100002323E35CD318DAB22423E254934B012235
:104110001A702423E25C2623E2540023A383252380
:10412000E35C1A1C0F231340082B00D91EE39A00EE
:104130008B4BD3181B689F46884B1B781A1C012396
:1041400013401DD025230322E254844B40221A70D1
:104150000023A383834B1B88002B0BD07F4B1B7842
:1041600002221343DAB27D4B1A707E4B1B88181C57
:10417000FEF7FAFD7C4B00221A80FDF7B1FF5DE1EE
:10418000744B5B7B1A1C3F231340022B00D197E634
:10419000EDE2724B1B781A1C0123134000D195E00D
:1041A0006C4B5B7B1A1C3F231340122B00D08DE01D
:1041B000684B1B7B1A1CF0231340502B66DD6B4BA6
:1041C00000221A7057E0694B1B783C33684AD25C76
:1041D000684B1A70674B1B78002B00D156E0654B7B
:1041E0001B78012B06D1614B1B780133DAB25F4B90
:1041F0001A7040E05F4B1B78022B29D15B4B1B7878
:104200003D335B4AD35C042B22D1584B1B783E33A1
:10421000574AD35C1B0299B2544B1B783F33544A24
:10422000D35C9BB20A1C13439BB29AB2524B1A80C6
:10423000514B1B88191C8AB2E2235B009A4202D9B7
:10424000E2235B00191C8BB2E383E38B23841DE024
:10425000464B1B783D33464AD35C002B00D115E01A
:10426000424B1B783D33424AD25C404B1B78D318FB
:10427000DAB23E4B1A703D4B1B781A1C354B1B7B38
:104280001B09DBB2053B9B009A429CDB25230322E2
:10429000E254304B1B7923752E4B5B7963752D4BA4
:1042A0009B79A3752B4BDB79E3750120FEF75CFD51
:1042B0002A4B42221A700023A3832A4B00221A8021
:1042C000294B00221A80FDF70BFFB7E0234B202279
:1042D0001A70FDF705FF294B1B6825220021995410
:1042E0003FE41C4B5B7B1A1C0123134048D0252361
:1042F000E35C1A1C1023134042D1A38B002B00D087
:1043000035E2184B1B8801339BB2181CFEF72CFDBD
:10431000124B1B7810221343DAB2104B1A70114B58
:104320001B88002B06D00D4B1B7802221343DAB2F8
:104330000A4B1A70FDF7D4FE0123A383252308221C
:10434000E25427230022E25400E0C046014B112230
:104350005A736BE16C1300203813002044150020C1
:10436000BC570100301300200017002033F5FF1F59
:10437000441300203CF5FF1F3EF5FF1F541500209D
:10438000A14B5B7B1A1C202313401AD09F4B1B6848
:104390009D4A927C12029C49C97C0A439A189B4B05
:1043A0001A609B4B1A88984B9B7C1B0299B2964BC8
:1043B000DB7C9BB20B439BB29BB2D31A9AB2944B59
:1043C0001A80934B1B88002B11D02523E35C1A1C09
:1043D000102313400BD18F4B1B7802221343DAB208
:1043E0008C4B1A708A4B1B88181CFEF7BDFC864B41
:1043F0009B7B9BB21B029AB2834BDB7B9BB2D31895
:104400009AB2854B1A80228C834B1B889A4203D325
:10441000814B1B88002B02D1228C7F4B1A807E4B54
:104420001B88E3837B4B1B781A1C0323134000D1AA
:104430006BE07A4B00221A80FDF752FE754B1B7819
:104440001A1C2023134009D0744B00221A80252304
:104450000022E2546C4B14225A73E7E06D4B1B7838
:104460001A1C102313400ED06C4B00221A8001231B
:10447000A38325230422E25427230022E254624B23
:1044800011225A73D2E0654B1B88002B19D0614B67
:104490001B781A1C0123134001D00023A383A38B94
:1044A000002B0BD1E28B5D4B1B889A4202D2E28B30
:1044B0005A4B1A80594B1B88A38302E0A28B574B9F
:1044C0001A8027230022E254554B1A684F4B1A607A
:1044D000524B1B88002B0BD0A38B002B08D0A38B37
:1044E0003C339AB24A4B1A80474B18225A73A0E0C9
:1044F000484B1B781A1C0223134006D0444B3C2225
:104500001A80414B10225A7393E030E1414B1B78E3
:104510001A1C0123134008D025230022E2543D4BEE
:1045200010221A70FDF7DCFD6DE06CE0384B1B8843
:10453000002B04D0364B1B88181CFEF715FC324BA1
:104540005B7B1A1C012313401AD0324B1B781A1CB8
:104550000123134008D025230722E25426230022FA
:10456000E2540023A38302E025230622E254012023
:10457000FEF7FAFB274B10221A70FDF7B1FD52E04F
:10458000244B1B781A1C0123134005D02523052238
:10459000E2540023A383EAE01D4B1B88002B00D0CC
:1045A00041E0E4E01A4B1B88002B04D0184B1B8819
:1045B000181CFEF7D9FB144B5B7B1A1C012313401C
:1045C0000ED025230722E25426230022E2540120A4
:1045D000FEF7CAFB0F4B10221A70FDF781FD22E097
:1045E0000B4B1B88002B00D01DE0C0E0094B1B7853
:1045F0001A1C0123134006D025230722E254262348
:104600000022E254B2E0B1E06C130020501500200B
:1046100030130020441500203EF5FF1F0017002036
:1046200034130020C0465A4B10225A73594B3C2277
:104630001A80574B50221A73574B181C09F012FD61
:10464000534B227D1A72524B627D5A72504BA27D9F
:104650009A724F4BE27DDA724D4B227E1A714C4BAF
:10466000627E5A714A4BA27E9A71494BE27EDA71A0
:10467000474B228A1A80464B628A5A80474B191C44
:10468000221C1023081C111C1A1C0FF03AFE444A6D
:10469000424B101C191C0BF0A1FB424B181C09F0DB
:1046A000E1FC414B181C09F0DDFC404B181C09F0E3
:1046B000D9FC2523E35C1A1C1023134006D0344A8E
:1046C000334B0021D973DB7B937305E0304B012220
:1046D0009A732F4BC422DA73354B06229A71344BEE
:1046E000344A1279DA71324B2A4A1288283A121265
:1046F000D2B21A712E4B274A1288D2B2283AD2B2BD
:104700005A71234A224B0021D974DB7C9374204BCD
:1047100000221A821E4CFDF7EFFE031CDB439BB206
:104720002382234B60221A70214B00225A70204BA7
:1047300000225A8002E0C04600E0C046154B1B88AC
:10474000191C1B4B1B791B02194A527913431A4A35
:10475000101C1A1C09F086FC184B00221A7013E07A
:10476000C04604E0C04602E0C04600E0C046094B37
:1047700000221A80124B00221A70124B00221A706B
:104780000E4B00221A70C046BD4605B090BDC04613
:104790006C13002030130020505601005C130020E1
:1047A0004C13002060560100785601001C53010094
:1047B00044130020082300208056010044150020E7
:1047C00031F5FF1F30F5FF1F80B582B000AF021C2E
:1047D000BB1D1A80BB1D1B881B029AB2BB1D1B8808
:1047E0001B0A9BB29BB213439BB29BB2181CBD46E3
:1047F00002B080BD80B582B000AF78607B689BB2AC
:104800001B029AB27B689BB21B0A9BB29BB21343FA
:104810009BB29BB21B047A68120C92B2120291B244
:104820007A68120C92B2120A92B292B20A4392B20F
:1048300092B21343181CBD4602B080BD80B582B051
:1048400000AF021CFB1D1A70FB1D1B78002B03D050
:10485000FB1D1B78012B6BD1FB1D1B78002B31D16D
:104860003549354A354BD358802212011343334A18
:104870008B503149304A324BD3588022D2031343F4
:104880002F4A8B502F4B802292005A612D4B802251
:1048900092009A612B4B80229200DA612A4BDB78DE
:1048A000294B5B79284B00221A70274B00225A7043
:1048B000254B20229A70244BDB78234B50221A7010
:1048C000214BDB78FB1D1B78012B31D11A491A4A89
:1048D0001A4BD358802252011343184A8B50164961
:1048E000154A174BD358802212041343144A8B5095
:1048F000164B802292005A61144B802292009A61DA
:10490000124B80229200DA61114BDB78104B5B79FD
:104910000F4B00221A700E4B00225A700C4B2022B3
:104920009A700B4BDB780A4B50221A70084BDB78DD
:10493000BD4602B080BDC046007004403810000083
:104940003410000000B004400060074000C0044084
:104950000070074080B582B000AF78603960C04613
:10496000134BDB78DBB21A1C20231340F8D0104B1A
:10497000DB780F497B685A1C7A601B784B71C04604
:104980000B4BDB78DBB2DBB25BB2002BF8DA084B07
:10499000DB78074B5B79DAB2064B1A703B68013B58
:1049A0003B603B68002BDAD1BD4602B080BDC046FB
:1049B0000060074050F7FF1F80B584B000AF7860FB
:1049C00039600F23FB18FF221A700F23FB18181CE5
:1049D0000121FFF7BFFF7B685A1C7A60054A1278F5
:1049E0001A703B68013B3B603B68002BEDD1BD4634
:1049F00004B080BD50F7FF1F90B583B000AFFB1D22
:104A0000FF221A70BB1D00221A700B4B1A680B4B49
:104A10001B681340BC1D181C00F0D8FB031C23703E
:104A2000BB1D1A78FB1D06498A5C1A70FB1D1B789A
:104A3000181CBD4603B090BD58F7FF1F7CF0FF1F48
:104A40008C18002080B500AF024B1B88181CBD4697
:104A500080BDC0465CF7FF1F80B500AF084B1B88C8
:104A600001339AB2064B1A80054B1A88FA231B02AF
:104A70009A4202D1024B00221A80BD4680BDC04638
:104A80005CF7FF1F80B586B000AF021CBB1D1A800B
:104A900000237B613A4B1B78DBB21A1C131C5B00B2
:104AA0009B18DB00374A9B183B61374B1B78002B68
:104AB00001D004235FE0324B1B78DBB2002B59D0CE
:104AC000BB1D1B88002B53D006F0B4FF031C7B6179
:104AD0002E4B1B881A1CBB1D1B88D318FB60FB6860
:104AE0002B4A934209D9FB689BB2C022D20094465C
:104AF00063449AB23B699A8103E0FB689AB23B69CE
:104B00009A81244B1B68002B0FD0224B1B683A69FB
:104B10001A61204B1A683B695A611E4B3A691A6048
:104B20001C4B1B6800221A610BE01A4B3A691A6091
:104B3000194B3A691A603B6900221A613B690022ED
:104B40005A613B699B7B1A1C144B9200D358DA4381
:104B5000134B1B681A40124B1A60124B80225205ED
:104B60001A6062B67B69181C06F070FF002302E031
:104B7000092300E00823181CBD4606B080BDC046CE
:104B8000AD1800204C20002074F7FF1F5CF7FF1FBA
:104B9000FFF900003C21002048200020F0570100D0
:104BA00058F7FF1F04ED00E080B584B000AF00238C
:104BB000BB60FB1D00221A70314B1B68FB6057E085
:104BC000FB689A892F4B1B889A424ED1FB1DFA68CD
:104BD000927B1A7006F02EFF031CBB60FB1D1A7837
:104BE000294B9200D258294B1B681A43274B1A6055
:104BF000FB68274A9A81BB68181C06F027FF204BE8
:104C00001B68FA689A4214D1224B1B68FA689A42D0
:104C100006D1204B00221A60194B00221A6020E0B6
:104C2000FB681A69164B1A60154B1B6800225A6103
:104C300017E0184B1B68FA689A4208D1FB685A695A
:104C4000144B1A60134B1B6800221A6109E0FB68C1
:104C50001B69FA6852695A61FB685B69FA681269F4
:104C60001A610D4B802252051A60FB681B69FB60BC
:104C7000FB68002BA4D10EF031FFBD4604B080BD0F
:104C8000482000205CF7FF1FF057010058F7FF1F76
:104C9000E9FDFFFF3C21002004ED00E080B500AFFE
:104CA000104B181CC02100F0A3F9031E01D00123F2
:104CB00015E0FFF7A1FE031C1A1C0B4B1A700A4BE0
:104CC0001B78DBB2191C094A0B1C5B005B18DB006C
:104CD000D3185A68064B1A6062B600DF0023181C0E
:104CE000BD4680BD754D0000AD1800204C20002051
:104CF000F022002080B582B000AFFB1D00221A70A8
:104D0000144B00221A80144B00221A70134B0022FD
:104D10001A70134B00221A60124B00221A80FB1DDE
:104D200000221A7009E0FB1D1B780F4AFF21D154A5
:104D3000FB1D1A78FB1D01321A70FB1D1B781F2BFF
:104D4000F1D90A4B00221A60094B00221A60BD46B5
:104D500002B080BD5CF7FF1FAD180020881800204E
:104D600070F7FF1F54F7FF1F8C1800203C21002014
:104D70004820002080B500AF30BFFDE780B588B087
:104D800000AFF860B960191CBB1D1A807B1D0A1C9E
:104D90001A700023FB611B23FB1800221A701A23D0
:104DA000FB1800221A70884B1B78DBB2002B03D053
:104DB00006F040FE031CFB61BB1DBA1D12880321D7
:104DC0008A431A80BB1D1B883F2B0AD87E4B1B7859
:104DD000DBB2002B03D0FB69181C06F037FE022360
:104DE000EDE07A4B1B881A1CBB1D1B889B089BB2ED
:104DF000D218F0235B009A420AD9734B1B78DBB2BE
:104E0000002B03D0FB69181C06F020FE0123D6E01E
:104E10007B1D1B78002B1FD07B1D1B781F2B0AD9F5
:104E2000694B1B78DBB2002B03D0FB69181C06F022
:104E30000DFE0323C3E07B1D1B78654AD35CFF2B6B
:104E400015D0614B1B78DBB2002B03D0FB69181C1B
:104E500006F0FCFD0423B2E05B4B1B78DBB2002BB9
:104E600003D0FB69181C06F0F1FD0723A7E0594B9E
:104E70001B780133DAB2574B1A701B23FB18002240
:104E80001A7022E001237B611B23FB181B787A69CF
:104E90009A40131C7B61504B1B687A6913400DD1FB
:104EA0001A23FB181B22BA18127801321A704A4BC7
:104EB0001A687B691A43484B1A600BE01B23FB18E6
:104EC0001A781B23FB1801321A701B23FB181B785E
:104ED000072BD7D91A23FB181B78002B0AD13A4B82
:104EE0001B78DBB2002B03D0FB69181C06F0AEFD6B
:104EF0000A2364E0BB6A002B04D01A23FB181A783B
:104F0000BB6A1A601A23FB181A78131C5B009B18E3
:104F1000DB00324A9B183B613B69BA681A60BB1DD3
:104F20001A882F4B1B68D318403B1A1C3B695A60E8
:104F3000BB1D1A882A4B1B68D2183B699A603B69D3
:104F40007A1D12789A737B1D1B78214A1A217918D1
:104F50000978D154FA68BB1D1B88101C191C06F077
:104F6000CFFCBB1D1B889B089AB2184B1B88D3181B
:104F70009AB2164B1A80BB1D1A88194B1B68D2189F
:104F8000174B1A603B69174A9A813B6900221A61E4
:104F90003B6900225A617B1D1A78134B9200D2584C
:104FA000124B1B681A43114B1A60074B1B78DBB27C
:104FB000002B03D0FB69181C06F048FD0023181CC9
:104FC000BD4608B080BDC046AD18002054F7FF1F95
:104FD0008C1800208818002070F7FF1F4C2000203C
:104FE00078F0FF1FE8FDFFFFF057010058F7FF1FA3
:104FF00080B584B000AF78600A1CBB1C1A80002307
:10500000FB603F4B1B78DBB2002B03D006F012FD98
:10501000031CFB60BB1CBA1C128803218A431A8044
:10502000BB1C1B883F2B0AD8354B1B78DBB2002BEF
:1050300003D0FB68181C06F009FD02235BE0314B2E
:105040001B881A1CBB1C1B889B089BB2D218F02320
:105050005B009A420AD92A4B1B78DBB2002B03D0A3
:10506000FB68181C06F0F2FC012344E0BB1C1A8804
:10507000254B1B68D318403B1A1C244BDC215A508B
:10508000BB1C1A88204B1B68D218204BE0215A50B9
:105090001E4BE622002199541D4B09221A707A6892
:1050A000BB1C1B88101C191C06F02AFCBB1C1B888F
:1050B0009B089AB2134B1B88D3189AB2114B1A80D3
:1050C000BB1C1A88104B1B68D2180F4B1A600F4B71
:1050D000E42210499952104B1B6801221A430E4BCF
:1050E0001A60074B1B78DBB2002B03D0FB68181C3F
:1050F00006F0ACFC0023181CBD4604B080BDC046C1
:10510000AD18002054F7FF1F78F0FF1F4C2000203F
:105110008C180020E8FDFFFF58F7FF1F80B500AF97
:1051200000F006F8FFF7E6FD06F044FBBD4680BD43
:1051300080B582B000AFFB1D00221A70FB1D00225B
:105140001A700AE0FB1D1A781D4BD2000021D154C1
:10515000FB1D1A78FB1D01321A70FB1D1B78032BF7
:10516000F0D9FB1D00221A700DE0FB1D1A781549BD
:10517000131C5B009B189B0000225A54FB1D1A78DD
:10518000FB1D01321A70FB1D1B78012BEDD9FB1D95
:1051900000221A700DE0FB1D1A780B49131C5B00EE
:1051A0009B189B0000225A54FB1D1A78FB1D0132EC
:1051B0001A70FB1D1B78022BEDD9BD4602B080BDD5
:1051C00044180020B01800206418002080B584B076
:1051D00000AF78600F23FB1800221A707B688C4A9E
:1051E000934200D88AE07B688A4A934242D97B681E
:1051F000894A93421ED97B68884A93420CD97B68BE
:10520000002B04DA0F23FB181F221A70F9E00F237A
:10521000FB181E221A70F4E07B68814A934204D97D
:105220000F23FB181D221A70EBE00F23FB181C2222
:105230001A70E6E07B687B4A93420DD97B687A4A14
:10524000934204D90F23FB181B221A70D9E00F23B5
:10525000FB181A221A70D4E07B68744A934204D96E
:105260000F23FB1819221A70CBE00F23FB1818220A
:105270001A70C6E07B686E4A93421FD97B686D4AFC
:1052800093420DD97B686C4A934204D90F23FB18D3
:1052900017221A70B5E00F23FB1816221A70B0E01F
:1052A0007B68664A934204D90F23FB1815221A70B3
:1052B000A7E00F23FB1814221A70A2E07B68604A53
:1052C00093420DD97B685F4A934204D90F23FB18A0
:1052D00013221A7095E00F23FB1812221A7090E027
:1052E0007B68594A934204D90F23FB1811221A7084
:1052F00087E00F23FB1810221A7082E07B68FF2BD7
:1053000043D97B68514A93421FD97B68504A9342E4
:105310000DD97B684F4A934204D90F23FB180F2203
:105320001A706EE00F23FB180E221A7069E07B687A
:10533000494A934204D90F23FB180D221A7060E0EA
:105340000F23FB180C221A705BE07B68434A9342E0
:105350000DD97B68424A934204D90F23FB180B22D4
:105360001A704EE00F23FB180A221A7049E07B687E
:105370003C4A934204D90F23FB1809221A7040E0DB
:105380000F23FB1808221A703BE07B680F2B1CD9F7
:105390007B683F2B0CD97B687F2B04D90F23FB182C
:1053A00007221A702DE00F23FB1806221A7028E03E
:1053B0007B681F2B04D90F23FB1805221A7020E0ED
:1053C0000F23FB1804221A701BE07B68032B0CD9F7
:1053D0007B68072B04D90F23FB1803221A7010E0F7
:1053E0000F23FB1802221A700BE07B68012B04D9F3
:1053F0000F23FB1801221A7003E00F23FB18002271
:105400001A700F23FB181B78181CBD4604B080BD12
:10541000FFFF0000FFFFFF00FFFFFF0FFFFFFF3F49
:10542000FFFFFF1FFFFFFF03FFFFFF07FFFFFF015E
:10543000FFFF0F00FFFF3F00FFFF7F00FFFF1F0088
:10544000FFFF0300FFFF0700FFFF0100FF0F000049
:10545000FF3F0000FF7F0000FF1F0000FF03000070
:10546000FF070000FF01000080B500AF044B1A6881
:10547000044B101C191C00F0DDFCBD4680BDC0466D
:1054800094F0FF1F7955000080B586B000AFF8603A
:10549000B960191CFB1D1A70BB1D0A1C1A70304B19
:1054A0001A68BB68101C191C00F044FD031C7B61CA
:1054B0007B69002B3DD07A69FB68111C1A1C1023F4
:1054C000081C111C1A1C0EF01CFF7B69FA1D2121FF
:1054D00012785A547B69BA1D222112785A547B697A
:1054E0002833181C00F0AAF97B691033181C00211E
:1054F0000BF02EF97B691833181C00210BF028F9EA
:105500007B69202200219954164B181C08F0AAFD33
:10551000154B181C08F0A6FDBB1D1B78134A101C68
:10552000191C08F09FFD7B69181C09F0A3FA7B6920
:1055300011E00F4B181C08F095FD0E4ABB68101CBB
:10554000191C08F08FFDBB1D1B78084A101C191C84
:1055500008F088FD0023181CBD4606B080BDC0467B
:1055600094F0FF1F70580100905801009C580100F2
:10557000A8580100C858010080B582B000AF78601B
:105580007B68002B0FD07B682833181C00F060F973
:105590007B68181C09F06EFA054B1A687B68101CB2
:1055A000191C00F03FFDC046BD4602B080BDC0469C
:1055B00094F0FF1F80B582B000AF7860054B1A6889
:1055C0007B68101C191C00F07BFD031C181CBD46D9
:1055D00002B080BD94F0FF1F80B584B000AF78604A
:1055E000134B1B68181C00F049FC031CFB607B6814
:1055F000002B17D013E0FA687B68101C191C1022CE
:105600000EF070FE031E01D1FB680CE0084B1A6817
:10561000FB68101C191C00F05DFC031CFB60FB68A0
:10562000002BE8D10023181CBD4604B080BDC04645
:1056300094F0FF1F80B582B000AF7860054B1A6808
:105640007B68101C191C00F0C9FC031C181CBD460B
:1056500002B080BD94F0FF1F80B584B000AF7860C9
:105660007B68181CFFF7E6FF031CFB60FB68002B40
:1056700001D0FB6800E00023181CBD4604B080BDCB
:1056800080B584B000AF78607B68181CFFF7A4FF7A
:10569000031CFB60FB68002B05D0FB68181CFFF7A0
:1056A00089FF031C00E00023181CBD4604B080BD28
:1056B00080B584B000AF78603960102002F0D6F871
:1056C000031CFB60FA68094B101C191C0AF0E8FD6A
:1056D000031E00D007E0F9687A683B68081C111CBB
:1056E0001A1C09F053F9BD4604B080BD847701004F
:1056F00080B582B000AF274B1B68181C00F0BEFBC2
:10570000031C7B6040E07B6822229B5C012B00D065
:1057100031E07B681033181C0BF02AF8031E29D0E7
:105720007B68181CFBF724FB031E16D01A4B181CB1
:1057300008F098FC194B181C08F094FC7B68222296
:10574000032199547B681033181C05210BF000F8D5
:105750007B682022002199540CE0114B181C08F0A2
:1057600081FC0E4B181C08F07DFC7B682222022174
:105770009954FFE7C046074B1A687B68101C191C38
:1057800000F0A8FB031C7B607B68002BBBD1BD46EF
:1057900002B080BD94F0FF1FDC58010000590100E9
:1057A0000459010080B500AF00F006F8FA239B0011
:1057B000181CFFF767F9F9E780B582B000AF0EF06B
:1057C00045F9022009F018FB02200AF0ABFD08F0B1
:1057D000DFF800F0C7FF134B181C002108F004F895
:1057E00009F00EFE07F0E8FB00F022F90E4B181C42
:1057F0000AF07AFD0D4B181C08F034FC0C4B00200D
:10580000191C08F0A5FD0B4A0B4B101C191C08F0C5
:1058100029FC08F08DF9031C7B607B68002BF8DC09
:10582000F7E7C046BCF0FF1FD472010038590100F1
:10583000402100204C5901006859010080B582B018
:1058400000AF78607B6800221A60BD4602B080BD60
:1058500080B582B000AF78607B681B68002B12D0E7
:105860007B681B688222920094466344181C09F0EE
:1058700047FE7B681B68054A101C191C07F02EFFA9
:105880007B6800221A60BD4602B080BDA0F0FF1FF9
:1058900080B582B000AF78607B681B68002B03D0B6
:1058A0007B681B68043300E00023181CBD4602B06F
:1058B00080BDC04680B582B000AF78607B681B6851
:1058C000002B05D07B681A6881239B00D35A00E027
:1058D0000023181CBD4602B080BDC04680B500AF95
:1058E0004849484A484BD358802292001343464ABD
:1058F0008B50444A454B4649D1504249414A454B59
:10590000D358802252021343424A8B503D4B3D4AAA
:105910001268C02109030A431A603A49394A3D4BCB
:10592000D3583D4A1340802252041343394A8B50C6
:105930003A4B3A4A926C3A490A409A64374B374A92
:10594000D26C37490A40DA64364B24225A70364BFF
:1059500080221A70334B9A221A70324A314BDB780C
:10596000DBB21F210B40DBB2D3702E4B21221A7108
:105970002C4B00225A71C0462A4B9B79DBB21A1C71
:1059800010231340F8D1C046264B9B79DBB21A1C7A
:105990000C231340082BF7D1224B40225A71C046EA
:1059A000204B9B79DBB21A1C0C231340082BF7D138
:1059B000C0461C4B9B79DBB21A1C40231340F8D025
:1059C000184B1A221A70C046164B9B79DBB21A1C70
:1059D0000C2313400C2BF7D1124A124B5B79DBB22C
:1059E00020210B43DBB25371104A104B9B78DBB282
:1059F00001210B43DBB29370FBF70EFF0023181C51
:105A0000BD4680BD00700440381000004410000006
:105A10000000011004100000FFFFFFFC0090044094
:105A2000FFF8FFFE004006400050064000D007404F
:105A300080B582B000AF00237B600AE0094B7A6832
:105A40009200D358181C002107F0CEFE7B6801336A
:105A50007B60044B7A689200D358002BEED1BD4690
:105A600002B080BD98F0FF1F80B582B000AF7860B3
:105A70007B68013308D0074B99687A68131C5B0078
:105A80009B189B00CB1800E00023181CBD4602B0F9
:105A900080BDC046ACF0FF1F80B582B000AF78601B
:105AA00039607B68002B0AD03B68013307D07B68E4
:105AB000DA687B685B6839684B43D31800E00023E1
:105AC000181CBD4602B080BD80B582B000AF7860C2
:105AD0007B68002B07D07A68064B9B68D31A9B1013
:105AE000054A534301E001235B42181CBD4602B046
:105AF00080BDC046ACF0FF1FABAAAAAA80B582B099
:105B000000AF786039607B68002B0ED03B68002BBB
:105B10000BD03A687B68DB68D21A7B685B68101C24
:105B2000191C0EF09FF8031C01E001235B42181CB6
:105B3000BD4602B080BDC04680B582B000AF78607F
:105B400039603B68181CFFF7BFFF021C7B68181CFC
:105B5000111CFFF7A1FF031C181CBD4602B080BD3D
:105B600080B582B000AF786039607A683B68101CFD
:105B7000191CFFF7C3FF031C181CFFF775FF031C5C
:105B8000181CBD4602B080BD80B584B000AF7860FF
:105B90007B68002B01D1154B7B60154B1B68181CD3
:105BA00008F080FA031CFB6017E07B68002B0ED026
:105BB000FB6804337A68101C191C0AF071FB031E81
:105BC00005D0FB68181CFFF77FFF031C0AE0FB6889
:105BD000181C08F00BFB031CFB60FB68002BE4D1D6
:105BE00001235B42181CBD4604B080BD84770100D0
:105BF000B8F0FF1F80B586B000AFF860B9607A607A
:105C0000BA687B68101C191CFFF778FF031C7B61C6
:105C1000BB68002B11D07B6901330ED07B69FA6819
:105C2000D3181B781A1CBB681B681A41131C01226D
:105C300013405A1E9341DBB200E00023181CBD46FE
:105C400006B080BD80B586B000AFF860B9607A60FC
:105C50003B60BA687B68101C191CFFF74FFF031CE0
:105C60007B61BB68002B30D07B6901332DD03B6852
:105C7000002B13D07B69FA68D2187B69F968CB18BE
:105C80001B78D8B2BB681B68012199400B1CDBB2A2
:105C9000011C0B43DBB2DBB2137014E07B69FA68C2
:105CA000D2187B69F968CB181B78D8B2BB681B681F
:105CB000012199400B1CDBB2DB43D9B2031C0B4022
:105CC000DBB2DBB21370012300E00023181CBD46D9
:105CD00006B080BD80B58AB000AF00233B620023D0
:105CE000FB614F4B181C07F0CBFC031C7B627B6AEB
:105CF000002B01D07B6A8EE04A4B1B68181C08F011
:105D0000D1F9031C7B6237E07B6A181CFFF7DCFECD
:105D1000031CFB60444AFB68D3181B78BB60BB685C
:105D2000002B23D1414AFB68D3181B78BB610023A9
:105D30007B6109E0BB690122134002D07B6901331A
:105D40007B61BB695B10BB61BB69002BF2D1FB6956
:105D5000002B03D07A693B6A9A4207DA7B6AFB61BF
:105D60007B693B627B69002B00D108E07B6A181CD1
:105D700008F03CFA031C7B627B6A002BC4D1FB69F0
:105D8000002B01D1002346E000233B6130E0284B8B
:105D90003A699200D358002B27D0254B3A699200DC
:105DA000D3589B68002B20D0214B3A699200D258DF
:105DB000FB69101C191CFFF7BFFE031C7B601C4B0A
:105DC0003A699200D25819497B68081C111C1A1CA8
:105DD000FFF710FF031E012B07D1154B3A69920004
