:10000000C029002051040000490400004D040000F4
:1000100049040000490400004904000000000000F9
:100020000000000000000000000000007D7C0000D7
:100030004904000000000000E17B0000C97B0000D3
:10004000510400005104000051040000510400005C
:1000500000000000510400005104000051040000A1
:10006000510400005104000051040000510400003C
:10007000E1B2000011B3000041B3000051040000E0
:10008000510400005104000051040000510400001C
:100090005104000051040000510400000000000061
:1000A00051040000510400005104000051040000FC
:1000B0005104000000000000811200008150000087
:1000C0000000000000000000000000000000000030
:1000D0000000000000000000000000000000000020
:1000E0000000000000000000000000000000000010
:1000F0000000000000000000000000000000000000
:10040000FFFFFFFFFFFFFFFFFFFFFFFFFEFFFFFFFD
:1004100010B50021E12040020AF008FE10BDC046E0
:1004200010B50400010005480AF0D0FD044A137815
:10043000591C1170034AD45410BDC04600A0064098
:1004400000F2FF1F0014002072B6FEE772B6FEE74E
:1004500010B5144B144A9A420ED2144B114A03326F
:10046000D21A92080132920000230F481049CC584A
:10047000C45004339342FAD10E4B0F4A9A420ED223
:100480000E4B0C490331C91A890801318900002338
:10049000140000201A19106004338B42FAD103F0C3
:1004A000A1FD10BDFCF1FF1F00F0FF1F04F0FF1FB6
:1004B0003C0D01004028002000F2FF1F04F2FF1F46
:1004C0007047C04610B510220D490E480CF032FCA2
:1004D000002811D10C4808F063FE094C200008F0F8
:1004E000E1FA0A4808F05CFE2000103008F0DAFA61
:1004F000074808F055FE01E00AF066F810BDC04656
:100500002415002004F2FF1F00D7000034D700009C
:1005100098E1000010B50020FFF77AFF00210348A2
:1005200008F086FC02480AF049F810BD44F1FF1FAC
:100530003505000070B584B0294B1B78212B21D1E3
:10054000274C6178274808F02BFE0022264B1A80A2
:100550006378502B3BD11032002168460CF017FC19
:100560000822224968460CF0F4FB214808F018FEE6
:10057000684608F097FA1F4808F012FE684609F02E
:1005800091FC24E03F2B22D1154C61781A4808F0E9
:1005900007FE63784D2B17D1114A2C3B13700021B5
:1005A000164E17480F2501314B1EF35C1C09045DE4
:1005B00094702B40C35CD37002320829F3D112220D
:1005C000094B1A800AF000F80022074B1A800D4AE6
:1005D000034B083313CB13C21B68136004B070BD08
:1005E0001C1500203CD70000081500201E15002017
:1005F00064D7000098E1000074D7000014150020B3
:1006000094D7000004F2FF1FF0B5474680B482B0D3
:10061000050000911600104808F0D4FD041E17D004
:100620000D4B043301930C4B9846012D04D80198CF
:1006300008F00AFE030001E043469B68320000997F
:1006400028006768B847200008F00AFE041EECD1B5
:1006500002B004BC9046F0BD18F2FF1F70B50C4C00
:10066000200008F057FA0B4D28000C3008F0A6FDCA
:1006700020000C30084903F0CFFD20001C3008F0AA
:1006800049FA281D08F09AFD280008F097FD70BD72
:1006900000F0FF1F18F2FF1FA908000010B5002886
:1006A00007D0416804480C3003F012FF03F000FB50
:1006B00000E0002010BDC04600F0FF1F10B502484A
:1006C0000C3008F07FFD10BD18F2FF1F10B5002898
:1006D00002D008F0C5FD00E0002010BDF0B583B0E9
:1006E0000090254808F05CFD244808F059FDFFF70C
:1006F000E5FF041E2CD00027002301932426A55DCE
:10070000BD420BD3EA082100083100980CF012FB1F
:10071000002803D1802D07D02F0001942000FFF77F
:10072000D5FF041EEBD100E00194019C002C0FD0FA
:10073000134808F035FD134808F032FD0F4808F063
:100740002FFD11480C3008F03DFD844206D110E029
:100750000E4808F025FD002301930AE00A4C0C34F2
:10076000019D2900200008F03BFD2900200008F031
:1007700061FD019803B0F0BDA8D7000098E100002A
:10078000D0D70000F0D7000018F2FF1FF8D7000004
:1007900070B5051E59D04368002B56D02B4808F081
:1007A000FFFC2B4808F0FCFC29002A480C3008F01C
:1007B00017FD6B68586808F005FD041E39D04368C2
:1007C0009D4207D0200008F04BFD041E31D0436845
:1007D0009D42F7D16B685868210008F001FD6B68F5
:1007E000586808F0EFFC002808D11B4808F0D8FC36
:1007F0006B68596819480C3003F03AFE174E29000F
:10080000300008F0B9F930002830210008F0B4F9C0
:10081000104B9A68511E9960114808F0C1FC2800DD
:10082000FFF73CFF0200290008310320FFF7ECFE30
:100830000BE00C4808F0B4FC2800083008F032F94E
:10084000034808F0ADFC0024C4E770BD18D80000D0
:1008500098E1000018F2FF1F3CD8000000F0FF1FD5
:1008600068D8000084D8000010B504000C4808F0D7
:1008700097FC002C13D06068002810D008F0A2FC70
:10088000002807D04068FFF783FF606808F09AFCF3
:100890000028F7D1210003480C3003F0E9FD10BD1A
:1008A000B4D8000000F0FF1F10B5FFF7DDFF10BD4A
:1008B000F0B583B000900F000192100003F0FCF936
:1008C000061E07D14B4808F06BFC4B4808F068FC4B
:1008D00000238CE00098FFF701FF041E14D0FFF7FF
:1008E000DDFE002807D01022010001980CF022FA4A
:1008F000230000287BD0414808F052FC404808F013
:100900004FFC2000FFF744FF3E4B9B680A2B0DD1A4
:100910003C480C3008F058FC04003B4808F040FC10
:10092000354808F03DFC2000FFF732FF3100374822
:100930000C3003F085FD051E10D1310033480C301A
:1009400003F0C8FC051E04D1314808F029FC00233F
:100950004DE068600023036008F030FC2B4808F08D
:10096000E9F8041E04D12B4808F01AFC00233EE0ED
:10097000010024480C3008F05DFC2448283008F0C1
:10098000D9F8002808D1244808F00AFC21001F48A3
:1009900008F0F2F800232AE044600100686808F0DB
:1009A00039FC6560174B9A68511C99601B4808F028
:1009B000F7FB200008301022009D29000CF0C9F937
:1009C0002423E754200018300C2200210CF0DFF91A
:1009D000134808F0E5FB134808F0E2FB064808F06E
:1009E000DFFB019A29000220FFF70EFE230018000A
:1009F00003B0F0BDD0D8000098E100000CD9000091
:100A000030D9000018F2FF1F48D9000000F0FF1F86
:100A100070D90000ACD90000DCD9000020DA000059
:100A20003CDA0000F0D7000010B504001148043093
:100A300008F0C8FB00281BD0A04215D101E0844279
:100A400012D10D4808F0ACFB21000A48043008F030
:100A5000C7FB210009481C3008F08EF8211D0A0050
:100A60000120FFF7D1FD03E008F0FAFB0028E6D1F2
:100A700010BDC04618F2FF1F60DA000000F0FF1F33
:100A800070B505000B48043008F09CFB041E0DD027
:100A9000201D102229000CF04DF9002808D020005C
:100AA00008F0DEFB041EF3D1002002E0002000E08D
:100AB000200070BD18F2FF1F70B505000E001C4825
:100AC00008F06EFB2800FFF7DBFF041E18D1194861
:100AD0001C3008F02FF8041E07D1174808F060FBFF
:100AE000164808F05DFB002021E0154808F058FB8F
:100AF000144808F055FB21001348043008F09AFB15
:100B0000201D102229000CF024F9002E07D020000F
:100B1000143031000AF0CCFB0023237701E00123DD
:100B200023772A0029000020FFF76EFD200070BD0A
:100B300078DA000000F0FF1F8CDA0000C0DA000055
:100B4000D4DA000098E1000018F2FF1FF8B517484A
:100B5000043008F037FB041E24D0154E154D30002C
:100B600008F01EFB280008F01BFB271D380003F0CF
:100B700071F800280AD02223C35C002B06D00E484F
:100B800008F00EFB0B4808F00BFB0CE00B4808F0DC
:100B900007FB084808F004FB200008F061FB041E76
:100BA000DDD100E000273800F8BDC04618F2FF1F75
:100BB00000DB000098E1000014DB000030DB0000E7
:100BC00070B51148043008F0FDFA041E1BD00E4B1E
:100BD0001D1D237F002B10D1200014300AF070FB64
:100BE00000280AD0094808F0DBFA2000FFF71CFFB4
:100BF000280008F0E7FA040003E0200008F030FBCA
:100C00000400002CE5D170BD18F2FF1F54DB00007A
:100C10000B2805D11B4A116880230B43136030E079
:100C20000E2806D1174A1368802109020B4313606E
:100C300027E00F2805D1144A116802230B431360E3
:100C40001FE00300103B1F2B0DD8FF22104010386F
:100C500040090E4A9446604480001F2213401E3A09
:100C60009A4002600DE00A4B984203D1C022094B22
:100C70001A6006E0084B984203D1C0229203054B4C
:100C80001A60704724ED00E010E000E040380038C2
:100C90001617000000E100E02425000010B5040054
:100CA0008260C3600BF05CFD2060616010BDC046D7
:100CB00030B5026843688468C56812196B410260E8
:100CC000436030BD10B504000BF04AFD2060616048
:100CD00010BDC04670B504000BF042FD0122002398
:100CE00025686668521BB34112184B4111001A0067
:100CF0000120E368934204D302D1A3688B4200D35E
:100D0000002070BDF0B54F4680B486B002AA3A49C3
:100D10000B00083331CB31C21B681360CB790193D0
:100D2000364B1B78002B45D007F08CFA041E25D0DB
:100D30003A2028233049C854304B1B789C4216D0A7
:100D40002F490A88D21A121992B20A801100283942
:100D500029480E12067141711A00283210180A1B18
:100D6000043A011DE31A0433C0180BF0FBFF234BB8
:100D70001C70234A13881C1B14801BE01E4B3A2254
:100D80009A711E4C20781E490A88121A92B20A8063
:100D900011002839091219711100283959710100FF
:100DA0002831CB182C3A191D1B1A181D0BF0DAFF2D
:100DB00000232370134808F005FA041E15D0104BC9
:100DC00099460E4D0C4F6668002E09D04B461B8885
:100DD0002C3B9BB22A78BA183832019902A8B04746
:100DE000200008F03DFA041EEDD10022044B1A80C9
:100DF00006B004BC9146F0BD1C15002051F5FF1F44
:100E000008150020B4F4FF1FF8B5404B404A127992
:100E1000DA711B7EFF2B0ED13C4803001833020011
:100E2000083232CA32C312681A6001001831083021
:100E300009F09CFF15E0374A344B111D18000830AB
:100E400070C870C104680C601900083118001830AF
:100E5000E0C8E0C1006808601833043223CA23C325
:100E60001C602D4B1B78002B41D007F0EBF9041EC2
:100E700021D03A2028232549C854274B1B789C426F
:100E800016D0264A1188C91A091989B211800A0098
:100E9000283A1E48151205714271190028310818A8
:100EA000121B043A011DE31A0433C0180BF05AFF59
:100EB000194B1C701BE0154B3A229A71164C207886
:100EC00016490A88121A92B20A80110028390912AA
:100ED000197111002839597101002831CB182C3AA9
:100EE000191D1B1A181D0BF03DFF002323700A4B20
:100EF0001C782834054BE418812323700023637089
:100F0000638000F01DFEC0436080F8BD1C1500200A
:100F1000E0230020B4F4FF1F51F5FF1F0815002047
:100F200070B504000D001048143008F04BF900288B
:100F300017D00379A34204D143799D4206D0FF2BF9
:100F400004D008F08DF90028F3D10AE0012300282D
:100F500008D08368002B02D09847002302E00123C9
:100F600000E00123180070BDB4F4FF1F10B50100AC
:100F70000248143008F04EF910BDC046B4F4FF1F0B
:100F8000F0B5474680B482B00600009101925F4BF5
:100F90001B78002B08D028335D4AD35C3A2B10D144
:100FA00000225C4B1A80ACE0594B9B793A2B08D15C
:100FB000123B574AD35C7F2B03D80022554B1A8033
:100FC0009FE007F03FF90700504B1870524B043375
:100FD0004F4A183232CA32C312681A604D4B1B880E
:100FE00030339BB2A022D200934202D8494A1380E8
:100FF00003E0A022D200474B1A80464B1A88121AEF
:10100000303A434D03002C335B1904301818290083
:101010000BF0A8FE60232B7000236B706B80002FF9
:1010200004D03A2128333A4AD15402E03A22384BCC
:101030009A71374B394A1279DA711B89002B1FD10B
:10104000334B5B89002B1BD1314B9B89002B17D174
:101050002F4BDB89002B13D12D4B1B8A002B0FD17B
:101060002B4B5B8A002B0BD1294B9B8A002B07D182
:10107000274BDB8A002B03D10022264B1A8040E04D
:10108000234B1A001832083313CB13C21B681360AA
:10109000214B1B79FF2B0ED1042E08D1009B022B74
:1010A00005D11D4904311E4809F060FE08E0002208
:1010B000184B1A8025E018490431194809F056FEEA
:1010C000124D2B7898462833114FDB191E706A4653
:1010D00012785A70019802F021F943462C33F850E7
:1010E0000C4B1B881A00283A12123A71283B7B716C
:1010F0002B782833DF1900237B8000F021FDC043CB
:10110000788002B004BC9046F0BDC04651F5FF1F88
:101110001C15002008150020B4F4FF1FE023002058
:1011200024150020F8B54F464646C0B4894690467F
:101130001D00194C60232370002666706680263BD4
:10114000A371164B1B79E3712B1D1B1223712B1DF1
:101150006371270018371022010038000BF0F9FDE9
:1011600020000830390009F001FE0D4B1B782833B0
:101170001C194B46237043466370668000F0E0FC08
:10118000C04360802C35074B1D8000F097F90CBCE4
:1011900090469946F8BDC0461C150020E02300206B
:1011A00051F5FF1F0815002010B5044C2000FFF773
:1011B000DDFE20000C30FFF7D9FE10BD34F0FF1F1C
:1011C00000B583B002F0E2FB002300931F33C0227E
:1011D0000F49104802F06AFA002800D0FEE7002309
:1011E00000930233A022D2000B490C4802F05EFAB1
:1011F000002800D0FEE70021E120400209F016FFA0
:1012000002F090FC002800D0FEE703B000BDC0460D
:1012100084DB00000583000090DB0000E13D00005E
:101220000D4B98420DD00D4B98420CD00C4B984270
:101230000BD00C4B98420AD00B4B984209D000209F
:1012400008E00A4806E00A4804E00A4802E00A48C2
:1012500000E00A487047C04600F00F4040F00F40E1
:1012600080F00F40C0F00F4000F10F4000900440AC
:1012700000A0044000B0044000C0044000D004407E
:10128000F8B54F464646C0B4124B1A6890461A68E5
:1012900041460A431A60104C25004035F0263606B8
:1012A0000F043F0C2268130C1B04B3420AD13A42CC
:1012B00008D063689946002B04D0002300224146E1
:1012C0000020C8470834AC42ECD10CBC904699468B
:1012D000F8BDC046A0900440CCF4FF1F10B5436990
:1012E00001248C40A343436143698A401A4342610D
:1012F00010BDC046F0B583B006000D000192002479
:1013000001273B00A3401D4204D0019A2100300078
:10131000FFF7E4FF0134202CF3D103B0F0BDC04649
:1013200070B50C001500FFF77BFF00230121084E6C
:101330002200DA40114205D00268324002600268A1
:101340002A43026001330430202BF1D170BDC04626
:10135000FFFF00FF70B50C00FFF762FF00230121C3
:10136000064D2200DA40114202D002682A40026093
:1013700001330430202BF4D170BDC046FFFF00FFC5
:10138000416070478160704770B50C001500FFF731
:1013900047FF0023012140262200DA40114205D0F8
:1013A0000268B243026002682A43026001330430DB
:1013B000202BF1D170BDC0460204120F920003052C
:1013C0001B0E9B00074952589B181968064A0A4091
:1013D0001A601A680002F0210901084010431860E1
:1013E0007047C04698DB0000FFF8FFFF10B50448C7
:1013F00003F006FA002802D0014803F0F9F910BD05
:1014000010F5FF1F10B5044B9B69002B01D09847C6
:1014100000E0002010BDC04610F5FF1F014B986191
:101420007047C04610F5FF1F10B5154B002139223B
:1014300099549B8B002B11D102E0114B243301E016
:101440000F4B1C3318800F4A12685A6000F01EFCC4
:1014500014E0032139230A4AD1540FE0084B01213B
:10146000392299549B8C002BE7D0054B9B8D002B88
:10147000EFD1034B013199542C33E3E710BDC04643
:1014800010F5FF1FA40E0020024B1B688362C1628F
:101490007047C046A40E002010B500220221044867
:1014A00007F0BCFC0022034B1A80034B1A7010BDDE
:1014B0004CF0FF1F0815002051F5FF1F70B5554B6C
:1014C0001B88002B00D1A3E0A022D200934203D9B5
:1014D0000022504B1A809BE04F4B1B8B002B1FD1DF
:1014E0004D4B5B8B002B1BD14B4B9B8B002B17D198
:1014F000494BDB8B002B13D1474B1B8C002B0FD19F
:10150000454B5B8C002B0BD1434B9B8C002B07D1A5
:10151000414BDB8C002B03D100223E4B1A8077E03D
:101520003D4B1B7EFF2B6BD03C4809F0ADFA0028E9
:1015300033D13A48FFF7D2F8051E1ED1384807F0DC
:101540002FFEFFF703FB041E28D12823324AD25C6A
:10155000344C2178344807F023FE2378002B05D043
:101560002D4C2823E55C00F02BFBA5712F4B5B680D
:1015700098470022274B1A804AE0FFF78FF8041E95
:101580000CD1EB69002B04D01A6A8C23D05C05F0D7
:1015900085FD2800FFF7FCF83AE0204C200006F01B
:1015A000EFFD002803D000221A4B1A8030E0200003
:1015B00002F050FB041E2BD002F042FBFFF722FF8B
:1015C00025002835280002F003FD002814D028004B
:1015D00002F0FEFC0F4E3080280002F0F1FC01000A
:1015E00032880D480BF0B5FB280002F0D5FC200036
:1015F00002F026FBFFF706FF0022064B1A8007E0E9
:101600000020FFF7FFFE0022024B1A80054B1A70E4
:1016100070BDC046081500201C15002034150020A0
:10162000ACDB000051F5FF1FE4DB0000F8D6000042
:10163000F8B54F464646C0B4040015000388002B99
:1016400003D0774A934220D0E3E0764D0023AB836A
:10165000AB84AB8503223A33EA54734B1B686B634C
:1016600007F054FB714B1870FA2252000023280037
:1016700003F0AEF800F076FA6D4B1B68984708F05F
:101680000BF9674B23800120C6E0022900D1A5E0B9
:1016900006D8002900D189E0012900D193E0F0E7C4
:1016A000872902D0882935D0EBE75E4E00223B2304
:1016B000F2541C36002399465A4B98463B277368D0
:1016C0009D4206D1308800F0B7FA4B4633804B4636
:1016D000736008364346DB5D0133DBB24246D355C7
:1016E000022BECD9534B0021534A986A854203D10F
:1016F000996218002530017030339342F5D34F4B77
:1017000000214F4A9869854200D1198220339342C3
:10171000F8D3B6E7434B9D422DD1180003F070F883
:101720000028AED000213B233E4AD1540023414E35
:10173000444D5A00D3181B01F31825331B78002B96
:1017400010D0384803F054F83B23364AD35C5A0093
:10175000D3181B01374A9B182B60022000F0F4FAC3
:10176000FFF7ACFE2F493B228B5C0133DBB28B547D
:10177000072BDED985E7344B9D4208D1180003F0D2
:101780003FF8002803D000F0A9FAFFF797FE2F4B8F
:101790009D4200D075E7180003F032F8002800D110
:1017A0006FE709F07FFAFFF789FE6AE7002D00D1A5
:1017B00067E7244B1D60032000F0C6FAFFF77EFEAA
:1017C000FFF714FE5DE7002D00D15AE7204B1D60A6
:1017D000052000F0B9FAFFF771FE52E71D4B1B8898
:1017E000002B00D14DE71C4B9B79062B06D12F33E4
:1017F000194AD35C9B0701D5FFF7F8FD012000F0E3
:10180000A3FA144B1B88002B00D13AE702F0AAFE82
:1018100037E70023038003200CBC90469946F8BDAF
:101820003A03000010F5FF1FA40E00200015002051
:10183000F8D6000030170020B0180020DC18002077
:101840001C1A00202C170020C0180020C8250020DA
:1018500024170020081500201C150020F8B51E4B89
:101860001B68002B02D01D00283502E01B4A1568BA
:1018700018351B4A1278520625D51A4A00203C21F9
:1018800050541F8A3B3900241C32012600E0190005
:101890001388BB420BD15368002B08D0002802D01C
:1018A0003C2210498C542B6000236B6009E0083205
:1018B0004B1CDBB20C003000042BE8D13833094A52
:1018C000D154FFF793FD2868002804D06A68064BBE
:1018D000197807F0A3FAF8BD2C1700202417002070
:1018E0001C17002010F5FF1F0015002030B5013A2D
:1018F0008A18914214D20C0023781B026578EB18E9
:101900009BB2181880B2834201D9013080B20234F0
:10191000A242F1D8CB439B185B0801335B00C91886
:101920008A4207D113781B02181880B2834201D96A
:10193000013080B230BDC046F8B502223B4B1A7070
:101940001D003B4E340061E0CB18E15C01290CD056
:10195000002902D0632917D031E0364807F020FC77
:10196000324A13780133137050E0334807F018FC03
:101970002E490F784A782832D2192D4812185378F8
:10198000FB1802330B7041E02C4807F009FC274B91
:10199000187806F017FA002804D0294807F000FC50
:1019A000012042E021490C784A7828321219204857
:1019B00012185378E31802330B70002035E02148E9
:1019C00007F0EEFB194B58781A7801002831891876
:1019D000174BC9180B783F27BB43DFB2802F08D0C5
:1019E000C02F02D0402B0CD11CE0114B1B7EFF2BD3
:1019F0001AD08218283202210420FFF7C1FA0220EF
:101A000013E04B78D2180232084B1A7029786A78A2
:101A1000130028339A195278D2000832914293DB8E
:101A2000002002E0012000E00120F8BD50F5FF1F7A
:101A30001C150020A8DD0000C0DD0000D8DD00007E
:101A4000F0DD000014DE0000F0B583B00500154F96
:101A50007A78154C23791B029B1A6179CB189BB2BB
:101A600069468E1DCB80C98889B228320F4807F09D
:101A700097FB30884519A8B2210008312022FFF7D2
:101A800035FF328892B2797828310919FFF72EFF95
:101A9000002804D00302000A184380B200E0044882
:101AA00003B0F0BD50F5FF1F1C1500201CDE000028
:101AB000FFFF000070B5C5786D18EDB2144CE570ED
:101AC0000E0A83789B19DBB2A370427862700078AB
:101AD00020709CB2A64207D90132D2B20C4C62707F
:101AE000002A01D101302070C9B2A9420EDD0133B4
:101AF000DBB2074A9370002B08D153780133DBB275
:101B00005370002B02D113780133137070BDC0469F
:101B10001015002010B50100074C20681430FFF7A5
:101B2000C9FF2368054A117819755178597591785C
:101B30009975D278DA7510BD2C1700201015002089
:101B400010B53A20FFF780FF10BDC04610B5062043
:101B5000FFF77AFF10BDC04610B51120FFF774FFE4
:101B600010BDC04610B509F069F9FFF71DFB03F081
:101B7000C1FB0F4B00221A805A809A800D4B19002E
:101B80008131FF311A7030339942FBD18022D2006B
:101B9000094B9A80094B19004131FF3100221A800C
:101BA00020339942FBD10A22034B9A7010BDC046E4
:101BB000B41800205517002050F5FF1FEC18002026
:101BC00070B5184B597800292AD0174C228817482D
:101BD00007F0E6FA2488134B5E78330028339C42E2
:101BE00008DA134807F0DCFA00230E4A53700E4A55
:101BF000138015E02200283A921B0E4D711928001F
:101C00000BF0B0F8A41BA4B2074B1C80283D2300A6
:101C1000283B1B122B71283C6C710022014B5A701F
:101C200070BDC04650F5FF1F0815002060DE0000A3
:101C3000A0DE0000441500200022124B9A70124BC7
:101C40001B8883420CD101E0012300E000235B00EC
:101C500000210D4A995213E003220A4B9A700FE0BB
:101C60000122084B9A70084B5B888342ECD0064BEC
:101C70009B888342F0D10132024B9A700223E6E73F
:101C80007047C04650F5FF1FB41800200022114BCA
:101C90009A70114B1B88002B0BD101E0012300E04F
:101CA00000235B000C4A985213E00322094B9A7000
:101CB0000FE00122074B9A70074B5B88002BEDD099
:101CC000054B9B88002BF0D10132024B9A70022306
:101CD000E7E7704750F5FF1FB418002010B5002249
:101CE000124B1A70124802F0A5FD124B1B7B9B078A
:101CF0001AD5114807F054FA0022104B1A800D4BE8
:101D00005A700F4910330A0013CB13C213CB13C2FE
:101D100013CB13C21B681360002201210320FFF7BD
:101D20002FF9084B00221A7010BDC046B0180020D1
:101D3000C018002050F5FF1FD0DE0000081500205D
:101D40001C1500201C170020F8B54F464646C0B4AD
:101D5000CB4B1C68042801D100F03CFDC94BCA4A9A
:101D60001360CA4A136003281BD12523E35C0F22AA
:101D70001340032B0BD1A38B002B01D001F079FA78
:101D8000073AC34B1A70FFF769FD01F016F9022BF1
:101D900001D001F06EFA00213333BE4AD15400F075
:101DA00004FF022800D086E00023BB4A1380BB4A10
:101DB0001380BB4AD37A0133DBB2D372002B0ED12E
:101DC000937A0133DBB29372002B08D1537A01333B
:101DD000DBB25372002B02D1137A01331372252325
:101DE000E35C0222190091430A1E052A0DD121321B
:101DF000A35C0133DBB2A354782B01D001F039FA94
:101E00000022533BE25401F034FA002B01D101F0DF
:101E100030FAA28B002A41D02621625C501E605409
:101E2000002A01D001F025FA2732A25C082A04D04A
:101E3000591E01290FD8052A0DD100222523E2546D
:101E40008032934B1A70FFF709FD14213523914A14
:101E5000D15401F07CF93021042A02D82D39914067
:101E6000C9B2262021540132272162540F22134087
:101E7000DAB2082A01D901F0FCF99B00894AD3584B
:101E80009F4600213523834AD15400F08EFE042260
:101E90007F4B1A70FFF7E2FC01F0C9F80F221340E4
:101EA000032B01D001F0E5F9073A794B1A70FFF7DF
:101EB000D5FC01F082F8052819D17B4B1B681B8AE1
:101EC000002B01D101F0D5F900236D4A1360774A48
:101ED0006D490A606D490A60704A13806E4A13802A
:101EE00008226B4B1A70FFF7B9FC00F073FC694BCA
:101EF0001B780F229343602B01D001F0BAF9654B98
:101F000019795A790B029B1863480088834201DDD6
:101F100001F0AFF9090228328A185F4B1A80644831
:101F200007F03EF9634807F03BF9634807F038F9DA
:101F3000584B1B7AFF2B04D1604807F031F901F0B0
:101F400098F95F4B5F4A1360002255494A705E4919
:101F50000A741B78002B22D101320A74FFF7ECFCC3
:101F6000012812D0002802D0022813D017E04C49D3
:101F70004B7818002830474A82185248026052783D
:101F8000D2000833D3184B7009E0504807F008F925
:101F900001F06FF94E4807F003F901F05CF94D4884
:101FA00008F092FD002804D14A4808F03DFE0028C0
:101FB00005D0444E3A4D1835394C28340BE1354B99
:101FC0001B7EFF2B00D1A9E0324A118B424A91427D
:101FD00000D1A3E02F4A11893F4A914200D1A2E0EB
:101FE00000291CD12B4B5B89002B18D1294B9B89D5
:101FF000002B14D1274BDB89002B10D1254B1B8ADA
:10200000002B0CD1234B5B8A002B08D1214B9B8AE0
:10201000002B04D11F4BDB8A002B00D1D6E01D4BD7
:102020001B8B002B1ED11B4B5B8B002B1AD1194B2A
:102030009B8B002B16D1174BDB8B002B12D1154B32
:102040001B8C002B0ED1134B5B8C002B0AD1114B38
:102050009B8C002B06D10F4BDA8C80235B009A42BD
:1020600000D1B3E00C4B1A88A023DB009A4235D98B
:102070001A0000210220FEF783FF01F0ECF8C046B1
:102080002C17002058150020281700200C150020C0
:102090001C1700201C15002008150020D81800204F
:1020A00050F5FF1F28DC0000241700204C150020ED
:1020B000ECDE000008DF000098E1000010DF000007
:1020C000221500202017002050F7FF1F30DF0000EE
:1020D00064DF000034150020FE800000C64BDB7971
:1020E000012B06D8002211000320FEF749FF01F062
:1020F000B2F805F029FF002804D0C04807F050F8D6
:1021000001F0B7F8BC4AD379013BD371BC4807F062
:1021100047F8BC4807F044F801F09DF8B64A118929
:10212000B94A914252D1B44A1289002A1BD1B24A0B
:102130005289002A17D1B04A9289002A13D1AE4A97
:10214000D289002A0FD1AC4A128A002A0BD1AA4A9E
:10215000528A002A07D1A84A928A002A03D1A64AA5
:10216000D28A002A32D0A44A128B002A1DD1A24A58
:10217000528B002A19D1A04A928B002A15D19E4A6F
:10218000D28B002A11D19C4A128C002A0DD19A4A76
:10219000528C002A09D1984A928C002A05D1964A7D
:1021A000D18C80225200914210D0FF2B0ED0974844
:1021B00008F06AFC002809D1954806F0F1FF0022DA
:1021C00002210120FEF7DCFE01F045F8914806F0FF
:1021D000E7FF01F04EF833681A783C2A00D91BE279
:1021E00093008D4AD3589F468C4806F0D9FF8C4BFC
:1021F0001A7CD30700D50FE201231343884A1374D6
:10220000FFF79AFB012801D101F033F8002804D030
:10221000022801D101F01FF8DDE782494B78180050
:102220002830754A8218804802605278D2000833FC
:10223000D3184B70CFE77D4806F0B2FF784B1B7C7C
:102240009A0707D55A0600D5E6E140221343744A9F
:10225000137403E002221343714A1374FFF76CFBFB
:10226000012801D101F005F8002804D0022801D18D
:1022700000F0F1FFAFE76B494B78180028305E4A59
:102280008218694802605278D2000833D3184B7024
:10229000A1E7634B1A7C530700D5BDE10423134328
:1022A0005F4A1374624806F07BFF5E4B5B781A004E
:1022B0001800283050494118C878002806D02A3222
:1022C00000210420FEF75CFE00F0C5FF564A1160B5
:1022D0004A78D2000833D318524A53707BE75548E6
:1022E00006F05EFF544B1B78002B1FD1534806F0BD
:1022F00057FF4C4F380010307A7828323E4B9846C2
:1023000019000AF026FD4E4A00234E4802F060FAFA
:102310000122494B1A700021397341487B784344AC
:10232000DB6A4361183007320AF031FD102246495A
:1023300028000AF0FFFC002800D050E110223349A9
:1023400020000AF0F7FC002800D048E1354B59780E
:102350000B002833284A9A18314B5B695068984221
:1023600000D03CE1394B1B88303B5B1A9BB299464D
:1023700053881F021B0A1F4307239F43BFB24946CE
:10238000334806F00DFF3900324806F009FF002FF0
:102390001FD1244B1A7B02210A431A73224A116867
:1023A0005A78283214488046825C0A70180010302F
:1023B0005A78283241460AF0CCFC274806F0F0FE55
:1023C000264806F0EDFE43469979254806F0E8FEDA
:1023D00003E080239B009F4205D8B846C844802371
:1023E0009B0098453EDD0022134B1A70154802F001
:1023F00021FA00F03EFFC0461C150020A0DF0000BF
:10240000BCDF000098E10000FE80000034150020D1
:10241000D4DF00000CE000004CDC000048E00000CD
:1024200050F7FF1F50F5FF1F2017002060E000004D
:102430007CE0000098E00000B0180020B0E0000050
:1024400060EA0000C01800202415002008150020B4
:10245000C8E00000D0E00000DCE00000E4E00000A4
:10246000ECE00000B74B5B78B74AD3185B8DDB0517
:102470000DD4B44A137B01210B4313734B46D91976
:1024800089B2B24B1984B24806F08AFE15E04B4679
:102490005B0712D0042200211000FEF771FDA94A4B
:1024A000137B04210B4313730022AA4B1A70AA4812
:1024B00002F0C0F9A94B1B8896E0A24B5978103363
:1024C0002831C8191818A04BC91808314A460AF013
:1024D00040FCBB0942469211934210D19B4AD3184B
:1024E0009F484246D11007221140415CFF083A4004
:1024F000825C8A4311001A7E0A431A761DE09349D2
:10250000C918BF067F0F9648C75D087E3843087616
:102510000133FF2104E08D48C018017601339BB2DE
:102520009A42F8DC894B9A1843469B065B0F8C490C
:10253000CB5CD943137E0B431376824B1B7BDB07AB
:1025400001D400F096FE814B1B8C9A0900217F4834
:10255000183006E04F1C415CFF2901D000F089FED5
:1025600039008FB2BA42F5D878498A189B065B0FBA
:102570007B49CB5CDB43127EDBB29A4201D000F098
:1025800078FE0022734B1A70734802F053F96F4BB8
:1025900098461F8C3B0028336A494F78FF18BFB21A
:1025A00043461F84684B994610313A0018000AF0E0
:1025B000D0FB3A00283A12124B461A713B00283BD6
:1025C000DBB249464B711202FF2109020A401A434D
:1025D0003900644806F0E4FD43461B8C04E0624881
:1025E00006F0DEFD00F045FE5C4A1380002B01D1B1
:1025F00000F03FFE534B1B7B5B0701D500F02BFE29
:102600005A4806F0CDFD00234E4A53704F4A1374CA
:10261000574A584B1A60DEE5564B1B684A4A9A1ACD
:1026200001210420FEF7ACFC00F015FE454B5B7861
:102630002833454AD25C494B19884F4806F0B0FD13
:10264000FFF77EFA4D4B984204D04D4806F0A8FDA6
:1026500000F00FFE3B4B5B7828331A003A4BD3183F
:1026600059781878FEF75CFC012809D1354B5B7866
:102670002833354AD15C434806F092FD00F0F9FD5D
:10268000364B1B88002B01D100F0F3FD00F0E3FD79
:10269000FFF796FA3C4806F083FD304A1388303B3A
:1026A00013803A4B3A4A1360303BDB8D002B01D14B
:1026B00000F0F0FDFFF750FA304B98420AD0224B61
:1026C000DC8DFFF749FA02002100324806F068FD70
:1026D00000F0CFFD1C4B5F8D002F04D12E4806F07B
:1026E0005FFD00F0C6FD2D4A2D4B1A60164B1B8D69
:1026F00098462A4C2A4E2B4D238A002B19D0BB42D8
:1027000017D1638A002B01D0434512D12368002BD7
:1027100008D16368002B05D1A368002B02D1E368C0
:10272000002B45D0102221001F480AF003FB00288F
:102730003ED020343460AC42DED31C4806F030FD7D
:1027400000F097FD50F5FF1F1C15002050F7FF1FEC
:10275000F8E00000B0180020C01800200815002084
:10276000A0DD000014E1000030E1000058E10000AD
:10277000221500202017002078E10000FFFF000054
:102780009CE10000B4E10000DCE100004C150020F9
:1027900028170020F4E1000018E20000DC180020F7
:1027A000241700201C1A0020241500202CE2000011
:1027B000D84806F0F5FC0023D74A13600221D74A17
:1027C0001170D74AD7490A60D7490A60D74A13809F
:1027D000FFF744F8D64806F0E3FCD44B1B88002BE7
:1027E00001D100F046FD1A00303292B2D1490A8080
:1027F000D14C1100283909122171283A6271CF4A4F
:102800001268117DE1711121A17108339BB2190287
:102810001B0A0B43A3850023E385138A2385538A70
:1028200063852300183323CA23C312681A6021006A
:1028300018312000083008F099FA3C34B94B1C607C
:10284000FFF78AF9C04380B2002802D0BA4BD8857E
:1028500003E001225242B84BDA8505F043FD00F057
:10286000F4FCFFF7ADF9B64806F09AFCFFF76EF9F5
:10287000B44B98420AD0B04B1C8FFFF767F90200A7
:102880002100B14806F08CFC00F0F3FCAA4B5F8DF0
:10289000002F02D01E8D002E04D1AC4806F080FC23
:1028A00000F0E7FCAA4CAB4D230025331B78002B2E
:1028B0000DD0238ABB420AD1638AB34207D11022CA
:1028C0002100A5480AF036FA002800D186E130340C
:1028D000AC42E9D13523984AD25C0A331340022B2B
:1028E0000ED19E4B5F8400229D4B9A709D4B1B889E
:1028F000BB4201D000F0DAFC59E00322984B9A70F9
:10290000994806F04DFC35238B4AD35C5B0701D513
:1029100000F0AFFC13001421352299542831854A68
:102920001180143134229954053A995C8846332534
:10293000585D98542E241A5D32201E5C1E551A5480
:102940002D26985D03341F5D9F5518552C27DC5D9F
:10295000834EB4703026995DD9559C55414601315E
:10296000C9B2595500290ED10132D2B2322372496F
:10297000CA54002A07D1431CDBB231328B54002BDE
:1029800001D1631C8B556C4B1A8D74494A84598D47
:1029900019855A851A001832083313CB13C21B68E5
:1029A000136072496C4808F0E1F900F036FC704899
:1029B00006F0F6FB00246A4B9C7026002300644856
:1029C000302526271A002900594341182531097856
:1029D000002908D1002E01D061498B703024624358
:1029E0005B4C141919E0072910D1002C09D02900DB
:1029F0005943574EB446614426310E78E15D8E420C
:102A000004D96A431400524A944664440133DBB249
:102A10000126072BD6D9524A9370002C01D100F021
:102A200028FC3D4B1C6003232622A354023AA354E6
:102A30000023023AA35404210132A1540432A354C6
:102A40003D4D6B8D23822B8D63822B00083322003A
:102A500043CB43C21B68136001202523E054404B45
:102A60001A7A22765A7A62769A7AA276DB7AE376B4
:102A7000A0832F23EB5CE3752E23EB5CA3752D2342
:102A8000EB5C63752C23EB5C2375FFF743F8342371
:102A9000EA5C253B11009943502900DC81E00023CA
:102AA0002F498B701209053A95001E00012071E034
:102AB0002149C9183C310978002904D1002E70D071
:102AC000274A93706DE0012902D10133DBB260E047
:102AD000022951D1184989183D31097804294BD16F
:102AE000002E01D01E498B70134B9A1813003E33F1
:102AF0001B781B023F3212781343184A53841A1C66
:102B0000E22149008B4201D91A4B1A88E2832284C0
:102B100047E0C04650E200002C1700201C170020A0
:102B20004C150020281700200C150020D818002074
:102B300060E20000081500201C150020241700206A
:102B400070E20000FFFF000088E20000ACE200003D
:102B500030170020B01800202415002050F7FF1F68
:102B600050F5FF1FB4180020BCE20000341500200F
:102B7000C8E2000026DC0000C94989183D31097807
:102B8000002904D1002E0CD0C64A937009E0CB185E
:102B9000DBB206001A1EAA428ADB002E01D0C14A0F
:102BA000937010213523BE4AD154BD4B3521585C5A
:102BB000022202435A543C223339995402310132E1
:102BC0009954033901329954C331013299548439EB
:102BD000B54A1180203134229954BFE2B34806F03F
:102BE000DFFAB34B1C600022B24B1A703523AC4A9B
:102BF000D05C0425054008D00022103BE25420326E
:102C0000AC4B1A70FEF72AFE33E33423A44AD15C9E
:102C100009098900A34B9970A34A1388283B591AC4
:102C200089B211802523E25C163B1340022B04D1AC
:102C30003F260640122E06D11CE0012B03D13F2671
:102C40000640022E16D0002901D1810712D09449E6
:102C50008E8DA18A8E4204D19149CE8DE18A8E4219
:102C600008D0820700D46EE2012B9AD0022B00D04C
:102C700069E29AE7C10600D42CE3A18B002900D1B8
:102C800028E320001830FEF715FF3023844AD05C7B
:102C9000894B1B7883424FD13123D15C864B5B78C3
:102CA0008B4249D13223D25C834B9B78934243D1F0
:102CB00033237B4EF35C804EF6789E423CD12076E7
:102CC0006176A276E3762723E35C002B1DD12226D2
:102CD000A15D2433E35C2622A25C9B1ACA089B1ADE
:102CE000DBB2DAB2C918C8B2A05551B2002901DA74
:102CF0005B42DAB22326A15D8B08CB1A9B18DBB2AC
:102D0000A355C2089B182422A3540122694B1A70B0
:102D10002423E25C0233E2540023A3832533E25CE4
:102D2000163B1340013BD9B2072900D9A1E2DBB21F
:102D30009B006249CB589F462523E25C163B13401B
:102D4000013BD9B2072900D993E2DBB29B005C4971
:102D5000CB589F46574B1B78DB0716D503222523FC
:102D6000E2543D32534B1A700023A3834E4B188814
:102D7000002804D002324F4B1A70FEF7CBFE00221F
:102D8000504B1A80FEF76AFD17E13523444AD25CA6
:102D90000A331340022B00D06BE202E7454B1B784D
:102DA000DB0700D494E035233D4AD25C0A3313405C
:102DB000122B00D08CE02233394AD35C0F22190049
:102DC000914350294DDD0020364A90701B09053B88
:102DD0009E0001213EE0324A52193C321278002A0C
:102DE00004D100283DD02F4B9D703AE0012A02D13A
:102DF0000135EDB22DE0022A1ED1294AD2183D320A
:102E00001278042A18D1002801D0264A9570244A45
:102E1000D3181A003E32127812023F331B78134344
:102E2000294A53841A1CE22149008B4201D9274BBD
:102E30001A88E283228414E0194AD2183D321278AB
:102E4000002A04D100280CD0164B9D7009E05519BA
:102E5000EDB208002B1EB342BDDB002801D0114BA0
:102E60009D7003222523E2540D4B29329A5C227572
:102E70002D229A5C62752E229A5CA2752F229B5C91
:102E8000E3750120FEF746FE42220A4B1A7000232A
:102E9000A383054A13800B4A1380FEF7DFFC8CE006
:102EA0001C15002050F5FF1F08150020DCE2000073
:102EB0002C1700201C1700201015002040DD0000FA
:102EC00060DD0000D818002050F7FF1F26DC00004E
:102ED0002022C24B1A70FEF7C1FCC14B1A680021B8
:102EE0002523D1540CE53523BE49CB5CD90725D524
:102EF000D10623D4A38B002B00D0BAE1BA4D288889
:102F0000013080B2FEF706FEB4490B7810221A4356
:102F10000A702A88002A02D0122213430B70FEF78F
:102F20009DFC0123A38308222433E25400220233B0
:102F3000E25411213523AB4AD15408E19B0611D547
:102F4000A8483A23C35C19023B23C35CA74D180071
:102F500008432E68B44660442860A3480B430188A8
:102F6000CB1A0380A04B1888002808D0D30606D4BB
:102F70009A4A137802210B431370FEF7CBFD994A4E
:102F80003623D35C1B023721525CD3189BB2984A7C
:102F90005384228C934201D8002B01D1944B5A8444
:102FA000934B5B8CE3838D4B1B789B0700D160E1D7
:102FB0000022904B1A80FEF751FC884B1B789A0632
:102FC00009D500228B4B1A802523E254142110339B
:102FD000844AD154BBE0DA060FD50022854B1A8013
:102FE0000123A38304322433E25402330022E25447
:102FF00011210E337B4AD154A9E07E4A1288002A5F
:1030000012D0DB0702D50023A38302E0A38B002BA1
:1030100008D1E38B9A4201D9764A1380754B1B88FD
:10302000A38301E0734A138000222723E254724BEA
:103030001A686E4B1A606F4B1B88002B0AD0A38B4B
:10304000002B07D03C33684A138018213523654A8A
:10305000D1547FE0614B1B789B0700D409E13C22EF
:10306000614B1A80102135235E4AD15472E05B4BCC
:103070001B78DB0700D4FCE000222523E254103249
:10308000564B1A70FEF7EAFBF3E0574B18880028FE
:1030900001D0FEF73FFD3523524AD35CDB0717D53D
:1030A0004E4B1B78DB0707D507222523E25400236C
:1030B0001F32A354A38302E006222523E2540120F9
:1030C000FEF728FD1022454B1A70FEF7C7FB3AE0C9
:1030D000424B1B78DB0705D505222523E25400234C
:1030E000A383C6E0404B1B88002B2CD1C1E03E4B94
:1030F0001888002800D1D3E0FEF70CFD3523394AAB
:10310000D35CDB070ED507222523E25400220133CE
:10311000E2540120FEF7FEFC1022304B1A70FEF73D
:103120009DFB10E0304B1B88002B0CD1A1E02B4BFA
:103130001B78DB0700D49CE007222523E254002201
:103140000133E25495E010213523264AD1543C2224
:10315000254B1A8050213423224AD154274806F0A7
:103160001FF8227D1F483023C254627D0133C254B0
:10317000A27D0133C254E27D0133C254227E073B5B
:10318000C254627E0133C254A27E0133C254E27E35
:103190000133C254238A0385638A438503001833AD
:1031A000220062CA62C312681A6001001831083036
:1031B00007F0DCFD124805F0F3FF124805F0F0FFC0
:1031C000114805F0EDFF2523E35CDB061ED5054B1A
:1031D000002237215A5401395A541EE01C1700208E
:1031E0002C1700201C15002008150020281700208F
:1031F00050F7FF1FD81800200C150020E8E200004F
:10320000F8E20000180C010098E10000384B0021A2
:1032100036229954803101329954354C0623A371DA
:10322000344B1B79E371344B1B881A00283A121275
:103230002271283B637100233B22A354013AA3541B
:103240002387FEF783FCC0432087294B60221A7036
:1032500000225A705A80264B1A7912025B791A435F
:10326000254B1988254805F09BFF0022244B1A7036
:1032700039E00022204B1A800023224A002151709D
:10328000214A13741E4A13702DE0204A204B1A6005
:10329000FFF72CFA164B5F8D002FF6D1FFF71EFAC1
:1032A0003523134AD35CDB07E3D52CE70122154B0A
:1032B0009A70184B5B88BB4201D1FFF778FB154B26
:1032C0009B88BB4201D0FFF718FB01320D4B9A706F
:1032D000FFF76DFB013BD9B20729CAD8DBB29B00CF
:1032E0000D49CB589F460CBC90469946F8BDC04648
:1032F0001C150020E02300200815002010E300002A
:103300001C17002050F5FF1F50F7FF1FDC1800208E
:1033100024170020B418002080DD0000030C0202F6
:103320000004000E104300041A021B1213439BB248
:103330001843704710B50300134A1068002807D0DF
:10334000124AC532FF32121A8A4207DD0A0005E02E
:103350000A00E22149008A4200DD0A00002A11DD4C
:103360000B490A8098420DD0002806D11204120C95
:103370001900064809F0EDFC04E01204120C1900D3
:1033800009F0E7FC10BDC0460C15002058150020C0
:10339000D8180020012842D800281FD1204B2149ED
:1033A0005A588020000102435A501F495A58802021
:1033B000C00302435A501D4B802292005A619A6109
:1033C000DA611B4BDA785A7900221A705A7020326F
:1033D0009A70DA7850221A70DB7820E001281ED12A
:1033E0000F4B10495A588020400102435A500E4951
:1033F0005A588020000402435A500E4B80229200FB
:103400005A619A61DA610C4BDA785A7900221A70A3
:103410005A7020329A70DA7850221A70DB7870472E
:1034200000700440381000003410000000B0044068
:103430000060074000C004400070074030B5050040
:1034400041180A4A20240A48D3782342FCD0D37872
:103450002B785371D3785BB2002BFBDAD378537996
:10346000037001358D42EFD130BDC046006007408A
:1034700074F7FF1F70B582B00D00FF226B46DA7142
:103480000400074E01216B46D81DFFF7D7FF3378A4
:103490002370013D0134002DF4D102B070BDC0464F
:1034A00074F7FF1F30BFFDE7014B18887047C04617
:1034B00078F7FF1F074B1B8801339BB2FA221202D9
:1034C000934202D0034A138002E00022014B1A808B
:1034D0007047C04678F7FF1F70B50500304B1B786A
:1034E000DEB2304B9C78002C52D12D4B1B78002B38
:1034F00050D0002850D004F03DFC2A4B1B885919AD
:10350000294A91420BD972009219D20027498A1890
:10351000C021C9008C466344ED18958106E0720015
:103520009219D20021498A18ED18958173009B19D0
:10353000DB001E4A9A181E4B1968002907D00A6141
:10354000130051611A490A6000221A610BE0184BFE
:103550001A60184B1A6073009B19DB00134AD318CA
:1035600000221A615A610F4A73009B19DB000F4E4B
:10357000F3189B7B9B0010495B585168994351603D
:10358000802252050D4B1A6062B604F0F7FB04E08E
:10359000042402E0082400E00924200070BDC04695
:1035A000851A002078F7FF1FFFF900002421002072
:1035B000142200202021002034E3000004ED00E06C
:1035C000F8B5224B1C68002C3DD0214D2F00A2895C
:1035D0002B889A4234D1A67B04F0CCFBB6001D4B5D
:1035E000F3587A6813437B601B4BA38104F0C6FB3E
:1035F000164B1B68A3420FD1184B1B68A34205D181
:103600000023164A1360114A136015E023690F4A1C
:10361000136000225A610FE0104B1B68A34205D1D2
:1036200063690E4A136000221A6105E0236962692A
:103630005A61636922691A6180225205084B1A6037
:103640002469002CC3D109F0A7F8F8BD202100207F
:1036500078F7FF1F34E30000E9FDFFFF142200208C
:1036600004ED00E00B4B002200211A800A48017093
:103670000A4801709A609A81094B19002031FF3283
:103680001A7001338B42FBD10023064A1360064AAD
:103690001360704778F7FF1F851A0020601A00201A
:1036A000641A00201422002020210020F0B55F467B
:1036B00056464D464446F0B483B000900191160042
:1036C0001D00694B1B780024002B02D004F052FB34
:1036D000040003239E433F2E0AD8634B1B7802202D
:1036E000002B00D1B8E0200004F048FB0220B3E03A
:1036F000B7085E4B9B89DB19D022520093420AD94E
:10370000594B1B780120002B00D1A5E0200004F0CC
:1037100035FB0120A0E0002D1BD01F2D0AD9524BF4
:103720001B780320002B00D196E0200004F026FB3C
:10373000032091E04E4B5B5DFF2B14D04A4B1B786E
:103740000420002B00D187E0200004F017FB0420A8
:1037500082E0454B1B780720002B7DD0200004F031
:103760000DFB072078E0434A1378013313703F4B79
:103770009968CB0769D501230120DAB2924602008D
:103780009A4011420AD153460133DBB29A460A43AA
:10379000364B9A605346002B0DD102E00133082BC3
:1037A000EBD1314B1B780A20002B55D0200004F0C0
:1037B000E5FA0A2050E00C9B002B01D052461A601B
:1037C00053465B0099465344DB002B4A01999950BC
:1037D0002A4B9B465B68F3184A465244D20026495E
:1037E000884690441A00403A41464A608B608D7387
:1037F0001F4B52465A553100009804F061FA1B4A9B
:103800009389FB1893815B465B689B1959464B6013
:103810001B4B41468B810021434619614B46534463
:10382000DB001548844663445961AD00154BEB58E5
:1038300051680B4353600C4B1878C0B200280BD072
:10384000200004F09BFA002006E001230A001A433E
:1038500006498A609A46AEE703B03CBC904699465A
:10386000A246AB46F0BDC046851A002078F7FF1F80
:10387000641A0020601A0020242100205CF0FF1F41
:10388000E8FDFFFF34E30000F0B54F4680B482B09E
:1038900001900C002D4B1B780025002B02D004F06A
:1038A00069FA050003239C433F2C09D8274B1B785A
:1038B0000220002B45D0280004F060FA022040E0EE
:1038C000A708234B9B89DB19D0225200934209D9C8
:1038D0001E4B1B780120002B33D0280004F04EFA39
:1038E00001202EE01B4B99465B68E3181A4E190025
:1038F0004039DC22B1500432B3500022E623F254A6
:103900000932164B1A702100019804F0D9F9104BB6
:103910009A89BF189F814A465268944664444A4631
:1039200054600F49E422B152E33A59680A435A609D
:10393000064B1878C0B2002803D0280004F01EFA05
:10394000002002B004BC9146F0BDC046851A00209C
:1039500078F7FF1F5CF0FF1F24210020641A00206D
:10396000E8FDFFFF064A00231370137213741376E9
:10397000044A13701373044A137013731376704759
:103980001C1A0020881A00203C1A002010B5FFF7EE
:10399000E9FFFFF767FE04F007F910BD424B9842BC
:1039A00041D9424B98421DD9414B98420BD9414BCA
:1039B000984202D9C00F1E3074E03F4B83428041D1
:1039C00040421C306EE03D4B984205D93C4B83424F
:1039D000804140421A3065E03A4B83428041404288
:1039E00018305FE0384B98420ED9384B984205D9D1
:1039F000374B834280414042163053E0354B83427F
:103A00008041404214304DE0334B984205D9334B4E
:103A1000834280414042123044E0314B8342804136
:103A2000404210303EE0FF2820D92E4B98420ED95C
:103A30002D4B984205D92D4B8342804140420E3098
:103A400030E02B4B8342804140420C302AE0294B2E
:103A5000984205D9284B8342804140420A3021E0F8
:103A6000264B83428041404208301BE00F280DD98D
:103A70003F2805D97F23834280414042063011E030
:103A80001F2383428041404204300BE0032805D9C4
:103A90000723834280414042023003E001238342F6
:103AA000804140427047C046FFFF0000FFFFFF001B
:103AB000FFFFFF0FFFFFFF3FFFFFFF1FFFFFFF03A2
:103AC000FFFFFF07FFFFFF01FFFF0F00FFFF3F00AA
:103AD000FFFF7F00FFFF1F00FFFF0300FFFF070046
:103AE000FFFF0100FF0F0000FF3F0000FF7F00000D
:103AF000FF1F0000FF030000FF070000FF010000A0
:103B000010B5054B5B68054A10681840FFF746FF83
:103B1000034B185C10BDC04678F7FF1F5CF0FF1F19
:103B2000641A002010B5C0210B48FFF7ADFE041E3B
:103B30000FD1FFF7E5FF094B18701B785A00D31817
:103B4000DB00074AD3185A68064B1A6062B600DFDA
:103B500000E00124200010BDA5340000851A0020DB
:103B600024210020C823002010B5041E0AD02830CC
:103B700000F012FA200005F069FE034B18682100DE
:103B800000F076FC10BDC0466CF0FF1F10B5034B73
:103B90001868034900F040FB10BDC0466CF0FF1FE1
:103BA000693B0000F0B583B001900E0017001D00C6
:103BB0001D4B186800F08EFB041E27D010220199BF
:103BC00009F0C7F82123E7540133E55420002830D9
:103BD00000F0DEF920001030002107F069FB200022
:103BE0001830002107F064FB00222023E2540F4824
:103BF00005F0D6FA0E4805F0D3FA29000D4805F075
:103C0000CFFA200005F022FE20000BE00A4805F064
:103C1000C7FA3100094805F0C3FA2900054805F044
:103C2000BFFA002003B0F0BD6CF0FF1FC4E300003A
:103C3000E4E30000F0E30000FCE300001CE400000B
:103C400010B50100024B186800F042FC10BDC046E0
:103C50006CF0FF1F70B505000F4B186800F01CFBDF
:103C60000400002D11D0002811D00B4E1022290085
:103C7000200009F05FF800280BD02100306800F028
:103C8000DFFA041EF2D1002004E0002002E0002050
:103C900000E0200070BDC0466CF0FF1F10B50100B1
:103CA000024B186800F0CCFB10BDC0466CF0FF1F43
:103CB00010B5FFF7F3FF10BD10B5FFF7CBFF0028DD
:103CC00002D0FFF7BDFF00E0002010BD70B5050079
:103CD0000E00102001F0FAFA0400054907F0FEF981
:103CE000002804D132002900200005F075FD70BDC8
:103CF0006003010070B51C4B186800F0CDFA041E7B
:103D000030D02223E35C012B25D12500103528007B
:103D100007F0D6FA00281ED02000FCF7B1FE0028DC
:103D200010D0124805F03CFA114805F039FA032288
:103D30002223E2540521280007F0BAFA00222023AA
:103D4000E25408E00B4805F02BFA094805F028FA80
:103D500002222223E254044B1868210000F070FA7A
:103D6000041ECED170BDC0466CF0FF1F30E40000D1
:103D70009CDE000054E4000010B508F0E9FC0120CE
:103D800006F01CFB012007F0C9F904F0C7FF00F0A2
:103D900095FE00210C4805F04BF806F015FD04F0E7
:103DA00017FE00F09BF9094807F0A8F9084805F04C
:103DB000F7F90849002005F0CFFA0749074805F050
:103DC000EFF904F0B7FFFCE7A0F0FF1F30FF0000A1
:103DD00080E400001822002094E40000A0E4000029
:103DE00010B5FFF7C9FFC04610B504004388002B8B
:103DF00002D0B72B0ED046E0002A03D10023438027
:103E0000022045E04160028200222023C25434E0B7
:103E1000B72363802023E35C062B03D11D4B1B7863
:103E20005A0711D5238A1C4A1268D18B8B4203D9B9
:103E30006068FFF77FFA03E019006068FFF77AFA1D
:103E400006222023E25422E0DB0720D5238A124AEF
:103E50001268D18B8B4207D95B1A2382D38B62689D
:103E600094466344636005E062689446634463601B
:103E70000023238201222023E254238A002BC7D16E
:103E800000222033E25400236380032000E000205E
:103E900010BDC0461C1700202C170020C369008BE2
:103EA000181A80B27047C0460300428A0120002AD7
:103EB0000CD120329A5C022A04D103211E3299547B
:103EC000002003E0024B18788007C00F7047C046FF
:103ED0001C17002070B504000D004388002B04D08F
:103EE0008322520093420AD03EE0838BC268426133
:103EF0000383638A002B23D10733FF3363802000C1
:103F0000FFF7D2FF002832D002222023E254184BC0
:103F10001B68A360174B1B88638211E0A3681A78A3
:103F200063691A70A3680133A36063690133636135
:103F3000638A013B6382238B013B2383954209D033
:103F4000238B002B03D0638A002BE7D1D1E7638A50
:103F5000002BCED0A28B238B9A4205D100232022A6
:103F6000A3546380002002E000236380032070BD1F
:103F7000281700200815002010B500232024035521
:103F80004382C160C261416102830380438010BDEE
:103F9000002303607047C04610B504000068002885
:103FA0000BD082239B009C46604406F065FC216890
:103FB000024804F0E1FD0023236010BD88F0FF1FDC
:103FC0000068002801D0043000E000207047C0469F
:103FD0000368002B03D081229200985A00E0002051
:103FE0007047C04610B5324B32495A588020800085
:103FF00002435A503049314A995031495A58802029
:10400000400202435A501A68C020000302431A605B
:1040100058582C4A02408020400402435A502A4BF0
:10402000996C2A4A11409964D96C0A40DA64284B89
:1040300024225A708021274A11709A221A70D97846
:104040007B3A0A40DA7021221A7100225A71190053
:1040500010328B791342FCD11D490C228B7913400D
:10406000082BFBD140221A4B5A711900343A8B7934
:104070001340082BFBD1164940228B791342FCD008
:104080001A22134B1A7019000E3A8B7913400C2B1D
:10409000FBD10F4A517914330B4353710E4A917877
:1040A00001230B439370FDF78BF8002010BDC04631
:1040B000007004403810000000000110441000009F
:1040C00004100000FFFFFFFC00900440FFF8FFFE1B
:1040D000004006400050064000D0074010B5064B97
:1040E0001868002807D01C00002104F0A1FE043449
:1040F00020680028F8D110BD80F0FF1F002806D0EE
:104100004B1C06D043685943C068401802E00020A9
:1041100000E000207047C046002806D0044B9B6892
:10412000C01A8010034B584301E001204042704701
:1041300094F0FF1FABAAAAAA10B5031E07D000294E
:1041400008D0C268881A596808F0D2FB04E0012040
:10415000404201E00120404210BDC04670B505005C
:104160000C0011002000FFF7E7FF002C07D0431CD4
:1041700007D0285C236818410123184002E0002082
:1041800000E0002070BDC04670B505000C001E00A8
:1041900011002000FFF7D0FF002C15D0431C15D0D4
:1041A000002E08D028182268012393400278134378
:1041B000037001200BE02818236801229A4003783D
:1041C00093430370012002E0002000E0002070BD56
:1041D00070B5051E00D10E4D0E4804F0F3FF041E0D
:1041E00013D0002D09D0211D280006F077FF0028EC
:1041F00003D02000FFF790FF09E0200005F030F821
:10420000041EEED10120404201E00120404270BD79
:1042100060030100D4FDFF1F10B5084B5B6800224E
:10422000072B08D8054A5C1C5460036081609B0022
:10423000D31898600122100010BDC046D4FDFF1FA6
:10424000F8B504000E00124F124D28353100200041
:10425000FFF772FF431C06D0430018188000BB68AC
:104260009C46604400E0002004F0FAFFFFF754FF92
:1042700001002000FFF742FF061E06D002002100C9
:104280002800FFF76BFF0028E0D03000F8BDC046E3
:1042900094F0FF1FD4FDFF1F70B506000C4C2000EA
:1042A00004F090FFFFF738FF01003000FFF726FF12
:1042B0000500200028302A003100FFF74FFF0028BA
:1042C00004D129003000FFF7BBFF0500280070BDB6
:1042D000D4FDFF1FF0B557464E464546E0B484B0C6
:1042E00004000D1E00D1534D2800FFF771FF070099
:1042F000431C6FD1504804F01DFC061E00D081E025
:104300004E4804F05FFF071E76D000239A460193C3
:104310004A4B994634263800FFF7FEFE4B461B18E1
:104320009B5D002B16D1454B9C4660442823C35C03
:10433000002B63D0002201200100194052185B10AD
:10434000FAD1019B002B01D0524503DA002A07D095
:1043500001979246380004F083FF071EDBD104E08A
:10436000019702E0019700E001970020019B002BDC
:1043700059D0324B1E0008362822904698444346B6
:1043800002933768002F14D0BB689A46002B10D0D8
:104390000198FFF7C1FE01003800FFF7AFFE0200F1
:1043A000039039000298FFF7D9FE012801D1039844
:1043B000D04704364645E4D1019E3000FFF7ACFEFD
:1043C00003001E48C318002128229954310004F02C
:1043D00007FF17E039002000FFF790FE0500626834
:1043E000002108F0D4FC01232A00210013482830C2
:1043F000FFF7CAFE280016E0002014E0019B002B06
:104400000DD1AFE731000D4804F004FF3000FFF795
:1044100083FE0700301D290006F05AFEDAE75346F6
:10442000002B97DDA0E704B01CBC90469946A2463D
:10443000F0BDC0466003010094F0FF1FD4FDFF1FD4
:1044400070B505000800FFF7C3FE01002800FFF764
:1044500055FE04000200290004482830FFF77EFEC4
:10446000002801D0200000E0002070BDD4FDFF1F17
:10447000F8B505000E00094C2000283000230A0082
:104480002900FFF781FE07002000343000233200AE
:104490002900FFF779FE3800F8BDC046D4FDFF1FA4
:1044A00010B50A000123010002483430FFF76CFE0A
:1044B00010BDC046D4FDFF1F10B50A000023010047
:1044C00002483430FFF760FE10BDC046D4FDFF1F28
:1044D00010B5FFF731FE431C0AD0430018188000C6
:1044E000044B9B681B180020002B02D0181D00E015
:1044F000002010BD94F0FF1F10B50A4800F0FCFE2C
:10450000094A1169094B0B400421FF310B43136128
:10451000A0221203F3390648FCF702FF2F20FCF714
:1045200077FB10BD1048000000C00440FCF8FFFEFF
:10453000C0F00F40014B18607047C04698FEFF1F47
:10454000024B1A68024B1A607047C04698FEFF1F64
:1045500000810440024B55221A6055321A607047A0
:1045600004810440F0B5474680B42A4B9B79062B62
:104570004AD1294B1B88432B46D93C3B9BB25D0853
:104580006A002E009A4200DA6E1C2B003C33224F48
:104590003B80204C1A00283A12122271283B63718A
:1045A000002398462387FDF7D1FAC0432087FCF704
:1045B00085FF33003C339BB23B801A00283A12122D
:1045C0002271283B6371154B18684119320008F0BD
:1045D000C0FB20002C302900FDF76CFA104B197835
:1045E0002C22A15459780132A15499780132A15456
:1045F000DA782F23E25443462387FDF7A7FAC04316
:104600002087FCF75BFF01E0FCF758FF04BC9046F5
:10461000F0BDC0461C1500200815002028170020FA
:1046200010150020F0B583B01D4B1B68002B05D181
:10463000002000211A4B9860D9602FE008F090F814
:1046400006000F0000960197154B1B681C685D68FB
:104650009968DA686418554131003A00641A954146
:104660001E69002E13D032687368B068F1681218A2
:104670004B4100980199121A8B419D4202D803D1F7
:10468000944201D914001D003669002EEBD1009828
:10469000019900196941024B9860D96003B0F0BDDF
:1046A000A0FEFF1F10B5024804F0E0FB10BDC0469D
:1046B000A0F0FF1FF0B5474680B407000388002B29
:1046C00002D0592B07D053E000222C4B1A605923FB
:1046D0003B8001204FE087291ED1284B1B68002B0F
:1046E000F5D059698A4213D11B69002B03D10022EE
:1046F000224B1A60EBE759698A42F5D01F490B60DB
:1047000006E04869824202D10969196100E00B00A4
:1047100019690029F5D1DAE78229D8D1174B9846D3
:10472000002643461C68002CD1D0350000E01C0058
:104730002000FCF7CFFA002815D0220088216069FC
:1047400004F048FB00280CD16661002D02D02369DB
:104750002B6102E0094B22691A602661FFF762FFB4
:10476000DFE7FFF79FFF23692500002BDFD1AEE7CE
:1047700000230380032004BC9046F0BDA0FEFF1F71
:1047800010B50400FFF78EFF6369002B11D00E4BAC
:104790001B68002B0DD09C4208D101E09C4205D142
:1047A0000A4B1B686361FFF73DFF0BE01B69002BA1
:1047B000F4D1064B1B686361034B1A6822611C60CD
:1047C000FFF730FF10BDC046A0FEFF1FA40E002063
:1047D00010B50400FCF762FA2000FFF7D1FF10BD0E
:1047E00010B50400FCF764FA2000FFF7C9FF10BD04
:1047F00010B50400FCF766FA2000FFF7C1FF10BDFA
:10480000406943425841704730B504684568826842
:10481000C368200029008018594130BD044B1B6833
:1048200000200021002B02D0014B9868D968704706
:10483000A0FEFF1F10B504000F4B1A68824204D17E
:1048400012691A60FFF7EEFE0CE0002A0AD0136925
:10485000984205D1130009E01A69944206D013006A
:10486000002BF9D100232361636104E022691A61FE
:10487000FFF7D8FEF6E710BDA0FEFF1F002070472F
:10488000014B1878C0B27047B0FEFF1F70B582B000
:104890004000C0B26B469C1D987103F06BFA060095
:1048A0000C4D10212800FCF76DFD01212000FEF7C2
:1048B000C5FD6B46DC1D01212000FEF7DBFD10214C
:1048C0002800FCF75DFD300003F058FA207802B0B4
:1048D00070BDC04680F00F4070B582B001AC4000A2
:1048E000012318432070617003F044FA0600094D5B
:1048F00010212800FCF746FD02212000FEF79EFD56
:1049000010212800FCF73CFD300003F037FA02B01C
:1049100070BDC04680F00F4010B50F4B5B78002B88
:1049200017D000220C4B5A70802109010B48FCF76C
:1049300029FD80212220FFF7CFFF04212A20FFF745
:10494000CBFF60210D20FFF7C7FF80213520FFF747
:10495000C3FF012010BDC046B0FEFF1F80F00F4016
:1049600070B582B06B469A1C58805B8801ACDB083E
:10497000802040420343237013885B0110221343BD
:104980006370A17003F0F6F90600094D10212800AC
:10499000FCF7F8FC03212000FEF750FD1021280051
:1049A000FCF7EEFC300003F0E9F902B070BDC04640
:1049B00080F00F4070B582B001ACC3088022524233
:1049C000134323704001607003F0D4F906000C4DCE
:1049D00010212800FCF7D6FC02212000FEF72EFD56
:1049E0006B46DC1D01212000FEF744FD102128004C
:1049F000FCF7C6FC300003F0C1F9207802B070BDAE
:104A000080F00F4010B53620FFF740FF040004216E
:104A10000B000343D9B23620FFF75EFFFB21214094
:104A20003620FFF759FF024807F0ACFE10BDC04624
:104A3000C409000010B50C4B5B78002B12D180210B
:104A400009010A48FCF79CFC04213620FFF744FFCB
:104A500000213620FFF740FF054807F093FE0122B2
:104A6000014B5A70012010BDB0FEFF1F80F00F40B7
:104A7000C409000070B5104D6C78E4B2FFF7DAFF9E
:104A80000423AB7001211B20FFF726FF0A4A93780D
:104A9000042BFCD0002C01D1FFF73EFF064B987889
:104AA000C0B2022804D0032804D0431E984102E07B
:104AB000022000E0032070BDB0FEFF1F10B50021F2
:104AC000014804F0B5F910BDB0F0FF1F10B50D207E
:104AD000FFF7DCFE01231843C1B20D20FFF7FCFEF7
:104AE00010BDC04610B501000B390901032319435D
:104AF000C9B280208000FFF733FFFFF783FF10BDAE
:104B000010B50400C1B20120FFF7E6FE210A022021
:104B1000FFF7E2FE10BDC04610B50400C1B203208D
:104B2000FFF7DAFE210A0420FFF7D6FE10BDC046CB
:104B300000B583B000900191009A019BD1B205208D
:104B4000FFF7CAFE009A019B120AD1B20620FFF7B6
:104B5000C3FE009A019B120CD1B20720FFF7BCFEE6
:104B6000009A019B110E0820FFF7B6FE009A019BE8
:104B7000D9B20920FFF7B0FE009A019B190AC9B209
:104B80000A20FFF7A9FE009A019B190CC9B20B205D
:104B9000FFF7A2FE009A019B190E0C20FFF79CFE66
:104BA00003B000BD10B501000148FFF7D9FE10BDEC
:104BB0000302000070B50020FEF7ECFB684800F02F
:104BC0009BFB6848FCF7F8FB6748FCF7F5FB674878
:104BD000FCF7F2FB664C402210212000FCF7D4FBCE
:104BE0008025ED00402229002000FCF7CDFB802627
:104BF0003601402231002000FCF7C6FB29002000CE
:104C0000FCF7C0FB012229002000FCF773FB3100F8
:104C10002000FCF7B7FB012231002000FCF76AFB03
:104C200010212000FCF7ACFB012210212000FCF732
:104C300061FB01224F4BDA70FFF75EFC3100200070
:104C4000FCF79EFB29002000FCF79CFB4A4E30003D
:104C500007F098FD29002000FCF792FB300007F0D8
:104C600091FD07212A20FFF737FE07242A20FFF7AE
:104C70000DFE0442FAD1404C200007F083FD0421D0
:104C80003620FFF729FE00213620FFF725FE200001
:104C900007F078FD98211820FFF71EFE0B20FFF784
:104CA00021FF02213548FFF75BFE80213448FFF7E2
:104CB00057FE0020FFF776FF90213248FFF750FEA5
:104CC00080213148FFF74CFE022182208000FFF74F
:104CD00047FE212188208000FFF742FE78213A20FC
:104CE000FFF7FAFD60213F20FFF7F6FD40213E204F
:104CF000FFF7F2FD254C5F252000FFF75BFEA84380
:104D0000C0B2A028F8D1FF219038FFF7E5FD0C21B3
:104D10000020FFF7E1FD1C211120FFF7DDFD112030
:104D2000FFF7B4FD95212E20FFF7D6FD3021272077
:104D3000FFF7D2FD01211648FFF712FE0D4B0022AE
:104D40001A715A719A701A7001325A70FFF75AFE2E
:104D5000FFF7BCFEF6213220FFF7BEFD002070BD3C
:104D60000848000041200000A1200000B120000000
:104D700080F00F40B0FEFF1FC409000001020000D8
:104D80000202000006020000070200000F020000FD
:104D90001102000030B583B03E20FFF777FD80217F
:104DA00049420843C1B23E20FFF796FD6B46002200
:104DB000DA8006331B889BB2002B0BD101256B4692
:104DC0009C1D3E20FFF762FD2840208023889BB277
:104DD000002BF6D084208000FFF7ECFD024B5871C9
:104DE0005879C0B203B030BDB0FEFF1F70B5094B9B
:104DF0005D78EDB2FFF71EFEFFF7CCFF00235F22C8
:104E000082425B41DCB2002D01D1FFF785FD20001D
:104E100070BDC046B0FEFF1F70B506000D004B1EF2
:104E2000DCB21B0618D400210020FFF799FD2900F1
:104E30000120FFF795FD002D11D035000134361902
:104E4000022429782000FFF78BFD01350134A4B23C
:104E5000B542F6D1002003E00120404200E00020EE
:104E600070BDC04670B506000D00074B5C78E4B21B
:104E7000FFF7E0FDE9B23000FFF7CEFF002C01D1D3
:104E8000FFF74AFD002070BDB0FEFF1F10B50C00FB
:104E9000FFF7E8FF002803D12000FFF7EBFD01E05A
:104EA0000120404210BDC046F8B505000C000022AC
:104EB000384BDA7010213848FCF74CFA04213920BD
:104EC000FFF70AFDC0208000FFF774FD871EFFB2C8
:104ED000A74211D8002F3ED00338C6B22F4B9C46B4
:104EE00066442F4C2000FFF765FD28700134A4B202
:104EF0000135B442F6D111E000213920FFF7ECFC76
:104F0000244B00221A700132DA70A0221203102101
:104F10002148FCF705FA0120404239E0BDB2214B9F
:104F2000E818FFF747FD1B4C2071C1239B00E818D0
:104F3000FFF740FD607100213920FFF7CDFC002311
:104F400023700133E370A022120310211248FCF7F2
:104F5000E7F938001CE0BFB2124BF818FFF72AFD42
:104F60000C4C2071C1239B00F818FFF723FD6071E2
:104F700000213920FFF7B0FC002323700133E370D8
:104F8000A022120310210448FCF7CAF90120404274
:104F9000F8BDC046B0FEFF1FC0F00F400203000086
:104FA000010300000303000010B5C9B2FFF77CFF46
:104FB00010BDC04670B504000388002B04D0EA225F
:104FC0009200934205D022E0EA239B002380012037
:104FD00020E0012082291DD10F4B1B78002BF3D03C
:104FE00000F00EF900F0B0F88021FFF75DFFC0B2CD
:104FF00000F0A4F8084D6979042000F04DF92979F2
:10500000032000F049F9054B1B699847DCE70023B2
:105010000380032070BDC046B0FEFF1F2C020100BC
:1050200010B53120FFF732FC002821D0C4B223078D
:1050300005D501220F4B1A700F4803F017FFE30745
:1050400011D52420FFF722FCC30709D5830603D519
:105050000222084B9A7006E00322064B9A7002E087
:105060000022044B9A70054B19681A680A431A60AB
:1050700010BDC046B0FEFF1FB0F0FF1FA0C004402F
:1050800010B5FFF7CDFF044B186804F0ADFA80228D
:105090005205024B1A6010BD1822002004ED00E0FA
:1050A00010B50A4B5C88002C0FD09888303030281F
:1050B00008DD3023054A08321119C95C99540133BF
:1050C0009842F9DC0022014B5A8010BDB8FEFF1F48
:1050D000F0B583B001900E4B1E783022921B9F8852
:1050E000BC18802C10DC1D0019000831891907F04C
:1050F00030FE019B981B30306B88064A916BC918B3
:105100003A0007F026FE00E00024200003B0F0BDC6
:10511000B8FEFF1F38FFFF1F0300074A92880020D8
:105120009A4207DB9BB20449488818184880D31A72
:105130008B8001207047C046B8FEFF1F014B98804E
:105140007047C046B8FEFF1F02484388C018383079
:105150007047C046B8FEFF1F024B180008301B788E
:10516000C0187047B8FEFF1F014B98887047C046B3
:10517000B8FEFF1F044B1A7830239B1ADBB2181EAF
:1051800001D1014B98787047B8FEFF1F10B5FFF7AB
:10519000F1FF024B9B88181880B210BDB8FEFF1FAC
:1051A00070B50500074B1C780020AC4209DBFFF707
:1051B000EDFF43190020802B03DC641B014B1C70A6
:1051C000013070BDB8FEFF1F70B50A4B19001E31CB
:1051D00000221A8002338B42FBD1074D074C290075
:1051E000200005F075FF20000830290005F070FF51
:1051F00070BDC0462C220020600301001C2200204C
:1052000010B5064B00225A809A8030321A7038331B
:10521000034A9363FFF7D8FF10BDC046B8FEFF1FD7
:1052200038FFFF1F70B506000D00FFF7E9FF2C1CCB
:10523000802D00D98024A5B2044B986B2A00310040
:1052400007F087FD024B9C80280070BD38FFFF1FD0
:10525000B8FEFF1F10B50C001E22044907F079FDAF
:1052600010220349200007F074FD10BD2C220020FD
:105270001C22002010B50C001E220100044807F07B
:1052800068FD10222100034807F063FD10BDC046F1
:105290002C2200201C2200204000024BC152012081
:1052A0007047C0462C2200204000014B185A70471E
:1052B0002C22002010B50F38C000034BC01805F099
:1052C00007FF012010BDC0461C2200200F38C0007F
:1052D000014BC0187047C0461C22002010B502497F
:1052E000024805F0FBFE10BD6003010024220020EF
:1052F0007047C0467047C04603049B0F9B00064A98
:10530000D318996D0A68FF230340C004C00E834080
:1053100013430B607047C046CCE50000002807D15E
:105320008C4B19688C4A0A401A601A681A600FE19F
:1053300080235B0298420AD1864B1968864A0A404C
:105340001A601A68802109030A431A6000E1C02329
:105350001B0398420AD17F4B19687F4A0A401A60A2
:105360001A68C02109030A431A60F1E0CC231B0626
:10537000984205D1794A136803218B431360E7E013
:10538000CD231B06984209D1744B1A6803218A4326
:105390001A60196801220A431A60D9E0CE231B065D
:1053A000984209D16D4B1A6803218A431A60196823
:1053B00002220A431A60CBE0CF231B06984208D191
:1053C000664B196803229143196019680A431A60F1
:1053D000BEE08023DB0498420ED1614B1968614A1C
:1053E0000A401A601968604A0A401A601A688021E7
:1053F000C9040A431A60ABE0A4231B0698420FD1EC
:10540000574B1A68802149020A431A601968564AA4
:105410000A401A601A688021C9040A431A6097E09A
:1054200080231B0598420AD14D4B19684E4A0A4009
:105430001A601A68802109050A431A6088E0C023AF
:105440001B0598420AD1464B1968474A0A401A6020
:105450001A68C02109050A431A6079E080235B04B9
:1054600098420ED13E4B19683E4A0A401A601968AC
:105470003E4A0A401A601A68802149040A431A60A9
:1054800066E0A1231B0698420FD1354B1A68802194
:1054900049020A431A601968344A0A401A601A68B5
:1054A000802149040A431A6052E080239B049842F9
:1054B0000AD12B4B19682D4A0A401A601A688021BC
:1054C00089040A431A6043E0C0239B0498420AD12E
:1054D000234B1968254A0A401A601A68C0218904BA
:1054E0000A431A6034E0B0231B06984205D11C4AD7
:1054F00011681F4B0B4013602AE01E4B98420AD1E3
:10550000174B1968174A0A401A601A688021C902A5
:105510000A431A601CE0184B98420BD1104B1A68D2
:10552000802149020A431A601A688021C9020A438D
:105530001A600DE0114B984205D1114A13680221FF
:105540008B43136004E00E4A116802230B4313607F
:105550007047C04600700440FFFFF3FF08B00340EF
:1055600004800440FFFFFEFFFFFFFFF3FFFFFFFC8F
:10557000FFFFFBFF00070C000407080001070C00F9
:105580000081044010B50648FBF748FF054B012297
:105590001A7000225A70AA219970D9709A7210BD9F
:1055A0001157000078FFFF1F10B5134CA17902209E
:1055B000FFF772FEA379112B06D10F4B5A8D198D6F
:1055C000914214DD110012E0062B06D10A4B5A8DD0
:1055D000198D91420BDD110009E000213A2B06D113
:1055E000054B2822995C090201329B5C194389B260
:1055F0000120FFF751FE10BD1C15002070B50500FD
:105600001478087A0223634098421FD1487A53786D
:1056100098421BD1887A9378984217D1C87AD37868
:10562000984213D1087B137998420FD1487B537964
:1056300098420BD1887B9379984207D1C87BD37964
:10564000984203D10320A840C0B223E00B89002B6D
:1056500014D14A89FF231B029A420FD18B89FE2B5A
:105660000CD10D4E74690E310222200007F071FB3F
:10567000023474610220A840C0B20BE0064E746987
:1056800008310822200007F064FB0834746101200F
:10569000A840C0B270BDC04678FFFF1F10B504001F
:1056A000114B1B78012B07D1082201000E48023054
:1056B00007F040FB002810D00B4B9B7A0020012BF9
:1056C00011D10822210008480C3007F033FB0300F9
:1056D0000020002B07D1013300E000239800C318FD
:1056E0005B000148C01810BD78FFFF1F10B5010016
:1056F0001020FFF7DFFD044B9B680021034898470B
:10570000FFF7F6FD10BDC0461CF600005D5E000010
:10571000F0B54F464646C0B483B00500B14C0023F7
:1057200023766376FFF76CFDFFF70EFDE061042141
:105730000920FFF7B1FD236A002B01D0FFF734FFEA
:10574000002D04D1A849684605F0C2FC03E02900F9
:10575000684605F0BDFCA54B1B883E2B00D85BE2DC
:10576000A04AD1698B1C5361537ECB1800229A70DA
:105770009F48FFF793FF002804D19E48FFF78EFF54
:10578000002808D09C4803F00BFD964A536901336A
:105790005361802400E00024984B18785978030165
:1057A0000A091343DBB29A019B081343DBB2DFB251
:1057B0000A0712D1914A5288002A0ED1030705D157
:1057C0000F2399437826002900D130E3854A536995
:1057D0001F7001335361702629E3020715D10F2290
:1057E00008009043021E10D17E4E75693F329343EC
:1057F000303A11400B432B70681C0D3A804907F07A
:10580000A8FA03357561682611E3764E756904229E
:105810007A49280007F09DFA2F70043575616026DB
:1058200005E304231E4304E06E494A691370013204
:105830004A61724BDB79402B05D0FF2B06D0012B40
:1058400007D11E430AE002231E4307E003231E4341
:1058500004E064494A69137001324A61674B1B894D
:10586000002B21D1654B5B89002B1DD1634B9B899C
:10587000002B19D1614BDB89002B15D15F4B1B8AA3
:10588000002B11D15D4B5B8A002B0DD15B4B9B8AAA
:10589000002B09D1594BDB8A002B05D1594803F065
:1058A0007FFC40231C4342E05248FFF7F7FE4D4B7C
:1058B0005862002819D04178534803F071FC494AD6
:1058C000537E0233D1698C466344526A5278120186
:1058D00019780A431A704D4A46490420FFF78EFE94
:1058E000402464422043C4B221E0444B1A89484B0F
:1058F0009A4213D1414B5B8B002B0FD13F4B9B8BBB
:10590000002B0BD13D4BDB8B002B07D13F4A394994
:105910000420FFF773FE0443E4B208E0314F7D69D1
:1059200010223449280007F014FA10357D61334BFA
:105930001B7EFF2B00D093E0082525432F4B5B7E79
:10594000022B29D12D4A528B002A00D07EE02B4A0F
:10595000928B002A00D070E2284AD28B002A23D1F1
:10596000264A128C002A1FD1244A528C002A1BD1AD
:10597000224A928C002A17D1263220498A5C002ABA
:1059800012D10B252543174A536927211B48415C37
:10599000197001335361A0E0184A528B002A55D187
:1059A000164A928B002A51D1144AD28B002A33D145
:1059B000124A128C002A2FD1104A528C002A2BD165
:1059C00024320E498A5C002A26D10A252543054F38
:1059D0007C692370601C03320E4907F0BAF9043465
:1059E0007C617AE078FFFF1F60030100081500204A
:1059F000341500202415002058E600001C15002056
:105A00001E1500208CE60000BCE6000014150020E6
:105A1000FE80000041150020CA4AD28B002A15D111
:105A2000C84A128C002A11D12232C6498A5C002A47
:105A30000CD109252543C44F7C692370601C0532B5
:105A4000C24907F086F906347C6146E0BE4F7C69A6
:105A50001022BF49200007F07CF910347C613CE043
:105A6000BB48FFF71BFEB84B5862002812D0042534
:105A70002C431A005B7E0233D269D318197842781E
:105A80000A431A706A46B2490020FFF7B7FD204367
:105A9000C5B222E0AB4B1A8BAE4B9A4213D1A94B45
:105AA0005B8B002B0FD1A74B9B8B002B0BD1A54BF6
:105AB000DB8B002B07D16A46A5490020FFF79EFD2E
:105AC0000443E5B209E0A04F7D691022A0492800F7
:105AD00007F03FF910357D61250028229A4B1A7690
:105AE000984B9B79112B00D08CE0964C238D618DC7
:105AF0000A02090A11438AB219021B0A0B4399B21E
:105B0000954803F04DFB238D1A021B0A13439BB2E9
:105B10000F2219009143914A91421FD1894A528D17
:105B20001102120A0A438E490A408C498A4215D151
:105B3000854CF323626913708A4803F031FB616975
:105B4000804A138D1B0A50331801528D120A13001C
:105B50005033C3184B700231616147E0794A528D6E
:105B6000120292B2F02109028A4215D1764FF12336
:105B70007A6913707C4803F013FB7C69601C7B4BD3
:105B800098460222190007F0E4F843465B881B0A96
:105B9000E37004347C6129E0FF229343F022120277
:105BA000934214D1684FF2237A691370F22170483E
:105BB00003F0F6FA7C6963490B8D1B0A6370A01C25
:105BC0002A31022207F0C5F804347C610EE05E4FF2
:105BD000F0237A691370674803F0E2FA7C69601C6D
:105BE0000422624907F0B5F805347C61564C6769B8
:105BF00002226149380007F0ACF802376761237E62
:105C000008332376504BD9695A7E8E548A185570C2
:105C10005A69521A5A7610E04B4CE26941231370CC
:105C2000657E6B1CD8B210182822464907F091F8FF
:105C300029356576237E2833237669461020FFF7C1
:105C400039FB4E4B1B689847041E00DA15244C4B59
:105C50005B6998477D231C1B241A4A4B1F883A4BCB
:105C60001E7EBA1B5D7E631B9A4200DCC0E002F020
:105C7000BFFE05007821380006F0B0FD83B2013385
:105C8000013D0020AB4200DDDDE02F4B9846DF698F
:105C90005D7E381D2A00390007F064F8394A138800
:105CA0001B0A402149420B433B7013887B704346DB
:105CB0001B8D1A0ABA70FB700133424613850435F6
:105CC000EEB25676A51B07239D43D562B819117E07
:105CD0001C4BC9182A0007F03CF87519A8B2FFF749
:105CE0002DFA02F08DFE051E00D194E06846FFF704
:105CF000FDFC280002F0BEFE280002F0A5FE124BBB
:105D00001B6B012B00D188E0043B012B00D886E0FF
:105D10000D4B1D7EDA6A94466544ADB205225A7673
:105D2000D96918480288120A2026764232430A703E
:105D300002884A70053C07229443DC628146024E89
:105D4000B0464FE01C15002078FFFF1F3F150020D4
:105D500034150020FE800000FCE60000B0F00000DA
:105D6000F0FF000030E700006CE700004415002061
:105D7000A8E70000F0E700004A1500201C0401001D
:105D80001CF6000008150020F069EA0802715B1B90
:105D9000F26A934201DA4246D3622D4B5F7EDC6A9F
:105DA000C0192C496918220006F0D3FF381980B2B7
:105DB000FFF7C4F902F024FE041E32D06846FFF754
:105DC00095FC200002F056FE200002F03DFE204B24
:105DD000DA6A94466544ADB21B6B012B23D0043BB9
